{
  "address": "0x6049681CC2Ebd25cbaB85F273CAcE2f2f7497d1C",
  "abi": [
    {
      "inputs": [
        {
          "internalType": "address",
          "name": "_UWIDContractAddress",
          "type": "address"
        },
        {
          "internalType": "string",
          "name": "_quarterName",
          "type": "string"
        }
      ],
      "stateMutability": "nonpayable",
      "type": "constructor"
    },
    {
      "anonymous": false,
      "inputs": [
        {
          "indexed": true,
          "internalType": "address",
          "name": "account",
          "type": "address"
        },
        {
          "indexed": true,
          "internalType": "address",
          "name": "operator",
          "type": "address"
        },
        {
          "indexed": false,
          "internalType": "bool",
          "name": "approved",
          "type": "bool"
        }
      ],
      "name": "ApprovalForAll",
      "type": "event"
    },
    {
      "anonymous": false,
      "inputs": [
        {
          "indexed": true,
          "internalType": "address",
          "name": "previousOwner",
          "type": "address"
        },
        {
          "indexed": true,
          "internalType": "address",
          "name": "newOwner",
          "type": "address"
        }
      ],
      "name": "OwnershipTransferred",
      "type": "event"
    },
    {
      "anonymous": false,
      "inputs": [
        {
          "indexed": true,
          "internalType": "address",
          "name": "operator",
          "type": "address"
        },
        {
          "indexed": true,
          "internalType": "address",
          "name": "from",
          "type": "address"
        },
        {
          "indexed": true,
          "internalType": "address",
          "name": "to",
          "type": "address"
        },
        {
          "indexed": false,
          "internalType": "uint256[]",
          "name": "ids",
          "type": "uint256[]"
        },
        {
          "indexed": false,
          "internalType": "uint256[]",
          "name": "values",
          "type": "uint256[]"
        }
      ],
      "name": "TransferBatch",
      "type": "event"
    },
    {
      "anonymous": false,
      "inputs": [
        {
          "indexed": true,
          "internalType": "address",
          "name": "operator",
          "type": "address"
        },
        {
          "indexed": true,
          "internalType": "address",
          "name": "from",
          "type": "address"
        },
        {
          "indexed": true,
          "internalType": "address",
          "name": "to",
          "type": "address"
        },
        {
          "indexed": false,
          "internalType": "uint256",
          "name": "id",
          "type": "uint256"
        },
        {
          "indexed": false,
          "internalType": "uint256",
          "name": "value",
          "type": "uint256"
        }
      ],
      "name": "TransferSingle",
      "type": "event"
    },
    {
      "anonymous": false,
      "inputs": [
        {
          "indexed": false,
          "internalType": "string",
          "name": "value",
          "type": "string"
        },
        {
          "indexed": true,
          "internalType": "uint256",
          "name": "id",
          "type": "uint256"
        }
      ],
      "name": "URI",
      "type": "event"
    },
    {
      "inputs": [],
      "name": "UWIDContractAddress",
      "outputs": [
        {
          "internalType": "address",
          "name": "",
          "type": "address"
        }
      ],
      "stateMutability": "view",
      "type": "function"
    },
    {
      "inputs": [
        {
          "internalType": "address",
          "name": "",
          "type": "address"
        },
        {
          "internalType": "uint256",
          "name": "",
          "type": "uint256"
        }
      ],
      "name": "accountClasses",
      "outputs": [
        {
          "internalType": "uint256",
          "name": "",
          "type": "uint256"
        }
      ],
      "stateMutability": "view",
      "type": "function"
    },
    {
      "inputs": [
        {
          "internalType": "address",
          "name": "",
          "type": "address"
        }
      ],
      "name": "accountCredits",
      "outputs": [
        {
          "internalType": "uint256",
          "name": "",
          "type": "uint256"
        }
      ],
      "stateMutability": "view",
      "type": "function"
    },
    {
      "inputs": [
        {
          "internalType": "uint256",
          "name": "classId",
          "type": "uint256"
        },
        {
          "internalType": "string",
          "name": "className",
          "type": "string"
        },
        {
          "internalType": "uint256",
          "name": "enrollCapacity",
          "type": "uint256"
        },
        {
          "internalType": "uint256",
          "name": "credits",
          "type": "uint256"
        },
        {
          "internalType": "string",
          "name": "creditType",
          "type": "string"
        },
        {
          "internalType": "uint256[7]",
          "name": "startTimes",
          "type": "uint256[7]"
        },
        {
          "internalType": "uint256[7]",
          "name": "endTimes",
          "type": "uint256[7]"
        }
      ],
      "name": "addClass",
      "outputs": [],
      "stateMutability": "nonpayable",
      "type": "function"
    },
    {
      "inputs": [
        {
          "internalType": "address",
          "name": "account",
          "type": "address"
        },
        {
          "internalType": "uint256",
          "name": "id",
          "type": "uint256"
        }
      ],
      "name": "balanceOf",
      "outputs": [
        {
          "internalType": "uint256",
          "name": "",
          "type": "uint256"
        }
      ],
      "stateMutability": "view",
      "type": "function"
    },
    {
      "inputs": [
        {
          "internalType": "address[]",
          "name": "accounts",
          "type": "address[]"
        },
        {
          "internalType": "uint256[]",
          "name": "ids",
          "type": "uint256[]"
        }
      ],
      "name": "balanceOfBatch",
      "outputs": [
        {
          "internalType": "uint256[]",
          "name": "",
          "type": "uint256[]"
        }
      ],
      "stateMutability": "view",
      "type": "function"
    },
    {
      "inputs": [
        {
          "internalType": "address",
          "name": "account",
          "type": "address"
        },
        {
          "internalType": "uint256",
          "name": "classId",
          "type": "uint256"
        }
      ],
      "name": "canEnroll",
      "outputs": [
        {
          "internalType": "bool",
          "name": "",
          "type": "bool"
        }
      ],
      "stateMutability": "view",
      "type": "function"
    },
    {
      "inputs": [
        {
          "internalType": "uint256",
          "name": "num",
          "type": "uint256"
        }
      ],
      "name": "changeMaxAllowedCredits",
      "outputs": [],
      "stateMutability": "nonpayable",
      "type": "function"
    },
    {
      "inputs": [
        {
          "internalType": "uint256",
          "name": "classId",
          "type": "uint256"
        }
      ],
      "name": "classFull",
      "outputs": [
        {
          "internalType": "bool",
          "name": "",
          "type": "bool"
        }
      ],
      "stateMutability": "view",
      "type": "function"
    },
    {
      "inputs": [
        {
          "internalType": "uint256",
          "name": "",
          "type": "uint256"
        }
      ],
      "name": "classes",
      "outputs": [
        {
          "internalType": "uint256",
          "name": "classId",
          "type": "uint256"
        },
        {
          "internalType": "string",
          "name": "className",
          "type": "string"
        },
        {
          "internalType": "uint256",
          "name": "currentlyEnrolled",
          "type": "uint256"
        },
        {
          "internalType": "uint256",
          "name": "enrollCapacity",
          "type": "uint256"
        },
        {
          "internalType": "uint256",
          "name": "credits",
          "type": "uint256"
        },
        {
          "internalType": "string",
          "name": "creditType",
          "type": "string"
        }
      ],
      "stateMutability": "view",
      "type": "function"
    },
    {
      "inputs": [
        {
          "internalType": "uint256",
          "name": "classId",
          "type": "uint256"
        }
      ],
      "name": "closeClass",
      "outputs": [],
      "stateMutability": "nonpayable",
      "type": "function"
    },
    {
      "inputs": [
        {
          "internalType": "uint256",
          "name": "classId",
          "type": "uint256"
        }
      ],
      "name": "dropClass",
      "outputs": [],
      "stateMutability": "nonpayable",
      "type": "function"
    },
    {
      "inputs": [
        {
          "internalType": "address",
          "name": "account",
          "type": "address"
        },
        {
          "internalType": "uint256",
          "name": "classId",
          "type": "uint256"
        }
      ],
      "name": "exceedsMaxCredit",
      "outputs": [
        {
          "internalType": "bool",
          "name": "",
          "type": "bool"
        }
      ],
      "stateMutability": "view",
      "type": "function"
    },
    {
      "inputs": [
        {
          "internalType": "address",
          "name": "account",
          "type": "address"
        },
        {
          "internalType": "uint256",
          "name": "classId",
          "type": "uint256"
        }
      ],
      "name": "hasTimeConflict",
      "outputs": [
        {
          "internalType": "bool",
          "name": "",
          "type": "bool"
        }
      ],
      "stateMutability": "view",
      "type": "function"
    },
    {
      "inputs": [
        {
          "internalType": "address",
          "name": "account",
          "type": "address"
        },
        {
          "internalType": "address",
          "name": "operator",
          "type": "address"
        }
      ],
      "name": "isApprovedForAll",
      "outputs": [
        {
          "internalType": "bool",
          "name": "",
          "type": "bool"
        }
      ],
      "stateMutability": "view",
      "type": "function"
    },
    {
      "inputs": [
        {
          "internalType": "address",
          "name": "account",
          "type": "address"
        }
      ],
      "name": "isRegistrationPeriod",
      "outputs": [
        {
          "internalType": "bool",
          "name": "",
          "type": "bool"
        }
      ],
      "stateMutability": "view",
      "type": "function"
    },
    {
      "inputs": [
        {
          "internalType": "address",
          "name": "to",
          "type": "address"
        }
      ],
      "name": "isUWAccount",
      "outputs": [
        {
          "internalType": "bool",
          "name": "",
          "type": "bool"
        }
      ],
      "stateMutability": "view",
      "type": "function"
    },
    {
      "inputs": [
        {
          "internalType": "address",
          "name": "account",
          "type": "address"
        },
        {
          "internalType": "uint256",
          "name": "classId",
          "type": "uint256"
        }
      ],
      "name": "majorRestriction",
      "outputs": [
        {
          "internalType": "bool",
          "name": "",
          "type": "bool"
        }
      ],
      "stateMutability": "view",
      "type": "function"
    },
    {
      "inputs": [],
      "name": "maxAllowedCredits",
      "outputs": [
        {
          "internalType": "uint256",
          "name": "",
          "type": "uint256"
        }
      ],
      "stateMutability": "view",
      "type": "function"
    },
    {
      "inputs": [],
      "name": "owner",
      "outputs": [
        {
          "internalType": "address",
          "name": "",
          "type": "address"
        }
      ],
      "stateMutability": "view",
      "type": "function"
    },
    {
      "inputs": [],
      "name": "quarterName",
      "outputs": [
        {
          "internalType": "string",
          "name": "",
          "type": "string"
        }
      ],
      "stateMutability": "view",
      "type": "function"
    },
    {
      "inputs": [
        {
          "internalType": "uint256",
          "name": "classId",
          "type": "uint256"
        }
      ],
      "name": "registerClass",
      "outputs": [],
      "stateMutability": "nonpayable",
      "type": "function"
    },
    {
      "inputs": [
        {
          "internalType": "uint256[]",
          "name": "classIds",
          "type": "uint256[]"
        }
      ],
      "name": "registerMultipleClasses",
      "outputs": [],
      "stateMutability": "nonpayable",
      "type": "function"
    },
    {
      "inputs": [
        {
          "internalType": "address",
          "name": "account",
          "type": "address"
        },
        {
          "internalType": "uint256",
          "name": "classId",
          "type": "uint256"
        }
      ],
      "name": "registered",
      "outputs": [
        {
          "internalType": "bool",
          "name": "",
          "type": "bool"
        }
      ],
      "stateMutability": "view",
      "type": "function"
    },
    {
      "inputs": [
        {
          "internalType": "uint256",
          "name": "",
          "type": "uint256"
        }
      ],
      "name": "registrationPeriod",
      "outputs": [
        {
          "internalType": "uint256",
          "name": "",
          "type": "uint256"
        }
      ],
      "stateMutability": "view",
      "type": "function"
    },
    {
      "inputs": [
        {
          "internalType": "uint256",
          "name": "classId",
          "type": "uint256"
        },
        {
          "internalType": "address",
          "name": "majorAddress",
          "type": "address"
        }
      ],
      "name": "removeMajorRestriction",
      "outputs": [],
      "stateMutability": "nonpayable",
      "type": "function"
    },
    {
      "inputs": [],
      "name": "renounceOwnership",
      "outputs": [],
      "stateMutability": "nonpayable",
      "type": "function"
    },
    {
      "inputs": [
        {
          "internalType": "address",
          "name": "from",
          "type": "address"
        },
        {
          "internalType": "address",
          "name": "to",
          "type": "address"
        },
        {
          "internalType": "uint256[]",
          "name": "ids",
          "type": "uint256[]"
        },
        {
          "internalType": "uint256[]",
          "name": "amounts",
          "type": "uint256[]"
        },
        {
          "internalType": "bytes",
          "name": "data",
          "type": "bytes"
        }
      ],
      "name": "safeBatchTransferFrom",
      "outputs": [],
      "stateMutability": "nonpayable",
      "type": "function"
    },
    {
      "inputs": [
        {
          "internalType": "address",
          "name": "from",
          "type": "address"
        },
        {
          "internalType": "address",
          "name": "to",
          "type": "address"
        },
        {
          "internalType": "uint256",
          "name": "id",
          "type": "uint256"
        },
        {
          "internalType": "uint256",
          "name": "amount",
          "type": "uint256"
        },
        {
          "internalType": "bytes",
          "name": "data",
          "type": "bytes"
        }
      ],
      "name": "safeTransferFrom",
      "outputs": [],
      "stateMutability": "nonpayable",
      "type": "function"
    },
    {
      "inputs": [
        {
          "internalType": "address",
          "name": "operator",
          "type": "address"
        },
        {
          "internalType": "bool",
          "name": "approved",
          "type": "bool"
        }
      ],
      "name": "setApprovalForAll",
      "outputs": [],
      "stateMutability": "nonpayable",
      "type": "function"
    },
    {
      "inputs": [
        {
          "internalType": "uint256",
          "name": "classId",
          "type": "uint256"
        },
        {
          "internalType": "address",
          "name": "majorAddress",
          "type": "address"
        }
      ],
      "name": "setMajorRestriction",
      "outputs": [],
      "stateMutability": "nonpayable",
      "type": "function"
    },
    {
      "inputs": [
        {
          "internalType": "uint256",
          "name": "period1",
          "type": "uint256"
        },
        {
          "internalType": "uint256",
          "name": "period2",
          "type": "uint256"
        },
        {
          "internalType": "uint256",
          "name": "period3",
          "type": "uint256"
        }
      ],
      "name": "setRegistrationPeriod",
      "outputs": [],
      "stateMutability": "nonpayable",
      "type": "function"
    },
    {
      "inputs": [
        {
          "internalType": "bytes4",
          "name": "interfaceId",
          "type": "bytes4"
        }
      ],
      "name": "supportsInterface",
      "outputs": [
        {
          "internalType": "bool",
          "name": "",
          "type": "bool"
        }
      ],
      "stateMutability": "view",
      "type": "function"
    },
    {
      "inputs": [
        {
          "internalType": "address",
          "name": "newOwner",
          "type": "address"
        }
      ],
      "name": "transferOwnership",
      "outputs": [],
      "stateMutability": "nonpayable",
      "type": "function"
    },
    {
      "inputs": [
        {
          "internalType": "string",
          "name": "baseURI",
          "type": "string"
        }
      ],
      "name": "updateBaseURI",
      "outputs": [],
      "stateMutability": "nonpayable",
      "type": "function"
    },
    {
      "inputs": [
        {
          "internalType": "uint256",
          "name": "tokenId",
          "type": "uint256"
        },
        {
          "internalType": "string",
          "name": "tokenURI",
          "type": "string"
        }
      ],
      "name": "updateClassURI",
      "outputs": [],
      "stateMutability": "nonpayable",
      "type": "function"
    },
    {
      "inputs": [
        {
          "internalType": "uint256",
          "name": "tokenId",
          "type": "uint256"
        }
      ],
      "name": "uri",
      "outputs": [
        {
          "internalType": "string",
          "name": "",
          "type": "string"
        }
      ],
      "stateMutability": "view",
      "type": "function"
    }
  ],
  "transactionHash": "0x79478d307c75a6a5b4d4f1fb01d880fa5680586830d05e09f90515baa802b497",
  "args": [
    "0xA334C78Ce1c3a7DC5623e631b57aa3dCCd0A1616",
    "WIN2023"
  ],
  "numDeployments": 5,
  "solcInputHash": "bb58f55344b2ebebf097deff5fe25ddd",
  "bytecode": "0x60a0604052600060809081526004906200001a9082620001af565b5060146007553480156200002d57600080fd5b50604051620036a1380380620036a183398101604081905262000050916200027b565b6040805160208101909152600081526200006a33620000a8565b6200007581620000f8565b50600680546001600160a01b0319166001600160a01b03841617905560086200009f8282620001af565b50505062000371565b600080546001600160a01b038381166001600160a01b0319831681178455604051919092169283917f8be0079c531659141344cd1fd0a4f28419497f9722a3daafe3b4186f6b6457e09190a35050565b6003620001068282620001af565b5050565b634e487b7160e01b600052604160045260246000fd5b600181811c908216806200013557607f821691505b6020821081036200015657634e487b7160e01b600052602260045260246000fd5b50919050565b601f821115620001aa57600081815260208120601f850160051c81016020861015620001855750805b601f850160051c820191505b81811015620001a65782815560010162000191565b5050505b505050565b81516001600160401b03811115620001cb57620001cb6200010a565b620001e381620001dc845462000120565b846200015c565b602080601f8311600181146200021b5760008415620002025750858301515b600019600386901b1c1916600185901b178555620001a6565b600085815260208120601f198616915b828110156200024c578886015182559484019460019091019084016200022b565b50858210156200026b5787850151600019600388901b60f8161c191681555b5050505050600190811b01905550565b600080604083850312156200028f57600080fd5b82516001600160a01b0381168114620002a757600080fd5b602084810151919350906001600160401b0380821115620002c757600080fd5b818601915086601f830112620002dc57600080fd5b815181811115620002f157620002f16200010a565b604051601f8201601f19908116603f011681019083821181831017156200031c576200031c6200010a565b8160405282815289868487010111156200033557600080fd5b600093505b828410156200035957848401860151818501870152928501926200033a565b60008684830101528096505050505050509250929050565b61332080620003816000396000f3fe608060405234801561001057600080fd5b50600436106102265760003560e01c80638da5cb5b11610130578063d3f6b50f116100b8578063ef1ba8e11161007c578063ef1ba8e11461051d578063f242432a14610530578063f2fde38b14610543578063f703701914610556578063fb2879df1461056957600080fd5b8063d3f6b50f1461049f578063d3fb06a0146104b2578063e3c0293d146104bb578063e985e9c5146104ce578063edc13f641461050a57600080fd5b8063a43b2cbe116100ff578063a43b2cbe14610427578063aec367341461043a578063ba677ca01461044d578063bc5cbfdf14610460578063cf0a757f1461048c57600080fd5b80638da5cb5b146103c95780638f74e7e2146103ee578063931688cb14610401578063a22cb4651461041457600080fd5b80632eb2c2d6116101b35780634e1273f4116101825780634e1273f4146103565780635bf567f314610376578063715018a61461038957806375dffe0f14610391578063817dbe9f146103a457600080fd5b80632eb2c2d6146102fd57806338e7d5d51461031057806348caf4be146103235780634bff67e81461034357600080fd5b80630e89341c116101fa5780630e89341c1461029a578063143d4140146102ba578063195309af146102cf57806326fd482e146102e25780632a818af3146102f557600080fd5b8062fdd58e1461022b57806301c23c971461025157806301ffc9a71461027457806309193aed14610287575b600080fd5b61023e610239366004612679565b61057c565b6040519081526020015b60405180910390f35b61026461025f366004612679565b610617565b6040519015158152602001610248565b6102646102823660046126b9565b610696565b61023e6102953660046126d6565b6106e6565b6102ad6102a83660046126d6565b6106fd565b604051610248919061273f565b6102cd6102c83660046126d6565b610708565b005b6102cd6102dd366004612807565b6107cd565b6102646102f036600461284d565b6107e3565b6102ad61085a565b6102cd61030b3660046128fc565b6108e8565b61023e61031e366004612679565b610934565b61023e61033136600461284d565b600a6020526000908152604090205481565b6102cd6103513660046129a5565b610965565b6103696103643660046129e1565b6109f0565b6040516102489190612adc565b6102cd610384366004612aef565b610b19565b6102cd610b2f565b61026461039f366004612679565b610b43565b6103b76103b23660046126d6565b610b58565b60405161024896959493929190612b1b565b6000546001600160a01b03165b6040516001600160a01b039091168152602001610248565b6102646103fc366004612679565b610c9d565b6102cd61040f366004612b65565b610e68565b6102cd610422366004612b99565b610e79565b6102cd6104353660046126d6565b610e84565b6102cd610448366004612c42565b610ed3565b61026461045b366004612679565b610ff3565b61026461046e3660046126d6565b60009081526009602052604090206003810154600290910154101590565b6102cd61049a366004612ce7565b6110f4565b6102646104ad36600461284d565b611158565b61023e60075481565b6102cd6104c93660046126d6565b61135d565b6102646104dc366004612d13565b6001600160a01b03918216600090815260026020908152604080832093909416825291909152205460ff1690565b610264610518366004612679565b61136a565b6102cd61052b366004612ce7565b6113ab565b6102cd61053e366004612d3d565b611526565b6102cd61055136600461284d565b61156b565b6102cd6105643660046126d6565b6115e1565b6006546103d6906001600160a01b031681565b60006001600160a01b0383166105ec5760405162461bcd60e51b815260206004820152602a60248201527f455243313135353a2061646472657373207a65726f206973206e6f742061207660448201526930b634b21037bbb732b960b11b60648201526084015b60405180910390fd5b5060008181526001602090815260408083206001600160a01b03861684529091529020545b92915050565b6000610623838361136a565b15801561063757506106358383610ff3565b155b8015610659575060008281526009602052604090206003810154600290910154105b801561066c575061066a8383610b43565b155b801561067c575061067c83611158565b801561068f575061068d8383610c9d565b155b9392505050565b60006001600160e01b03198216636cdb3d1360e11b14806106c757506001600160e01b031982166303a24d0760e21b145b8061061157506301ffc9a760e01b6001600160e01b0319831614610611565b600c81600381106106f657600080fd5b0154905081565b606061061182611630565b61071061170f565b60008181526009602081815260408084208481558151808401909252848252938590529190526001909101906107469082612e1b565b50600081815260096020818152604080842060028101859055600381018590556004810185905581518084019092528482529385905291905260059091019061078f9082612e1b565b5060008181526009602052604081206107ad916007909101906125fc565b60008181526009602052604081206107ca9160069091019061260b565b50565b6107d561170f565b6107df8282611769565b5050565b6006546040516370a0823160e01b81526001600160a01b03838116600483015260009216906370a0823190602401602060405180830381865afa15801561082e573d6000803e3d6000fd5b505050506040513d601f19601f820116820180604052508101906108529190612eda565b151592915050565b6008805461086790612da1565b80601f016020809104026020016040519081016040528092919081815260200182805461089390612da1565b80156108e05780601f106108b5576101008083540402835291602001916108e0565b820191906000526020600020905b8154815290600101906020018083116108c357829003601f168201915b505050505081565b6001600160a01b038516331480610904575061090485336104dc565b6109205760405162461bcd60e51b81526004016105e390612ef3565b61092d85858585856117c6565b5050505050565b600b602052816000526040600020818154811061095057600080fd5b90600052602060002001600091509150505481565b3332811461097257600080fd5b61097b816107e3565b6109975760405162461bcd60e51b81526004016105e390612f41565b6000805b83518110156109ea578381815181106109b6576109b6612f78565b602002602001015191506109ca3383610617565b156109d8576109d882610e84565b6109e3600182612fa4565b905061099b565b50505050565b60608151835114610a555760405162461bcd60e51b815260206004820152602960248201527f455243313135353a206163636f756e747320616e6420696473206c656e677468604482015268040dad2e6dac2e8c6d60bb1b60648201526084016105e3565b600083516001600160401b03811115610a7057610a70612752565b604051908082528060200260200182016040528015610a99578160200160208202803683370190505b50905060005b8451811015610b1157610ae4858281518110610abd57610abd612f78565b6020026020010151858381518110610ad757610ad7612f78565b602002602001015161057c565b828281518110610af657610af6612f78565b6020908102919091010152610b0a81612fb7565b9050610a9f565b509392505050565b610b2161170f565b600c92909255600d55600e55565b610b3761170f565b610b4160006119c2565b565b6000610b4f838361057c565b15159392505050565b60096020526000908152604090208054600182018054919291610b7a90612da1565b80601f0160208091040260200160405190810160405280929190818152602001828054610ba690612da1565b8015610bf35780601f10610bc857610100808354040283529160200191610bf3565b820191906000526020600020905b815481529060010190602001808311610bd657829003601f168201915b505050505090806002015490806003015490806004015490806005018054610c1a90612da1565b80601f0160208091040260200160405190810160405280929190818152602001828054610c4690612da1565b8015610c935780601f10610c6857610100808354040283529160200191610c93565b820191906000526020600020905b815481529060010190602001808311610c7657829003601f168201915b5050505050905086565b60008080805b6001600160a01b0386166000908152600b6020526040902054831015610e5c576001600160a01b0386166000908152600b60205260409020805484908110610ced57610ced612f78565b906000526020600020015490508060000315610e4a575b6007821015610e4a57600081815260096020526040902060079081019083908110610d3157610d31612f78565b6002020154600086815260096020526040902060079081019084908110610d5a57610d5a612f78565b60020201541015610dd157600081815260096020526040902060079081019083908110610d8957610d89612f78565b6002020154600086815260096020526040902060079081019084908110610db257610db2612f78565b60020201600101541115610dcc5760019350505050610611565b610e38565b600085815260096020526040902060079081019083908110610df557610df5612f78565b6002020154600082815260096020526040902060079081019084908110610e1e57610e1e612f78565b60020201600101541115610e385760019350505050610611565b610e43600183612fa4565b9150610d04565b610e55600184612fa4565b9250610ca3565b50600095945050505050565b610e7061170f565b6107ca81611a12565b6107df338383611a1e565b33328114610e9157600080fd5b610e9a816107e3565b610eb65760405162461bcd60e51b81526004016105e390612f41565b610ec03383610617565b610ec957600080fd5b6107df3383611afe565b610edb61170f565b60008781526009602052604090205415610ef457600080fd5b6000878152600960205260409020878155600101610f128782612e1b565b5060008781526009602052604090206003810186905560048101859055600501610f3c8482612e1b565b5060005b6007811015610fe957828160078110610f5b57610f5b612f78565b6020020151600960008a81526020019081526020016000206007018260078110610f8757610f87612f78565b6002020155818160078110610f9e57610f9e612f78565b6020020151600960008a81526020019081526020016000206007018260078110610fca57610fca612f78565b6002020160010181905550600181610fe29190612fa4565b9050610f40565b5050505050505050565b600081815260096020526040812060060154810361101357506000610611565b60005b6000838152600960205260409020600601548110156110ea57600083815260096020526040902060060180548290811061105257611052612f78565b6000918252602090912001546040516370a0823160e01b81526001600160a01b038681166004830152909116906370a0823190602401602060405180830381865afa1580156110a5573d6000803e3d6000fd5b505050506040513d601f19601f820116820180604052508101906110c99190612eda565b156110d8576000915050610611565b6110e3600182612fa4565b9050611016565b5060019392505050565b6110fc61170f565b600082815260096020526040812054900361111657600080fd5b600091825260096020908152604083206006018054600181018255908452922090910180546001600160a01b0319166001600160a01b03909216919091179055565b600654604051630861b4bd60e41b81526001600160a01b038381166004830152600092839291169063861b4bd090602401602060405180830381865afa1580156111a6573d6000803e3d6000fd5b505050506040513d601f19601f820116820180604052508101906111ca9190612eda565b6006546040516301b50e1160e11b815260048101839052919250602d916001600160a01b039091169063036a1c2290602401602060405180830381865afa158015611219573d6000803e3d6000fd5b505050506040513d601f19601f8201168201806040525081019061123d9190612eda565b101561125457600c60025b01544210159392505050565b6006546040516301b50e1160e11b815260048101839052605a916001600160a01b03169063036a1c2290602401602060405180830381865afa15801561129e573d6000803e3d6000fd5b505050506040513d601f19601f820116820180604052508101906112c29190612eda565b10156112d157600c6001611248565b6006546040516301b50e1160e11b8152600481018390526087916001600160a01b03169063036a1c2290602401602060405180830381865afa15801561131b573d6000803e3d6000fd5b505050506040513d601f19601f8201168201806040525081019061133f9190612eda565b101561134e57600c6000611248565b50600192915050565b50919050565b61136561170f565b600755565b6007546000828152600960209081526040808320600401546001600160a01b0387168452600a9092528220549192916113a39190612fa4565b119392505050565b6113b361170f565b60008281526009602052604081205490036113cd57600080fd5b60005b60008381526009602052604090206006015481101561152157600083815260096020526040902060060180546001600160a01b03841691908390811061141857611418612f78565b6000918252602090912001546001600160a01b03160361150f576000838152600960205260409020600601805461145190600190612fd0565b8154811061146157611461612f78565b60009182526020808320909101548583526009909152604090912060060180546001600160a01b03909216918390811061149d5761149d612f78565b600091825260208083209190910180546001600160a01b0319166001600160a01b0394909416939093179092558481526009909152604090206006018054806114e8576114e8612fe3565b600082815260209020810160001990810180546001600160a01b0319169055019055505050565b61151a600182612fa4565b90506113d0565b505050565b6001600160a01b038516331480611542575061154285336104dc565b61155e5760405162461bcd60e51b81526004016105e390612ef3565b61092d8585858585611b1a565b61157361170f565b6001600160a01b0381166115d85760405162461bcd60e51b815260206004820152602660248201527f4f776e61626c653a206e6577206f776e657220697320746865207a65726f206160448201526564647265737360d01b60648201526084016105e3565b6107ca816119c2565b333281146115ee57600080fd5b6115f7816107e3565b6116135760405162461bcd60e51b81526004016105e390612f41565b61161d3383610b43565b61162657600080fd5b6107df3383611c64565b60008181526005602052604081208054606092919061164e90612da1565b80601f016020809104026020016040519081016040528092919081815260200182805461167a90612da1565b80156116c75780601f1061169c576101008083540402835291602001916116c7565b820191906000526020600020905b8154815290600101906020018083116116aa57829003601f168201915b5050505050905060008151116116e5576116e083611c70565b61068f565b6004816040516020016116f9929190612ff9565b6040516020818303038152906040529392505050565b6000546001600160a01b03163314610b415760405162461bcd60e51b815260206004820181905260248201527f4f776e61626c653a2063616c6c6572206973206e6f7420746865206f776e657260448201526064016105e3565b60008281526005602052604090206117818282612e1b565b50817f6bb7ff708619ba0610cba295a58592e0451dee2622938c8755667688daf3529b6117ad846106fd565b6040516117ba919061273f565b60405180910390a25050565b81518351146118285760405162461bcd60e51b815260206004820152602860248201527f455243313135353a2069647320616e6420616d6f756e7473206c656e677468206044820152670dad2e6dac2e8c6d60c31b60648201526084016105e3565b6001600160a01b03841661184e5760405162461bcd60e51b81526004016105e390613080565b3361185d818787878787611d04565b60005b845181101561194657600085828151811061187d5761187d612f78565b60200260200101519050600085838151811061189b5761189b612f78565b60209081029190910181015160008481526001835260408082206001600160a01b038e1683529093529190912054909150818110156118ec5760405162461bcd60e51b81526004016105e3906130c5565b60008381526001602090815260408083206001600160a01b038e8116855292528083208585039055908b1682528120805484929061192b908490612fa4565b925050819055505050508061193f90612fb7565b9050611860565b50846001600160a01b0316866001600160a01b0316826001600160a01b03167f4a39dc06d4c0dbc64b70af90fd698a233a518aa5d07e595d983b8c0526c8f7fb878760405161199692919061310f565b60405180910390a46119ac818787878787611d74565b6119ba8187878787876120d2565b505050505050565b600080546001600160a01b038381166001600160a01b0319831681178455604051919092169283917f8be0079c531659141344cd1fd0a4f28419497f9722a3daafe3b4186f6b6457e09190a35050565b60046107df8282612e1b565b816001600160a01b0316836001600160a01b031603611a915760405162461bcd60e51b815260206004820152602960248201527f455243313135353a2073657474696e6720617070726f76616c20737461747573604482015268103337b91039b2b63360b91b60648201526084016105e3565b6001600160a01b03838116600081815260026020908152604080832094871680845294825291829020805460ff191686151590811790915591519182527f17307eab39ab6107e8899845ad3d59bd9653f200f220920489ca2b5937696c31910160405180910390a3505050565b6107df828260016040518060200160405280600081525061222d565b6001600160a01b038416611b405760405162461bcd60e51b81526004016105e390613080565b336000611b4c85612358565b90506000611b5985612358565b9050611b69838989858589611d04565b60008681526001602090815260408083206001600160a01b038c16845290915290205485811015611bac5760405162461bcd60e51b81526004016105e3906130c5565b60008781526001602090815260408083206001600160a01b038d8116855292528083208985039055908a16825281208054889290611beb908490612fa4565b909155505060408051888152602081018890526001600160a01b03808b16928c821692918816917fc3d58168c5ae7397731d063d5bbf3d657854427343f4c083240f7aacaa2d0f62910160405180910390a4611c4b848a8a86868a611d74565b611c59848a8a8a8a8a6123a3565b505050505050505050565b6107df8282600161245e565b606060038054611c7f90612da1565b80601f0160208091040260200160405190810160405280929190818152602001828054611cab90612da1565b8015611cf85780601f10611ccd57610100808354040283529160200191611cf8565b820191906000526020600020905b815481529060010190602001808311611cdb57829003601f168201915b50505050509050919050565b60005b8351811015611d6b576001600160a01b03851615611d5957611d28856107e3565b15611d5957611d5085858381518110611d4357611d43612f78565b6020026020010151610617565b611d5957600080fd5b611d64600182612fa4565b9050611d07565b50505050505050565b6000805b8451821015610fe9576001600160a01b03861615611dfa5760096000868481518110611da657611da6612f78565b6020026020010151815260200190815260200160002060040154600a6000886001600160a01b03166001600160a01b031681526020019081526020016000206000828254611df49190612fa4565b90915550505b6001600160a01b03871615611e735760096000868481518110611e1f57611e1f612f78565b6020026020010151815260200190815260200160002060040154600a6000896001600160a01b03166001600160a01b031681526020019081526020016000206000828254611e6d9190612fd0565b90915550505b6001600160a01b0386166000908152600b602052604090208551869084908110611e9f57611e9f612f78565b602090810291909101810151825460018101845560009384529190922001555b6001600160a01b0387166000908152600b602052604090205481101561201857848281518110611ef157611ef1612f78565b6020026020010151600b6000896001600160a01b03166001600160a01b031681526020019081526020016000208281548110611f2f57611f2f612f78565b906000526020600020015403612006576001600160a01b0387166000908152600b602052604090208054611f6590600190612fd0565b81548110611f7557611f75612f78565b9060005260206000200154600b6000896001600160a01b03166001600160a01b031681526020019081526020016000208281548110611fb657611fb6612f78565b60009182526020808320909101929092556001600160a01b0389168152600b90915260409020805480611feb57611feb612fe3565b60019003818190600052602060002001600090559055612018565b612011600182612fa4565b9050611ebf565b6001600160a01b03871661206c5760016009600087858151811061203e5761203e612f78565b6020026020010151815260200190815260200160002060020160008282546120669190612fa4565b90915550505b6001600160a01b0386166120c05760016009600087858151811061209257612092612f78565b6020026020010151815260200190815260200160002060020160008282546120ba9190612fd0565b90915550505b6120cb600183612fa4565b9150611d78565b6001600160a01b0384163b156119ba5760405163bc197c8160e01b81526001600160a01b0385169063bc197c8190612116908990899088908890889060040161313d565b6020604051808303816000875af1925050508015612151575060408051601f3d908101601f1916820190925261214e9181019061319b565b60015b6121fd5761215d6131b8565b806308c379a00361219657506121716131d4565b8061217c5750612198565b8060405162461bcd60e51b81526004016105e3919061273f565b505b60405162461bcd60e51b815260206004820152603460248201527f455243313135353a207472616e7366657220746f206e6f6e2d455243313135356044820152732932b1b2b4bb32b91034b6b83632b6b2b73a32b960611b60648201526084016105e3565b6001600160e01b0319811663bc197c8160e01b14611d6b5760405162461bcd60e51b81526004016105e39061325d565b6001600160a01b03841661228d5760405162461bcd60e51b815260206004820152602160248201527f455243313135353a206d696e7420746f20746865207a65726f206164647265736044820152607360f81b60648201526084016105e3565b33600061229985612358565b905060006122a685612358565b90506122b783600089858589611d04565b60008681526001602090815260408083206001600160a01b038b168452909152812080548792906122e9908490612fa4565b909155505060408051878152602081018790526001600160a01b03808a1692600092918716917fc3d58168c5ae7397731d063d5bbf3d657854427343f4c083240f7aacaa2d0f62910160405180910390a461234983600089858589611d74565b611d6b836000898989896123a3565b6040805160018082528183019092526060916000919060208083019080368337019050509050828160008151811061239257612392612f78565b602090810291909101015292915050565b6001600160a01b0384163b156119ba5760405163f23a6e6160e01b81526001600160a01b0385169063f23a6e61906123e790899089908890889088906004016132a5565b6020604051808303816000875af1925050508015612422575060408051601f3d908101601f1916820190925261241f9181019061319b565b60015b61242e5761215d6131b8565b6001600160e01b0319811663f23a6e6160e01b14611d6b5760405162461bcd60e51b81526004016105e39061325d565b6001600160a01b0383166124c05760405162461bcd60e51b815260206004820152602360248201527f455243313135353a206275726e2066726f6d20746865207a65726f206164647260448201526265737360e81b60648201526084016105e3565b3360006124cc84612358565b905060006124d984612358565b90506124f983876000858560405180602001604052806000815250611d04565b60008581526001602090815260408083206001600160a01b038a168452909152902054848110156125785760405162461bcd60e51b8152602060048201526024808201527f455243313135353a206275726e20616d6f756e7420657863656564732062616c604482015263616e636560e01b60648201526084016105e3565b60008681526001602090815260408083206001600160a01b038b81168086529184528285208a8703905582518b81529384018a90529092908816917fc3d58168c5ae7397731d063d5bbf3d657854427343f4c083240f7aacaa2d0f62910160405180910390a4611d6b84886000868660405180602001604052806000815250611d74565b506107ca90600e810190612629565b50805460008255906000526020600020908101906107ca9190612648565b5b80821115612644576000808255600182015560020161262a565b5090565b5b808211156126445760008155600101612649565b80356001600160a01b038116811461267457600080fd5b919050565b6000806040838503121561268c57600080fd5b6126958361265d565b946020939093013593505050565b6001600160e01b0319811681146107ca57600080fd5b6000602082840312156126cb57600080fd5b813561068f816126a3565b6000602082840312156126e857600080fd5b5035919050565b60005b8381101561270a5781810151838201526020016126f2565b50506000910152565b6000815180845261272b8160208601602086016126ef565b601f01601f19169290920160200192915050565b60208152600061068f6020830184612713565b634e487b7160e01b600052604160045260246000fd5b601f8201601f191681016001600160401b038111828210171561278d5761278d612752565b6040525050565b600082601f8301126127a557600080fd5b81356001600160401b038111156127be576127be612752565b6040516127d5601f8301601f191660200182612768565b8181528460208386010111156127ea57600080fd5b816020850160208301376000918101602001919091529392505050565b6000806040838503121561281a57600080fd5b8235915060208301356001600160401b0381111561283757600080fd5b61284385828601612794565b9150509250929050565b60006020828403121561285f57600080fd5b61068f8261265d565b60006001600160401b0382111561288157612881612752565b5060051b60200190565b600082601f83011261289c57600080fd5b813560206128a982612868565b6040516128b68282612768565b83815260059390931b85018201928281019150868411156128d657600080fd5b8286015b848110156128f157803583529183019183016128da565b509695505050505050565b600080600080600060a0868803121561291457600080fd5b61291d8661265d565b945061292b6020870161265d565b935060408601356001600160401b038082111561294757600080fd5b61295389838a0161288b565b9450606088013591508082111561296957600080fd5b61297589838a0161288b565b9350608088013591508082111561298b57600080fd5b5061299888828901612794565b9150509295509295909350565b6000602082840312156129b757600080fd5b81356001600160401b038111156129cd57600080fd5b6129d98482850161288b565b949350505050565b600080604083850312156129f457600080fd5b82356001600160401b0380821115612a0b57600080fd5b818501915085601f830112612a1f57600080fd5b81356020612a2c82612868565b604051612a398282612768565b83815260059390931b8501820192828101915089841115612a5957600080fd5b948201945b83861015612a7e57612a6f8661265d565b82529482019490820190612a5e565b96505086013592505080821115612a9457600080fd5b506128438582860161288b565b600081518084526020808501945080840160005b83811015612ad157815187529582019590820190600101612ab5565b509495945050505050565b60208152600061068f6020830184612aa1565b600080600060608486031215612b0457600080fd5b505081359360208301359350604090920135919050565b86815260c060208201526000612b3460c0830188612713565b86604084015285606084015284608084015282810360a0840152612b588185612713565b9998505050505050505050565b600060208284031215612b7757600080fd5b81356001600160401b03811115612b8d57600080fd5b6129d984828501612794565b60008060408385031215612bac57600080fd5b612bb58361265d565b915060208301358015158114612bca57600080fd5b809150509250929050565b600082601f830112612be657600080fd5b60405160e081018181106001600160401b0382111715612c0857612c08612752565b6040528060e0840185811115612c1d57600080fd5b845b81811015612c37578035835260209283019201612c1f565b509195945050505050565b6000806000806000806000610260888a031215612c5e57600080fd5b8735965060208801356001600160401b0380821115612c7c57600080fd5b612c888b838c01612794565b975060408a0135965060608a0135955060808a0135915080821115612cac57600080fd5b50612cb98a828b01612794565b935050612cc98960a08a01612bd5565b9150612cd9896101808a01612bd5565b905092959891949750929550565b60008060408385031215612cfa57600080fd5b82359150612d0a6020840161265d565b90509250929050565b60008060408385031215612d2657600080fd5b612d2f8361265d565b9150612d0a6020840161265d565b600080600080600060a08688031215612d5557600080fd5b612d5e8661265d565b9450612d6c6020870161265d565b9350604086013592506060860135915060808601356001600160401b03811115612d9557600080fd5b61299888828901612794565b600181811c90821680612db557607f821691505b60208210810361135757634e487b7160e01b600052602260045260246000fd5b601f82111561152157600081815260208120601f850160051c81016020861015612dfc5750805b601f850160051c820191505b818110156119ba57828155600101612e08565b81516001600160401b03811115612e3457612e34612752565b612e4881612e428454612da1565b84612dd5565b602080601f831160018114612e7d5760008415612e655750858301515b600019600386901b1c1916600185901b1785556119ba565b600085815260208120601f198616915b82811015612eac57888601518255948401946001909101908401612e8d565b5085821015612eca5787850151600019600388901b60f8161c191681555b5050505050600190811b01905550565b600060208284031215612eec57600080fd5b5051919050565b6020808252602e908201527f455243313135353a2063616c6c6572206973206e6f7420746f6b656e206f776e60408201526d195c881bdc88185c1c1c9bdd995960921b606082015260800190565b60208082526017908201527f446f6573206e6f74206861766520616e2055572049442e000000000000000000604082015260600190565b634e487b7160e01b600052603260045260246000fd5b634e487b7160e01b600052601160045260246000fd5b8082018082111561061157610611612f8e565b600060018201612fc957612fc9612f8e565b5060010190565b8181038181111561061157610611612f8e565b634e487b7160e01b600052603160045260246000fd5b600080845461300781612da1565b6001828116801561301f576001811461303457613063565b60ff1984168752821515830287019450613063565b8860005260208060002060005b8581101561305a5781548a820152908401908201613041565b50505082870194505b5050505083516130778183602088016126ef565b01949350505050565b60208082526025908201527f455243313135353a207472616e7366657220746f20746865207a65726f206164604082015264647265737360d81b606082015260800190565b6020808252602a908201527f455243313135353a20696e73756666696369656e742062616c616e636520666f60408201526939103a3930b739b332b960b11b606082015260800190565b6040815260006131226040830185612aa1565b82810360208401526131348185612aa1565b95945050505050565b6001600160a01b0386811682528516602082015260a06040820181905260009061316990830186612aa1565b828103606084015261317b8186612aa1565b9050828103608084015261318f8185612713565b98975050505050505050565b6000602082840312156131ad57600080fd5b815161068f816126a3565b600060033d11156131d15760046000803e5060005160e01c5b90565b600060443d10156131e25790565b6040516003193d81016004833e81513d6001600160401b03816024840111818411171561321157505050505090565b82850191508151818111156132295750505050505090565b843d87010160208285010111156132435750505050505090565b61325260208286010187612768565b509095945050505050565b60208082526028908201527f455243313135353a204552433131353552656365697665722072656a656374656040820152676420746f6b656e7360c01b606082015260800190565b6001600160a01b03868116825285166020820152604081018490526060810183905260a0608082018190526000906132df90830184612713565b97965050505050505056fea26469706673582212207227f04c2ca515fc5cfad45c35500e4c6c7456cb5cf76dcd02ce66c7a731304a64736f6c63430008110033",
  "devdoc": {
    "kind": "dev",
    "methods": {
      "balanceOf(address,uint256)": {
        "details": "See {IERC1155-balanceOf}. Requirements: - `account` cannot be the zero address."
      },
      "balanceOfBatch(address[],uint256[])": {
        "details": "See {IERC1155-balanceOfBatch}. Requirements: - `accounts` and `ids` must have the same length."
      },
      "isApprovedForAll(address,address)": {
        "details": "See {IERC1155-isApprovedForAll}."
      },
      "owner()": {
        "details": "Returns the address of the current owner."
      },
      "renounceOwnership()": {
        "details": "Leaves the contract without owner. It will not be possible to call `onlyOwner` functions anymore. Can only be called by the current owner. NOTE: Renouncing ownership will leave the contract without an owner, thereby removing any functionality that is only available to the owner."
      },
      "safeBatchTransferFrom(address,address,uint256[],uint256[],bytes)": {
        "details": "See {IERC1155-safeBatchTransferFrom}."
      },
      "safeTransferFrom(address,address,uint256,uint256,bytes)": {
        "details": "See {IERC1155-safeTransferFrom}."
      },
      "setApprovalForAll(address,bool)": {
        "details": "See {IERC1155-setApprovalForAll}."
      },
      "supportsInterface(bytes4)": {
        "details": "See {IERC165-supportsInterface}."
      },
      "transferOwnership(address)": {
        "details": "Transfers ownership of the contract to a new account (`newOwner`). Can only be called by the current owner."
      }
    },
    "version": 1
  },
  "userdoc": {
    "kind": "user",
    "methods": {},
    "version": 1
  },
  "storageLayout": {
    "storage": [
      {
        "astId": 7,
        "contract": "contracts/Registration.sol:Registration",
        "label": "_owner",
        "offset": 0,
        "slot": "0",
        "type": "t_address"
      },
      {
        "astId": 138,
        "contract": "contracts/Registration.sol:Registration",
        "label": "_balances",
        "offset": 0,
        "slot": "1",
        "type": "t_mapping(t_uint256,t_mapping(t_address,t_uint256))"
      },
      {
        "astId": 144,
        "contract": "contracts/Registration.sol:Registration",
        "label": "_operatorApprovals",
        "offset": 0,
        "slot": "2",
        "type": "t_mapping(t_address,t_mapping(t_address,t_bool))"
      },
      {
        "astId": 146,
        "contract": "contracts/Registration.sol:Registration",
        "label": "_uri",
        "offset": 0,
        "slot": "3",
        "type": "t_string_storage"
      },
      {
        "astId": 1511,
        "contract": "contracts/Registration.sol:Registration",
        "label": "_baseURI",
        "offset": 0,
        "slot": "4",
        "type": "t_string_storage"
      },
      {
        "astId": 1515,
        "contract": "contracts/Registration.sol:Registration",
        "label": "_tokenURIs",
        "offset": 0,
        "slot": "5",
        "type": "t_mapping(t_uint256,t_string_storage)"
      },
      {
        "astId": 4536,
        "contract": "contracts/Registration.sol:Registration",
        "label": "UWIDContractAddress",
        "offset": 0,
        "slot": "6",
        "type": "t_address"
      },
      {
        "astId": 4539,
        "contract": "contracts/Registration.sol:Registration",
        "label": "maxAllowedCredits",
        "offset": 0,
        "slot": "7",
        "type": "t_uint256"
      },
      {
        "astId": 4541,
        "contract": "contracts/Registration.sol:Registration",
        "label": "quarterName",
        "offset": 0,
        "slot": "8",
        "type": "t_string_storage"
      },
      {
        "astId": 4572,
        "contract": "contracts/Registration.sol:Registration",
        "label": "classes",
        "offset": 0,
        "slot": "9",
        "type": "t_mapping(t_uint256,t_struct(Class)4567_storage)"
      },
      {
        "astId": 4576,
        "contract": "contracts/Registration.sol:Registration",
        "label": "accountCredits",
        "offset": 0,
        "slot": "10",
        "type": "t_mapping(t_address,t_uint256)"
      },
      {
        "astId": 4581,
        "contract": "contracts/Registration.sol:Registration",
        "label": "accountClasses",
        "offset": 0,
        "slot": "11",
        "type": "t_mapping(t_address,t_array(t_uint256)dyn_storage)"
      },
      {
        "astId": 4585,
        "contract": "contracts/Registration.sol:Registration",
        "label": "registrationPeriod",
        "offset": 0,
        "slot": "12",
        "type": "t_array(t_uint256)3_storage"
      }
    ],
    "types": {
      "t_address": {
        "encoding": "inplace",
        "label": "address",
        "numberOfBytes": "20"
      },
      "t_array(t_address)dyn_storage": {
        "base": "t_address",
        "encoding": "dynamic_array",
        "label": "address[]",
        "numberOfBytes": "32"
      },
      "t_array(t_struct(ClassTime)4546_storage)7_storage": {
        "base": "t_struct(ClassTime)4546_storage",
        "encoding": "inplace",
        "label": "struct Registration.ClassTime[7]",
        "numberOfBytes": "448"
      },
      "t_array(t_uint256)3_storage": {
        "base": "t_uint256",
        "encoding": "inplace",
        "label": "uint256[3]",
        "numberOfBytes": "96"
      },
      "t_array(t_uint256)dyn_storage": {
        "base": "t_uint256",
        "encoding": "dynamic_array",
        "label": "uint256[]",
        "numberOfBytes": "32"
      },
      "t_bool": {
        "encoding": "inplace",
        "label": "bool",
        "numberOfBytes": "1"
      },
      "t_mapping(t_address,t_array(t_uint256)dyn_storage)": {
        "encoding": "mapping",
        "key": "t_address",
        "label": "mapping(address => uint256[])",
        "numberOfBytes": "32",
        "value": "t_array(t_uint256)dyn_storage"
      },
      "t_mapping(t_address,t_bool)": {
        "encoding": "mapping",
        "key": "t_address",
        "label": "mapping(address => bool)",
        "numberOfBytes": "32",
        "value": "t_bool"
      },
      "t_mapping(t_address,t_mapping(t_address,t_bool))": {
        "encoding": "mapping",
        "key": "t_address",
        "label": "mapping(address => mapping(address => bool))",
        "numberOfBytes": "32",
        "value": "t_mapping(t_address,t_bool)"
      },
      "t_mapping(t_address,t_uint256)": {
        "encoding": "mapping",
        "key": "t_address",
        "label": "mapping(address => uint256)",
        "numberOfBytes": "32",
        "value": "t_uint256"
      },
      "t_mapping(t_uint256,t_mapping(t_address,t_uint256))": {
        "encoding": "mapping",
        "key": "t_uint256",
        "label": "mapping(uint256 => mapping(address => uint256))",
        "numberOfBytes": "32",
        "value": "t_mapping(t_address,t_uint256)"
      },
      "t_mapping(t_uint256,t_string_storage)": {
        "encoding": "mapping",
        "key": "t_uint256",
        "label": "mapping(uint256 => string)",
        "numberOfBytes": "32",
        "value": "t_string_storage"
      },
      "t_mapping(t_uint256,t_struct(Class)4567_storage)": {
        "encoding": "mapping",
        "key": "t_uint256",
        "label": "mapping(uint256 => struct Registration.Class)",
        "numberOfBytes": "32",
        "value": "t_struct(Class)4567_storage"
      },
      "t_string_storage": {
        "encoding": "bytes",
        "label": "string",
        "numberOfBytes": "32"
      },
      "t_struct(Class)4567_storage": {
        "encoding": "inplace",
        "label": "struct Registration.Class",
        "members": [
          {
            "astId": 4548,
            "contract": "contracts/Registration.sol:Registration",
            "label": "classId",
            "offset": 0,
            "slot": "0",
            "type": "t_uint256"
          },
          {
            "astId": 4550,
            "contract": "contracts/Registration.sol:Registration",
            "label": "className",
            "offset": 0,
            "slot": "1",
            "type": "t_string_storage"
          },
          {
            "astId": 4552,
            "contract": "contracts/Registration.sol:Registration",
            "label": "currentlyEnrolled",
            "offset": 0,
            "slot": "2",
            "type": "t_uint256"
          },
          {
            "astId": 4554,
            "contract": "contracts/Registration.sol:Registration",
            "label": "enrollCapacity",
            "offset": 0,
            "slot": "3",
            "type": "t_uint256"
          },
          {
            "astId": 4556,
            "contract": "contracts/Registration.sol:Registration",
            "label": "credits",
            "offset": 0,
            "slot": "4",
            "type": "t_uint256"
          },
          {
            "astId": 4558,
            "contract": "contracts/Registration.sol:Registration",
            "label": "creditType",
            "offset": 0,
            "slot": "5",
            "type": "t_string_storage"
          },
          {
            "astId": 4561,
            "contract": "contracts/Registration.sol:Registration",
            "label": "classMajorRestrictions",
            "offset": 0,
            "slot": "6",
            "type": "t_array(t_address)dyn_storage"
          },
          {
            "astId": 4566,
            "contract": "contracts/Registration.sol:Registration",
            "label": "classTimes",
            "offset": 0,
            "slot": "7",
            "type": "t_array(t_struct(ClassTime)4546_storage)7_storage"
          }
        ],
        "numberOfBytes": "672"
      },
      "t_struct(ClassTime)4546_storage": {
        "encoding": "inplace",
        "label": "struct Registration.ClassTime",
        "members": [
          {
            "astId": 4543,
            "contract": "contracts/Registration.sol:Registration",
            "label": "startTime",
            "offset": 0,
            "slot": "0",
            "type": "t_uint256"
          },
          {
            "astId": 4545,
            "contract": "contracts/Registration.sol:Registration",
            "label": "endTime",
            "offset": 0,
            "slot": "1",
            "type": "t_uint256"
          }
        ],
        "numberOfBytes": "64"
      },
      "t_uint256": {
        "encoding": "inplace",
        "label": "uint256",
        "numberOfBytes": "32"
      }
    }
  }
}