{
  "address": "0x79319BCf5C0C1d54FF958006D79FfBB2A8032CF9",
  "abi": [
    {
      "inputs": [
        {
          "internalType": "address",
          "name": "_UWIDContractAddress",
          "type": "address"
        },
        {
          "internalType": "string",
          "name": "_quarterName",
          "type": "string"
        }
      ],
      "stateMutability": "nonpayable",
      "type": "constructor"
    },
    {
      "anonymous": false,
      "inputs": [
        {
          "indexed": true,
          "internalType": "address",
          "name": "account",
          "type": "address"
        },
        {
          "indexed": true,
          "internalType": "address",
          "name": "operator",
          "type": "address"
        },
        {
          "indexed": false,
          "internalType": "bool",
          "name": "approved",
          "type": "bool"
        }
      ],
      "name": "ApprovalForAll",
      "type": "event"
    },
    {
      "anonymous": false,
      "inputs": [
        {
          "indexed": true,
          "internalType": "address",
          "name": "previousOwner",
          "type": "address"
        },
        {
          "indexed": true,
          "internalType": "address",
          "name": "newOwner",
          "type": "address"
        }
      ],
      "name": "OwnershipTransferred",
      "type": "event"
    },
    {
      "anonymous": false,
      "inputs": [
        {
          "indexed": true,
          "internalType": "address",
          "name": "operator",
          "type": "address"
        },
        {
          "indexed": true,
          "internalType": "address",
          "name": "from",
          "type": "address"
        },
        {
          "indexed": true,
          "internalType": "address",
          "name": "to",
          "type": "address"
        },
        {
          "indexed": false,
          "internalType": "uint256[]",
          "name": "ids",
          "type": "uint256[]"
        },
        {
          "indexed": false,
          "internalType": "uint256[]",
          "name": "values",
          "type": "uint256[]"
        }
      ],
      "name": "TransferBatch",
      "type": "event"
    },
    {
      "anonymous": false,
      "inputs": [
        {
          "indexed": true,
          "internalType": "address",
          "name": "operator",
          "type": "address"
        },
        {
          "indexed": true,
          "internalType": "address",
          "name": "from",
          "type": "address"
        },
        {
          "indexed": true,
          "internalType": "address",
          "name": "to",
          "type": "address"
        },
        {
          "indexed": false,
          "internalType": "uint256",
          "name": "id",
          "type": "uint256"
        },
        {
          "indexed": false,
          "internalType": "uint256",
          "name": "value",
          "type": "uint256"
        }
      ],
      "name": "TransferSingle",
      "type": "event"
    },
    {
      "anonymous": false,
      "inputs": [
        {
          "indexed": false,
          "internalType": "string",
          "name": "value",
          "type": "string"
        },
        {
          "indexed": true,
          "internalType": "uint256",
          "name": "id",
          "type": "uint256"
        }
      ],
      "name": "URI",
      "type": "event"
    },
    {
      "inputs": [],
      "name": "UWIDContractAddress",
      "outputs": [
        {
          "internalType": "address",
          "name": "",
          "type": "address"
        }
      ],
      "stateMutability": "view",
      "type": "function"
    },
    {
      "inputs": [
        {
          "internalType": "address",
          "name": "",
          "type": "address"
        },
        {
          "internalType": "uint256",
          "name": "",
          "type": "uint256"
        }
      ],
      "name": "accountClasses",
      "outputs": [
        {
          "internalType": "uint256",
          "name": "",
          "type": "uint256"
        }
      ],
      "stateMutability": "view",
      "type": "function"
    },
    {
      "inputs": [
        {
          "internalType": "address",
          "name": "",
          "type": "address"
        }
      ],
      "name": "accountCredits",
      "outputs": [
        {
          "internalType": "uint256",
          "name": "",
          "type": "uint256"
        }
      ],
      "stateMutability": "view",
      "type": "function"
    },
    {
      "inputs": [
        {
          "internalType": "uint256",
          "name": "classId",
          "type": "uint256"
        },
        {
          "internalType": "string",
          "name": "className",
          "type": "string"
        },
        {
          "internalType": "uint256",
          "name": "enrollCapacity",
          "type": "uint256"
        },
        {
          "internalType": "uint256",
          "name": "credits",
          "type": "uint256"
        },
        {
          "internalType": "string",
          "name": "creditType",
          "type": "string"
        },
        {
          "internalType": "uint256[7]",
          "name": "startTimes",
          "type": "uint256[7]"
        },
        {
          "internalType": "uint256[7]",
          "name": "endTimes",
          "type": "uint256[7]"
        }
      ],
      "name": "addClass",
      "outputs": [],
      "stateMutability": "nonpayable",
      "type": "function"
    },
    {
      "inputs": [
        {
          "internalType": "address",
          "name": "account",
          "type": "address"
        },
        {
          "internalType": "uint256",
          "name": "id",
          "type": "uint256"
        }
      ],
      "name": "balanceOf",
      "outputs": [
        {
          "internalType": "uint256",
          "name": "",
          "type": "uint256"
        }
      ],
      "stateMutability": "view",
      "type": "function"
    },
    {
      "inputs": [
        {
          "internalType": "address[]",
          "name": "accounts",
          "type": "address[]"
        },
        {
          "internalType": "uint256[]",
          "name": "ids",
          "type": "uint256[]"
        }
      ],
      "name": "balanceOfBatch",
      "outputs": [
        {
          "internalType": "uint256[]",
          "name": "",
          "type": "uint256[]"
        }
      ],
      "stateMutability": "view",
      "type": "function"
    },
    {
      "inputs": [
        {
          "internalType": "address",
          "name": "account",
          "type": "address"
        },
        {
          "internalType": "uint256",
          "name": "classId",
          "type": "uint256"
        }
      ],
      "name": "canEnroll",
      "outputs": [
        {
          "internalType": "bool",
          "name": "",
          "type": "bool"
        }
      ],
      "stateMutability": "view",
      "type": "function"
    },
    {
      "inputs": [
        {
          "internalType": "uint256",
          "name": "num",
          "type": "uint256"
        }
      ],
      "name": "changeMaxAllowedCredits",
      "outputs": [],
      "stateMutability": "nonpayable",
      "type": "function"
    },
    {
      "inputs": [
        {
          "internalType": "uint256",
          "name": "classId",
          "type": "uint256"
        }
      ],
      "name": "classFull",
      "outputs": [
        {
          "internalType": "bool",
          "name": "",
          "type": "bool"
        }
      ],
      "stateMutability": "view",
      "type": "function"
    },
    {
      "inputs": [
        {
          "internalType": "uint256",
          "name": "",
          "type": "uint256"
        }
      ],
      "name": "classes",
      "outputs": [
        {
          "internalType": "uint256",
          "name": "classId",
          "type": "uint256"
        },
        {
          "internalType": "string",
          "name": "className",
          "type": "string"
        },
        {
          "internalType": "uint256",
          "name": "enrollCapacity",
          "type": "uint256"
        },
        {
          "internalType": "uint256",
          "name": "credits",
          "type": "uint256"
        },
        {
          "internalType": "string",
          "name": "creditType",
          "type": "string"
        }
      ],
      "stateMutability": "view",
      "type": "function"
    },
    {
      "inputs": [
        {
          "internalType": "uint256",
          "name": "classId",
          "type": "uint256"
        }
      ],
      "name": "closeClass",
      "outputs": [],
      "stateMutability": "nonpayable",
      "type": "function"
    },
    {
      "inputs": [
        {
          "internalType": "uint256",
          "name": "classId",
          "type": "uint256"
        }
      ],
      "name": "dropClass",
      "outputs": [],
      "stateMutability": "nonpayable",
      "type": "function"
    },
    {
      "inputs": [
        {
          "internalType": "address",
          "name": "account",
          "type": "address"
        },
        {
          "internalType": "uint256",
          "name": "classId",
          "type": "uint256"
        }
      ],
      "name": "exceedsMaxCredit",
      "outputs": [
        {
          "internalType": "bool",
          "name": "",
          "type": "bool"
        }
      ],
      "stateMutability": "view",
      "type": "function"
    },
    {
      "inputs": [
        {
          "internalType": "address",
          "name": "account",
          "type": "address"
        },
        {
          "internalType": "address",
          "name": "operator",
          "type": "address"
        }
      ],
      "name": "isApprovedForAll",
      "outputs": [
        {
          "internalType": "bool",
          "name": "",
          "type": "bool"
        }
      ],
      "stateMutability": "view",
      "type": "function"
    },
    {
      "inputs": [
        {
          "internalType": "address",
          "name": "account",
          "type": "address"
        }
      ],
      "name": "isRegistrationPeriod",
      "outputs": [
        {
          "internalType": "bool",
          "name": "",
          "type": "bool"
        }
      ],
      "stateMutability": "view",
      "type": "function"
    },
    {
      "inputs": [
        {
          "internalType": "address",
          "name": "account",
          "type": "address"
        },
        {
          "internalType": "uint256",
          "name": "classId",
          "type": "uint256"
        }
      ],
      "name": "majorRestricted",
      "outputs": [
        {
          "internalType": "bool",
          "name": "",
          "type": "bool"
        }
      ],
      "stateMutability": "view",
      "type": "function"
    },
    {
      "inputs": [],
      "name": "maxAllowedCredits",
      "outputs": [
        {
          "internalType": "uint256",
          "name": "",
          "type": "uint256"
        }
      ],
      "stateMutability": "view",
      "type": "function"
    },
    {
      "inputs": [],
      "name": "owner",
      "outputs": [
        {
          "internalType": "address",
          "name": "",
          "type": "address"
        }
      ],
      "stateMutability": "view",
      "type": "function"
    },
    {
      "inputs": [],
      "name": "quarterName",
      "outputs": [
        {
          "internalType": "string",
          "name": "",
          "type": "string"
        }
      ],
      "stateMutability": "view",
      "type": "function"
    },
    {
      "inputs": [
        {
          "internalType": "uint256",
          "name": "classId",
          "type": "uint256"
        }
      ],
      "name": "registerClass",
      "outputs": [],
      "stateMutability": "nonpayable",
      "type": "function"
    },
    {
      "inputs": [
        {
          "internalType": "uint256[]",
          "name": "classIds",
          "type": "uint256[]"
        }
      ],
      "name": "registerMultipleClasses",
      "outputs": [],
      "stateMutability": "nonpayable",
      "type": "function"
    },
    {
      "inputs": [
        {
          "internalType": "address",
          "name": "account",
          "type": "address"
        },
        {
          "internalType": "uint256",
          "name": "classId",
          "type": "uint256"
        }
      ],
      "name": "registered",
      "outputs": [
        {
          "internalType": "bool",
          "name": "",
          "type": "bool"
        }
      ],
      "stateMutability": "view",
      "type": "function"
    },
    {
      "inputs": [
        {
          "internalType": "uint256",
          "name": "",
          "type": "uint256"
        }
      ],
      "name": "registrationPeriod",
      "outputs": [
        {
          "internalType": "uint256",
          "name": "",
          "type": "uint256"
        }
      ],
      "stateMutability": "view",
      "type": "function"
    },
    {
      "inputs": [],
      "name": "renounceOwnership",
      "outputs": [],
      "stateMutability": "nonpayable",
      "type": "function"
    },
    {
      "inputs": [
        {
          "internalType": "address",
          "name": "from",
          "type": "address"
        },
        {
          "internalType": "address",
          "name": "to",
          "type": "address"
        },
        {
          "internalType": "uint256[]",
          "name": "ids",
          "type": "uint256[]"
        },
        {
          "internalType": "uint256[]",
          "name": "amounts",
          "type": "uint256[]"
        },
        {
          "internalType": "bytes",
          "name": "data",
          "type": "bytes"
        }
      ],
      "name": "safeBatchTransferFrom",
      "outputs": [],
      "stateMutability": "nonpayable",
      "type": "function"
    },
    {
      "inputs": [
        {
          "internalType": "address",
          "name": "from",
          "type": "address"
        },
        {
          "internalType": "address",
          "name": "to",
          "type": "address"
        },
        {
          "internalType": "uint256",
          "name": "id",
          "type": "uint256"
        },
        {
          "internalType": "uint256",
          "name": "amount",
          "type": "uint256"
        },
        {
          "internalType": "bytes",
          "name": "data",
          "type": "bytes"
        }
      ],
      "name": "safeTransferFrom",
      "outputs": [],
      "stateMutability": "nonpayable",
      "type": "function"
    },
    {
      "inputs": [
        {
          "internalType": "address",
          "name": "operator",
          "type": "address"
        },
        {
          "internalType": "bool",
          "name": "approved",
          "type": "bool"
        }
      ],
      "name": "setApprovalForAll",
      "outputs": [],
      "stateMutability": "nonpayable",
      "type": "function"
    },
    {
      "inputs": [
        {
          "internalType": "uint256",
          "name": "period1",
          "type": "uint256"
        },
        {
          "internalType": "uint256",
          "name": "period2",
          "type": "uint256"
        },
        {
          "internalType": "uint256",
          "name": "period3",
          "type": "uint256"
        }
      ],
      "name": "setRegistrationPeriod",
      "outputs": [],
      "stateMutability": "nonpayable",
      "type": "function"
    },
    {
      "inputs": [
        {
          "internalType": "bytes4",
          "name": "interfaceId",
          "type": "bytes4"
        }
      ],
      "name": "supportsInterface",
      "outputs": [
        {
          "internalType": "bool",
          "name": "",
          "type": "bool"
        }
      ],
      "stateMutability": "view",
      "type": "function"
    },
    {
      "inputs": [
        {
          "internalType": "address",
          "name": "account",
          "type": "address"
        },
        {
          "internalType": "uint256",
          "name": "classId",
          "type": "uint256"
        }
      ],
      "name": "timeConflict",
      "outputs": [
        {
          "internalType": "bool",
          "name": "",
          "type": "bool"
        }
      ],
      "stateMutability": "view",
      "type": "function"
    },
    {
      "inputs": [
        {
          "internalType": "address",
          "name": "newOwner",
          "type": "address"
        }
      ],
      "name": "transferOwnership",
      "outputs": [],
      "stateMutability": "nonpayable",
      "type": "function"
    },
    {
      "inputs": [
        {
          "internalType": "string",
          "name": "baseURI",
          "type": "string"
        }
      ],
      "name": "updateBaseURI",
      "outputs": [],
      "stateMutability": "nonpayable",
      "type": "function"
    },
    {
      "inputs": [
        {
          "internalType": "uint256",
          "name": "tokenId",
          "type": "uint256"
        },
        {
          "internalType": "string",
          "name": "tokenURI",
          "type": "string"
        }
      ],
      "name": "updateClassURI",
      "outputs": [],
      "stateMutability": "nonpayable",
      "type": "function"
    },
    {
      "inputs": [
        {
          "internalType": "uint256",
          "name": "tokenId",
          "type": "uint256"
        }
      ],
      "name": "uri",
      "outputs": [
        {
          "internalType": "string",
          "name": "",
          "type": "string"
        }
      ],
      "stateMutability": "view",
      "type": "function"
    }
  ],
  "transactionHash": "0xd14bb909194c617e071c329570428b310b9a70b6ed8cb5edb3503e6189e643bc",
  "args": [
    "0xA334C78Ce1c3a7DC5623e631b57aa3dCCd0A1616",
    "WIN2023"
  ],
  "numDeployments": 1,
  "solcInputHash": "a9e9ca05d5d4c106973529b7e2b84077",
  "bytecode": "0x60a0604052600060809081526004906200001a9082620001af565b5060146007553480156200002d57600080fd5b50604051620032d5380380620032d583398101604081905262000050916200027b565b6040805160208101909152600081526200006a33620000a8565b6200007581620000f8565b50600680546001600160a01b0319166001600160a01b03841617905560086200009f8282620001af565b50505062000371565b600080546001600160a01b038381166001600160a01b0319831681178455604051919092169283917f8be0079c531659141344cd1fd0a4f28419497f9722a3daafe3b4186f6b6457e09190a35050565b6003620001068282620001af565b5050565b634e487b7160e01b600052604160045260246000fd5b600181811c908216806200013557607f821691505b6020821081036200015657634e487b7160e01b600052602260045260246000fd5b50919050565b601f821115620001aa57600081815260208120601f850160051c81016020861015620001855750805b601f850160051c820191505b81811015620001a65782815560010162000191565b5050505b505050565b81516001600160401b03811115620001cb57620001cb6200010a565b620001e381620001dc845462000120565b846200015c565b602080601f8311600181146200021b5760008415620002025750858301515b600019600386901b1c1916600185901b178555620001a6565b600085815260208120601f198616915b828110156200024c578886015182559484019460019091019084016200022b565b50858210156200026b5787850151600019600388901b60f8161c191681555b5050505050600190811b01905550565b600080604083850312156200028f57600080fd5b82516001600160a01b0381168114620002a757600080fd5b602084810151919350906001600160401b0380821115620002c757600080fd5b818601915086601f830112620002dc57600080fd5b815181811115620002f157620002f16200010a565b604051601f8201601f19908116603f011681019083821181831017156200031c576200031c6200010a565b8160405282815289868487010111156200033557600080fd5b600093505b828410156200035957848401860151818501870152928501926200033a565b60008684830101528096505050505050509250929050565b612f5480620003816000396000f3fe608060405234801561001057600080fd5b50600436106102055760003560e01c8063817dbe9f1161011a578063d3fb06a0116100ad578063edc13f641161007c578063edc13f64146104c2578063f242432a146104d5578063f2fde38b146104e8578063f7037019146104fb578063fb2879df1461050e57600080fd5b8063d3fb06a014610457578063e283fbea14610460578063e3c0293d14610473578063e985e9c51461048657600080fd5b8063a43b2cbe116100e9578063a43b2cbe146103f2578063aec3673414610405578063bc5cbfdf14610418578063d3f6b50f1461044457600080fd5b8063817dbe9f146103835780638da5cb5b146103a7578063931688cb146103cc578063a22cb465146103df57600080fd5b80632a818af31161019d5780634bff67e81161016c5780634bff67e8146103225780634e1273f4146103355780635bf567f314610355578063715018a61461036857806375dffe0f1461037057600080fd5b80632a818af3146102d45780632eb2c2d6146102dc57806338e7d5d5146102ef57806348caf4be1461030257600080fd5b80630e89341c116101d95780630e89341c14610279578063143d414014610299578063195309af146102ae57806323f7b5d8146102c157600080fd5b8062fdd58e1461020a57806301c23c971461023057806301ffc9a71461025357806309193aed14610266575b600080fd5b61021d6102183660046122ee565b610521565b6040519081526020015b60405180910390f35b61024361023e3660046122ee565b6105bc565b6040519015158152602001610227565b61024361026136600461232e565b610639565b61021d61027436600461234b565b610689565b61028c61028736600461234b565b6106a0565b60405161022791906123b4565b6102ac6102a736600461234b565b6106ab565b005b6102ac6102bc36600461247c565b6107f8565b6102436102cf3660046122ee565b61080a565b61028c6109cd565b6102ac6102ea366004612556565b610a5b565b61021d6102fd3660046122ee565b610aa7565b61021d6103103660046125ff565b600a6020526000908152604090205481565b6102ac61033036600461261a565b610ad8565b610348610343366004612656565b610bcb565b6040516102279190612751565b6102ac610363366004612764565b610cf4565b6102ac610d0a565b61024361037e3660046122ee565b610d1e565b61039661039136600461234b565b610da0565b604051610227959493929190612790565b6000546001600160a01b03165b6040516001600160a01b039091168152602001610227565b6102ac6103da3660046127d3565b610edf565b6102ac6103ed366004612807565b610ef3565b6102ac61040036600461234b565b610efe565b6102ac6104133660046128b0565b610fb5565b61024361042636600461234b565b60009081526009602052604090206002810154600590910154101590565b6102436104523660046125ff565b6110d5565b61021d60075481565b61024361046e3660046122ee565b6112d6565b6102ac61048136600461234b565b6113af565b610243610494366004612955565b6001600160a01b03918216600090815260026020908152604080832093909416825291909152205460ff1690565b6102436104d03660046122ee565b6113bc565b6102ac6104e3366004612988565b6113fe565b6102ac6104f63660046125ff565b611443565b6102ac61050936600461234b565b6114b9565b6006546103b4906001600160a01b031681565b60006001600160a01b0383166105915760405162461bcd60e51b815260206004820152602a60248201527f455243313135353a2061646472657373207a65726f206973206e6f742061207660448201526930b634b21037bbb732b960b11b60648201526084015b60405180910390fd5b5060008181526001602090815260408083206001600160a01b03861684529091529020545b92915050565b60006105c883836113bc565b1580156105dc57506105da83836112d6565b155b80156105fe575060008281526009602052604090206002810154600590910154105b8015610611575061060f8383610d1e565b155b80156106215750610621836110d5565b80156106325750610632838361080a565b9392505050565b60006001600160e01b03198216636cdb3d1360e11b148061066a57506001600160e01b031982166303a24d0760e21b145b806105b657506301ffc9a760e01b6001600160e01b03198316146105b6565b600c816003811061069957600080fd5b0154905081565b60606105b682611570565b6106b361164f565b60005b60008281526009602052604090206005015481101561072457600082815260096020526040902060050180546107129190839081106106f7576106f76129ec565b6000918252602090912001546001600160a01b0316836116a9565b61071d600182612a18565b90506106b6565b600082815260096020818152604080842084815581518084019092528482529386905291905260019091019061075a9082612ab0565b506000828152600960208181526040808420600281018590556003810185905581518084019092528482529386905291905260049091019061079c9082612ab0565b5060008281526009602052604081206107ba91600790910190612271565b60008281526009602052604081206107d791600590910190612280565b60008281526009602052604081206107f491600690910190612280565b5050565b61080061164f565b6107f482826117a1565b6000808080805b6001600160a01b0387166000908152600b60205260409020548410156109c3576001600160a01b0387166000908152600b6020526040902080548590811061085b5761085b6129ec565b906000526020600020015491505b60078310156109b157600082815260096020526040902060079081019084908110610896576108966129ec565b60020201546000878152600960205260409020600790810190859081106108bf576108bf6129ec565b60020201541015610937576000828152600960205260409020600790810190849081106108ee576108ee6129ec565b6002020154600087815260096020526040902060079081019085908110610917576109176129ec565b600202016001015411156109325760019450505050506105b6565b61099f565b60008681526009602052604090206007908101908490811061095b5761095b6129ec565b6002020154600083815260096020526040902060079081019085908110610984576109846129ec565b6002020160010154111561099f5760019450505050506105b6565b6109aa600184612a18565b9250610869565b6109bc600185612a18565b9350610811565b9695505050505050565b600880546109da90612a2b565b80601f0160208091040260200160405190810160405280929190818152602001828054610a0690612a2b565b8015610a535780601f10610a2857610100808354040283529160200191610a53565b820191906000526020600020905b815481529060010190602001808311610a3657829003601f168201915b505050505081565b6001600160a01b038516331480610a775750610a778533610494565b610a935760405162461bcd60e51b815260040161058890612b6f565b610aa085858585856117fe565b5050505050565b600b6020528160005260406000208181548110610ac357600080fd5b90600052602060002001600091509150505481565b33328114610ae557600080fd5b6006546040516370a0823160e01b81526001600160a01b038381166004830152909116906370a0823190602401602060405180830381865afa158015610b2f573d6000803e3d6000fd5b505050506040513d601f19601f82011682018060405250810190610b539190612bbd565b600003610b725760405162461bcd60e51b815260040161058890612bd6565b6000805b8351811015610bc557838181518110610b9157610b916129ec565b60200260200101519150610ba533836105bc565b15610bb357610bb382610efe565b610bbe600182612a18565b9050610b76565b50505050565b60608151835114610c305760405162461bcd60e51b815260206004820152602960248201527f455243313135353a206163636f756e747320616e6420696473206c656e677468604482015268040dad2e6dac2e8c6d60bb1b6064820152608401610588565b600083516001600160401b03811115610c4b57610c4b6123c7565b604051908082528060200260200182016040528015610c74578160200160208202803683370190505b50905060005b8451811015610cec57610cbf858281518110610c9857610c986129ec565b6020026020010151858381518110610cb257610cb26129ec565b6020026020010151610521565b828281518110610cd157610cd16129ec565b6020908102919091010152610ce581612c0d565b9050610c7a565b509392505050565b610cfc61164f565b600c92909255600d55600e55565b610d1261164f565b610d1c60006119de565b565b600080805b600084815260096020526040902060050154811015610cec57600084815260096020526040902060050180546001600160a01b038716919083908110610d6b57610d6b6129ec565b6000918252602090912001546001600160a01b031603610d8e5760019150610cec565b610d99600182612a18565b9050610d23565b60096020526000908152604090208054600182018054919291610dc290612a2b565b80601f0160208091040260200160405190810160405280929190818152602001828054610dee90612a2b565b8015610e3b5780601f10610e1057610100808354040283529160200191610e3b565b820191906000526020600020905b815481529060010190602001808311610e1e57829003601f168201915b505050505090806002015490806003015490806004018054610e5c90612a2b565b80601f0160208091040260200160405190810160405280929190818152602001828054610e8890612a2b565b8015610ed55780601f10610eaa57610100808354040283529160200191610ed5565b820191906000526020600020905b815481529060010190602001808311610eb857829003601f168201915b5050505050905085565b610ee761164f565b610ef081611a2e565b50565b6107f4338383611a3a565b33328114610f0b57600080fd5b6006546040516370a0823160e01b81526001600160a01b038381166004830152909116906370a0823190602401602060405180830381865afa158015610f55573d6000803e3d6000fd5b505050506040513d601f19601f82011682018060405250810190610f799190612bbd565b600003610f985760405162461bcd60e51b815260040161058890612bd6565b610fa233836105bc565b610fab57600080fd5b6107f43383611b1a565b610fbd61164f565b60008781526009602052604090205415610fd657600080fd5b6000878152600960205260409020878155600101610ff48782612ab0565b506000878152600960205260409020600281018690556003810185905560040161101e8482612ab0565b5060005b60078110156110cb5782816007811061103d5761103d6129ec565b6020020151600960008a81526020019081526020016000206007018260078110611069576110696129ec565b6002020155818160078110611080576110806129ec565b6020020151600960008a815260200190815260200160002060070182600781106110ac576110ac6129ec565b60020201600101819055506001816110c49190612a18565b9050611022565b5050505050505050565b600654604051630861b4bd60e41b81526001600160a01b038381166004830152600092839291169063861b4bd090602401602060405180830381865afa158015611123573d6000803e3d6000fd5b505050506040513d601f19601f820116820180604052508101906111479190612bbd565b6006546040516301b50e1160e11b815260048101839052919250600091602d916001600160a01b03169063036a1c2290602401602060405180830381865afa158015611197573d6000803e3d6000fd5b505050506040513d601f19601f820116820180604052508101906111bb9190612bbd565b10156111d257600c60025b01544210159050610632565b6006546040516301b50e1160e11b815260048101849052605a916001600160a01b03169063036a1c2290602401602060405180830381865afa15801561121c573d6000803e3d6000fd5b505050506040513d601f19601f820116820180604052508101906112409190612bbd565b101561124f57600c60016111c6565b6006546040516301b50e1160e11b8152600481018490526087916001600160a01b03169063036a1c2290602401602060405180830381865afa158015611299573d6000803e3d6000fd5b505050506040513d601f19601f820116820180604052508101906112bd9190612bbd565b10156112cc57600c60006111c6565b5060019392505050565b60006001815b600084815260096020526040902060060154811015610cec576000848152600960205260409020600601805482908110611318576113186129ec565b6000918252602090912001546040516370a0823160e01b81526001600160a01b038781166004830152909116906370a0823190602401602060405180830381865afa15801561136b573d6000803e3d6000fd5b505050506040513d601f19601f8201168201806040525081019061138f9190612bbd565b1561139d5760009150610cec565b6113a8600182612a18565b90506112dc565b6113b761164f565b600755565b6007546000828152600960209081526040808320600301546001600160a01b0387168452600a9092528220549192916113f59190612a18565b10159392505050565b6001600160a01b03851633148061141a575061141a8533610494565b6114365760405162461bcd60e51b815260040161058890612b6f565b610aa08585858585611bbd565b61144b61164f565b6001600160a01b0381166114b05760405162461bcd60e51b815260206004820152602660248201527f4f776e61626c653a206e6577206f776e657220697320746865207a65726f206160448201526564647265737360d01b6064820152608401610588565b610ef0816119de565b333281146114c657600080fd5b6006546040516370a0823160e01b81526001600160a01b038381166004830152909116906370a0823190602401602060405180830381865afa158015611510573d6000803e3d6000fd5b505050506040513d601f19601f820116820180604052508101906115349190612bbd565b6000036115535760405162461bcd60e51b815260040161058890612bd6565b61155d3383610d1e565b61156657600080fd5b6107f433836116a9565b60008181526005602052604081208054606092919061158e90612a2b565b80601f01602080910402602001604051908101604052809291908181526020018280546115ba90612a2b565b80156116075780601f106115dc57610100808354040283529160200191611607565b820191906000526020600020905b8154815290600101906020018083116115ea57829003601f168201915b5050505050905060008151116116255761162083611ceb565b610632565b600481604051602001611639929190612c26565b6040516020818303038152906040529392505050565b6000546001600160a01b03163314610d1c5760405162461bcd60e51b815260206004820181905260248201527f4f776e61626c653a2063616c6c6572206973206e6f7420746865206f776e65726044820152606401610588565b6116b582826001611d7f565b6000818152600960209081526040808320600301546001600160a01b0386168452600a90925282208054919290916116ee908490612cad565b9091555060009050805b6001600160a01b0384166000908152600b6020526040902054821015610bc5576001600160a01b0384166000908152600b60205260409020805484919084908110611745576117456129ec565b90600052602060002001540361178f576001600160a01b0384166000908152600b6020526040902080548390811061177f5761177f6129ec565b6000918252602082200155610bc5565b61179a600183612a18565b91506116f8565b60008281526005602052604090206117b98282612ab0565b50817f6bb7ff708619ba0610cba295a58592e0451dee2622938c8755667688daf3529b6117e5846106a0565b6040516117f291906123b4565b60405180910390a25050565b81518351146118605760405162461bcd60e51b815260206004820152602860248201527f455243313135353a2069647320616e6420616d6f756e7473206c656e677468206044820152670dad2e6dac2e8c6d60c31b6064820152608401610588565b6001600160a01b0384166118865760405162461bcd60e51b815260040161058890612cc0565b3360005b84518110156119705760008582815181106118a7576118a76129ec565b6020026020010151905060008583815181106118c5576118c56129ec565b60209081029190910181015160008481526001835260408082206001600160a01b038e1683529093529190912054909150818110156119165760405162461bcd60e51b815260040161058890612d05565b60008381526001602090815260408083206001600160a01b038e8116855292528083208585039055908b16825281208054849290611955908490612a18565b925050819055505050508061196990612c0d565b905061188a565b50846001600160a01b0316866001600160a01b0316826001600160a01b03167f4a39dc06d4c0dbc64b70af90fd698a233a518aa5d07e595d983b8c0526c8f7fb87876040516119c0929190612d4f565b60405180910390a46119d6818787878787611f03565b505050505050565b600080546001600160a01b038381166001600160a01b0319831681178455604051919092169283917f8be0079c531659141344cd1fd0a4f28419497f9722a3daafe3b4186f6b6457e09190a35050565b60046107f48282612ab0565b816001600160a01b0316836001600160a01b031603611aad5760405162461bcd60e51b815260206004820152602960248201527f455243313135353a2073657474696e6720617070726f76616c20737461747573604482015268103337b91039b2b63360b91b6064820152608401610588565b6001600160a01b03838116600081815260026020908152604080832094871680845294825291829020805460ff191686151590811790915591519182527f17307eab39ab6107e8899845ad3d59bd9653f200f220920489ca2b5937696c31910160405180910390a3505050565b611b36828260016040518060200160405280600081525061205e565b6000818152600960209081526040808320600581018054600180820183559186528486200180546001600160a01b0319166001600160a01b038916908117909155808652600b8552838620805492830181558652848620909101869055600390910154908452600a9092528220805491929091611bb4908490612a18565b90915550505050565b6001600160a01b038416611be35760405162461bcd60e51b815260040161058890612cc0565b336000611bef8561216b565b90506000611bfc8561216b565b905060008681526001602090815260408083206001600160a01b038c16845290915290205485811015611c415760405162461bcd60e51b815260040161058890612d05565b60008781526001602090815260408083206001600160a01b038d8116855292528083208985039055908a16825281208054889290611c80908490612a18565b909155505060408051888152602081018890526001600160a01b03808b16928c821692918816917fc3d58168c5ae7397731d063d5bbf3d657854427343f4c083240f7aacaa2d0f62910160405180910390a4611ce0848a8a8a8a8a6121b6565b505050505050505050565b606060038054611cfa90612a2b565b80601f0160208091040260200160405190810160405280929190818152602001828054611d2690612a2b565b8015611d735780601f10611d4857610100808354040283529160200191611d73565b820191906000526020600020905b815481529060010190602001808311611d5657829003601f168201915b50505050509050919050565b6001600160a01b038316611de15760405162461bcd60e51b815260206004820152602360248201527f455243313135353a206275726e2066726f6d20746865207a65726f206164647260448201526265737360e81b6064820152608401610588565b336000611ded8461216b565b90506000611dfa8461216b565b6040805160208082018352600091829052888252600181528282206001600160a01b038b1683529052205490915084811015611e845760405162461bcd60e51b8152602060048201526024808201527f455243313135353a206275726e20616d6f756e7420657863656564732062616c604482015263616e636560e01b6064820152608401610588565b60008681526001602090815260408083206001600160a01b038b81168086529184528285208a8703905582518b81529384018a90529092908816917fc3d58168c5ae7397731d063d5bbf3d657854427343f4c083240f7aacaa2d0f62910160405180910390a46040805160208101909152600090525b50505050505050565b6001600160a01b0384163b156119d65760405163bc197c8160e01b81526001600160a01b0385169063bc197c8190611f479089908990889088908890600401612d7d565b6020604051808303816000875af1925050508015611f82575060408051601f3d908101601f19168201909252611f7f91810190612dcf565b60015b61202e57611f8e612dec565b806308c379a003611fc75750611fa2612e08565b80611fad5750611fc9565b8060405162461bcd60e51b815260040161058891906123b4565b505b60405162461bcd60e51b815260206004820152603460248201527f455243313135353a207472616e7366657220746f206e6f6e2d455243313135356044820152732932b1b2b4bb32b91034b6b83632b6b2b73a32b960611b6064820152608401610588565b6001600160e01b0319811663bc197c8160e01b14611efa5760405162461bcd60e51b815260040161058890612e91565b6001600160a01b0384166120be5760405162461bcd60e51b815260206004820152602160248201527f455243313135353a206d696e7420746f20746865207a65726f206164647265736044820152607360f81b6064820152608401610588565b3360006120ca8561216b565b905060006120d78561216b565b905060008681526001602090815260408083206001600160a01b038b1684529091528120805487929061210b908490612a18565b909155505060408051878152602081018790526001600160a01b03808a1692600092918716917fc3d58168c5ae7397731d063d5bbf3d657854427343f4c083240f7aacaa2d0f62910160405180910390a4611efa836000898989896121b6565b604080516001808252818301909252606091600091906020808301908036833701905050905082816000815181106121a5576121a56129ec565b602090810291909101015292915050565b6001600160a01b0384163b156119d65760405163f23a6e6160e01b81526001600160a01b0385169063f23a6e61906121fa9089908990889088908890600401612ed9565b6020604051808303816000875af1925050508015612235575060408051601f3d908101601f1916820190925261223291810190612dcf565b60015b61224157611f8e612dec565b6001600160e01b0319811663f23a6e6160e01b14611efa5760405162461bcd60e51b815260040161058890612e91565b50610ef090600e81019061229e565b5080546000825590600052602060002090810190610ef091906122bd565b5b808211156122b9576000808255600182015560020161229f565b5090565b5b808211156122b957600081556001016122be565b80356001600160a01b03811681146122e957600080fd5b919050565b6000806040838503121561230157600080fd5b61230a836122d2565b946020939093013593505050565b6001600160e01b031981168114610ef057600080fd5b60006020828403121561234057600080fd5b813561063281612318565b60006020828403121561235d57600080fd5b5035919050565b60005b8381101561237f578181015183820152602001612367565b50506000910152565b600081518084526123a0816020860160208601612364565b601f01601f19169290920160200192915050565b6020815260006106326020830184612388565b634e487b7160e01b600052604160045260246000fd5b601f8201601f191681016001600160401b0381118282101715612402576124026123c7565b6040525050565b600082601f83011261241a57600080fd5b81356001600160401b03811115612433576124336123c7565b60405161244a601f8301601f1916602001826123dd565b81815284602083860101111561245f57600080fd5b816020850160208301376000918101602001919091529392505050565b6000806040838503121561248f57600080fd5b8235915060208301356001600160401b038111156124ac57600080fd5b6124b885828601612409565b9150509250929050565b60006001600160401b038211156124db576124db6123c7565b5060051b60200190565b600082601f8301126124f657600080fd5b81356020612503826124c2565b60405161251082826123dd565b83815260059390931b850182019282810191508684111561253057600080fd5b8286015b8481101561254b5780358352918301918301612534565b509695505050505050565b600080600080600060a0868803121561256e57600080fd5b612577866122d2565b9450612585602087016122d2565b935060408601356001600160401b03808211156125a157600080fd5b6125ad89838a016124e5565b945060608801359150808211156125c357600080fd5b6125cf89838a016124e5565b935060808801359150808211156125e557600080fd5b506125f288828901612409565b9150509295509295909350565b60006020828403121561261157600080fd5b610632826122d2565b60006020828403121561262c57600080fd5b81356001600160401b0381111561264257600080fd5b61264e848285016124e5565b949350505050565b6000806040838503121561266957600080fd5b82356001600160401b038082111561268057600080fd5b818501915085601f83011261269457600080fd5b813560206126a1826124c2565b6040516126ae82826123dd565b83815260059390931b85018201928281019150898411156126ce57600080fd5b948201945b838610156126f3576126e4866122d2565b825294820194908201906126d3565b9650508601359250508082111561270957600080fd5b506124b8858286016124e5565b600081518084526020808501945080840160005b838110156127465781518752958201959082019060010161272a565b509495945050505050565b6020815260006106326020830184612716565b60008060006060848603121561277957600080fd5b505081359360208301359350604090920135919050565b85815260a0602082015260006127a960a0830187612388565b85604084015284606084015282810360808401526127c78185612388565b98975050505050505050565b6000602082840312156127e557600080fd5b81356001600160401b038111156127fb57600080fd5b61264e84828501612409565b6000806040838503121561281a57600080fd5b612823836122d2565b91506020830135801515811461283857600080fd5b809150509250929050565b600082601f83011261285457600080fd5b60405160e081018181106001600160401b0382111715612876576128766123c7565b6040528060e084018581111561288b57600080fd5b845b818110156128a557803583526020928301920161288d565b509195945050505050565b6000806000806000806000610260888a0312156128cc57600080fd5b8735965060208801356001600160401b03808211156128ea57600080fd5b6128f68b838c01612409565b975060408a0135965060608a0135955060808a013591508082111561291a57600080fd5b506129278a828b01612409565b9350506129378960a08a01612843565b9150612947896101808a01612843565b905092959891949750929550565b6000806040838503121561296857600080fd5b612971836122d2565b915061297f602084016122d2565b90509250929050565b600080600080600060a086880312156129a057600080fd5b6129a9866122d2565b94506129b7602087016122d2565b9350604086013592506060860135915060808601356001600160401b038111156129e057600080fd5b6125f288828901612409565b634e487b7160e01b600052603260045260246000fd5b634e487b7160e01b600052601160045260246000fd5b808201808211156105b6576105b6612a02565b600181811c90821680612a3f57607f821691505b602082108103612a5f57634e487b7160e01b600052602260045260246000fd5b50919050565b601f821115612aab57600081815260208120601f850160051c81016020861015612a8c5750805b601f850160051c820191505b818110156119d657828155600101612a98565b505050565b81516001600160401b03811115612ac957612ac96123c7565b612add81612ad78454612a2b565b84612a65565b602080601f831160018114612b125760008415612afa5750858301515b600019600386901b1c1916600185901b1785556119d6565b600085815260208120601f198616915b82811015612b4157888601518255948401946001909101908401612b22565b5085821015612b5f5787850151600019600388901b60f8161c191681555b5050505050600190811b01905550565b6020808252602e908201527f455243313135353a2063616c6c6572206973206e6f7420746f6b656e206f776e60408201526d195c881bdc88185c1c1c9bdd995960921b606082015260800190565b600060208284031215612bcf57600080fd5b5051919050565b60208082526017908201527f446f6573206e6f74206861766520616e2055572049442e000000000000000000604082015260600190565b600060018201612c1f57612c1f612a02565b5060010190565b6000808454612c3481612a2b565b60018281168015612c4c5760018114612c6157612c90565b60ff1984168752821515830287019450612c90565b8860005260208060002060005b85811015612c875781548a820152908401908201612c6e565b50505082870194505b505050508351612ca4818360208801612364565b01949350505050565b818103818111156105b6576105b6612a02565b60208082526025908201527f455243313135353a207472616e7366657220746f20746865207a65726f206164604082015264647265737360d81b606082015260800190565b6020808252602a908201527f455243313135353a20696e73756666696369656e742062616c616e636520666f60408201526939103a3930b739b332b960b11b606082015260800190565b604081526000612d626040830185612716565b8281036020840152612d748185612716565b95945050505050565b6001600160a01b0386811682528516602082015260a060408201819052600090612da990830186612716565b8281036060840152612dbb8186612716565b905082810360808401526127c78185612388565b600060208284031215612de157600080fd5b815161063281612318565b600060033d1115612e055760046000803e5060005160e01c5b90565b600060443d1015612e165790565b6040516003193d81016004833e81513d6001600160401b038160248401118184111715612e4557505050505090565b8285019150815181811115612e5d5750505050505090565b843d8701016020828501011115612e775750505050505090565b612e86602082860101876123dd565b509095945050505050565b60208082526028908201527f455243313135353a204552433131353552656365697665722072656a656374656040820152676420746f6b656e7360c01b606082015260800190565b6001600160a01b03868116825285166020820152604081018490526060810183905260a060808201819052600090612f1390830184612388565b97965050505050505056fea2646970667358221220b5286e4289c13320f5cbb5fe0a15dd49170013052bd5119a874576f61970237164736f6c63430008110033",
  "devdoc": {
    "kind": "dev",
    "methods": {
      "balanceOf(address,uint256)": {
        "details": "See {IERC1155-balanceOf}. Requirements: - `account` cannot be the zero address."
      },
      "balanceOfBatch(address[],uint256[])": {
        "details": "See {IERC1155-balanceOfBatch}. Requirements: - `accounts` and `ids` must have the same length."
      },
      "isApprovedForAll(address,address)": {
        "details": "See {IERC1155-isApprovedForAll}."
      },
      "owner()": {
        "details": "Returns the address of the current owner."
      },
      "renounceOwnership()": {
        "details": "Leaves the contract without owner. It will not be possible to call `onlyOwner` functions anymore. Can only be called by the current owner. NOTE: Renouncing ownership will leave the contract without an owner, thereby removing any functionality that is only available to the owner."
      },
      "safeBatchTransferFrom(address,address,uint256[],uint256[],bytes)": {
        "details": "See {IERC1155-safeBatchTransferFrom}."
      },
      "safeTransferFrom(address,address,uint256,uint256,bytes)": {
        "details": "See {IERC1155-safeTransferFrom}."
      },
      "setApprovalForAll(address,bool)": {
        "details": "See {IERC1155-setApprovalForAll}."
      },
      "supportsInterface(bytes4)": {
        "details": "See {IERC165-supportsInterface}."
      },
      "transferOwnership(address)": {
        "details": "Transfers ownership of the contract to a new account (`newOwner`). Can only be called by the current owner."
      }
    },
    "version": 1
  },
  "userdoc": {
    "kind": "user",
    "methods": {},
    "version": 1
  },
  "storageLayout": {
    "storage": [
      {
        "astId": 7,
        "contract": "contracts/Registration.sol:Registration",
        "label": "_owner",
        "offset": 0,
        "slot": "0",
        "type": "t_address"
      },
      {
        "astId": 138,
        "contract": "contracts/Registration.sol:Registration",
        "label": "_balances",
        "offset": 0,
        "slot": "1",
        "type": "t_mapping(t_uint256,t_mapping(t_address,t_uint256))"
      },
      {
        "astId": 144,
        "contract": "contracts/Registration.sol:Registration",
        "label": "_operatorApprovals",
        "offset": 0,
        "slot": "2",
        "type": "t_mapping(t_address,t_mapping(t_address,t_bool))"
      },
      {
        "astId": 146,
        "contract": "contracts/Registration.sol:Registration",
        "label": "_uri",
        "offset": 0,
        "slot": "3",
        "type": "t_string_storage"
      },
      {
        "astId": 1511,
        "contract": "contracts/Registration.sol:Registration",
        "label": "_baseURI",
        "offset": 0,
        "slot": "4",
        "type": "t_string_storage"
      },
      {
        "astId": 1515,
        "contract": "contracts/Registration.sol:Registration",
        "label": "_tokenURIs",
        "offset": 0,
        "slot": "5",
        "type": "t_mapping(t_uint256,t_string_storage)"
      },
      {
        "astId": 4536,
        "contract": "contracts/Registration.sol:Registration",
        "label": "UWIDContractAddress",
        "offset": 0,
        "slot": "6",
        "type": "t_address"
      },
      {
        "astId": 4539,
        "contract": "contracts/Registration.sol:Registration",
        "label": "maxAllowedCredits",
        "offset": 0,
        "slot": "7",
        "type": "t_uint256"
      },
      {
        "astId": 4541,
        "contract": "contracts/Registration.sol:Registration",
        "label": "quarterName",
        "offset": 0,
        "slot": "8",
        "type": "t_string_storage"
      },
      {
        "astId": 4573,
        "contract": "contracts/Registration.sol:Registration",
        "label": "classes",
        "offset": 0,
        "slot": "9",
        "type": "t_mapping(t_uint256,t_struct(Class)4568_storage)"
      },
      {
        "astId": 4577,
        "contract": "contracts/Registration.sol:Registration",
        "label": "accountCredits",
        "offset": 0,
        "slot": "10",
        "type": "t_mapping(t_address,t_uint256)"
      },
      {
        "astId": 4582,
        "contract": "contracts/Registration.sol:Registration",
        "label": "accountClasses",
        "offset": 0,
        "slot": "11",
        "type": "t_mapping(t_address,t_array(t_uint256)dyn_storage)"
      },
      {
        "astId": 4586,
        "contract": "contracts/Registration.sol:Registration",
        "label": "registrationPeriod",
        "offset": 0,
        "slot": "12",
        "type": "t_array(t_uint256)3_storage"
      }
    ],
    "types": {
      "t_address": {
        "encoding": "inplace",
        "label": "address",
        "numberOfBytes": "20"
      },
      "t_array(t_address)dyn_storage": {
        "base": "t_address",
        "encoding": "dynamic_array",
        "label": "address[]",
        "numberOfBytes": "32"
      },
      "t_array(t_struct(ClassTime)4546_storage)7_storage": {
        "base": "t_struct(ClassTime)4546_storage",
        "encoding": "inplace",
        "label": "struct Registration.ClassTime[7]",
        "numberOfBytes": "448"
      },
      "t_array(t_uint256)3_storage": {
        "base": "t_uint256",
        "encoding": "inplace",
        "label": "uint256[3]",
        "numberOfBytes": "96"
      },
      "t_array(t_uint256)dyn_storage": {
        "base": "t_uint256",
        "encoding": "dynamic_array",
        "label": "uint256[]",
        "numberOfBytes": "32"
      },
      "t_bool": {
        "encoding": "inplace",
        "label": "bool",
        "numberOfBytes": "1"
      },
      "t_mapping(t_address,t_array(t_uint256)dyn_storage)": {
        "encoding": "mapping",
        "key": "t_address",
        "label": "mapping(address => uint256[])",
        "numberOfBytes": "32",
        "value": "t_array(t_uint256)dyn_storage"
      },
      "t_mapping(t_address,t_bool)": {
        "encoding": "mapping",
        "key": "t_address",
        "label": "mapping(address => bool)",
        "numberOfBytes": "32",
        "value": "t_bool"
      },
      "t_mapping(t_address,t_mapping(t_address,t_bool))": {
        "encoding": "mapping",
        "key": "t_address",
        "label": "mapping(address => mapping(address => bool))",
        "numberOfBytes": "32",
        "value": "t_mapping(t_address,t_bool)"
      },
      "t_mapping(t_address,t_uint256)": {
        "encoding": "mapping",
        "key": "t_address",
        "label": "mapping(address => uint256)",
        "numberOfBytes": "32",
        "value": "t_uint256"
      },
      "t_mapping(t_uint256,t_mapping(t_address,t_uint256))": {
        "encoding": "mapping",
        "key": "t_uint256",
        "label": "mapping(uint256 => mapping(address => uint256))",
        "numberOfBytes": "32",
        "value": "t_mapping(t_address,t_uint256)"
      },
      "t_mapping(t_uint256,t_string_storage)": {
        "encoding": "mapping",
        "key": "t_uint256",
        "label": "mapping(uint256 => string)",
        "numberOfBytes": "32",
        "value": "t_string_storage"
      },
      "t_mapping(t_uint256,t_struct(Class)4568_storage)": {
        "encoding": "mapping",
        "key": "t_uint256",
        "label": "mapping(uint256 => struct Registration.Class)",
        "numberOfBytes": "32",
        "value": "t_struct(Class)4568_storage"
      },
      "t_string_storage": {
        "encoding": "bytes",
        "label": "string",
        "numberOfBytes": "32"
      },
      "t_struct(Class)4568_storage": {
        "encoding": "inplace",
        "label": "struct Registration.Class",
        "members": [
          {
            "astId": 4548,
            "contract": "contracts/Registration.sol:Registration",
            "label": "classId",
            "offset": 0,
            "slot": "0",
            "type": "t_uint256"
          },
          {
            "astId": 4550,
            "contract": "contracts/Registration.sol:Registration",
            "label": "className",
            "offset": 0,
            "slot": "1",
            "type": "t_string_storage"
          },
          {
            "astId": 4552,
            "contract": "contracts/Registration.sol:Registration",
            "label": "enrollCapacity",
            "offset": 0,
            "slot": "2",
            "type": "t_uint256"
          },
          {
            "astId": 4554,
            "contract": "contracts/Registration.sol:Registration",
            "label": "credits",
            "offset": 0,
            "slot": "3",
            "type": "t_uint256"
          },
          {
            "astId": 4556,
            "contract": "contracts/Registration.sol:Registration",
            "label": "creditType",
            "offset": 0,
            "slot": "4",
            "type": "t_string_storage"
          },
          {
            "astId": 4559,
            "contract": "contracts/Registration.sol:Registration",
            "label": "classAccounts",
            "offset": 0,
            "slot": "5",
            "type": "t_array(t_address)dyn_storage"
          },
          {
            "astId": 4562,
            "contract": "contracts/Registration.sol:Registration",
            "label": "classMajorRestrictions",
            "offset": 0,
            "slot": "6",
            "type": "t_array(t_address)dyn_storage"
          },
          {
            "astId": 4567,
            "contract": "contracts/Registration.sol:Registration",
            "label": "classTimes",
            "offset": 0,
            "slot": "7",
            "type": "t_array(t_struct(ClassTime)4546_storage)7_storage"
          }
        ],
        "numberOfBytes": "672"
      },
      "t_struct(ClassTime)4546_storage": {
        "encoding": "inplace",
        "label": "struct Registration.ClassTime",
        "members": [
          {
            "astId": 4543,
            "contract": "contracts/Registration.sol:Registration",
            "label": "startTime",
            "offset": 0,
            "slot": "0",
            "type": "t_uint256"
          },
          {
            "astId": 4545,
            "contract": "contracts/Registration.sol:Registration",
            "label": "endTime",
            "offset": 0,
            "slot": "1",
            "type": "t_uint256"
          }
        ],
        "numberOfBytes": "64"
      },
      "t_uint256": {
        "encoding": "inplace",
        "label": "uint256",
        "numberOfBytes": "32"
      }
    }
  }
}