{
  "address": "0x9375feAa03E0b68152E9Cb831B38C1C072257861",
  "abi": [
    {
      "anonymous": false,
      "inputs": [
        {
          "indexed": true,
          "internalType": "address",
          "name": "account",
          "type": "address"
        },
        {
          "indexed": true,
          "internalType": "address",
          "name": "operator",
          "type": "address"
        },
        {
          "indexed": false,
          "internalType": "bool",
          "name": "approved",
          "type": "bool"
        }
      ],
      "name": "ApprovalForAll",
      "type": "event"
    },
    {
      "anonymous": false,
      "inputs": [
        {
          "indexed": false,
          "internalType": "uint8",
          "name": "version",
          "type": "uint8"
        }
      ],
      "name": "Initialized",
      "type": "event"
    },
    {
      "anonymous": false,
      "inputs": [
        {
          "indexed": true,
          "internalType": "address",
          "name": "previousOwner",
          "type": "address"
        },
        {
          "indexed": true,
          "internalType": "address",
          "name": "newOwner",
          "type": "address"
        }
      ],
      "name": "OwnershipTransferred",
      "type": "event"
    },
    {
      "anonymous": false,
      "inputs": [
        {
          "indexed": true,
          "internalType": "address",
          "name": "operator",
          "type": "address"
        },
        {
          "indexed": true,
          "internalType": "address",
          "name": "from",
          "type": "address"
        },
        {
          "indexed": true,
          "internalType": "address",
          "name": "to",
          "type": "address"
        },
        {
          "indexed": false,
          "internalType": "uint256[]",
          "name": "ids",
          "type": "uint256[]"
        },
        {
          "indexed": false,
          "internalType": "uint256[]",
          "name": "values",
          "type": "uint256[]"
        }
      ],
      "name": "TransferBatch",
      "type": "event"
    },
    {
      "anonymous": false,
      "inputs": [
        {
          "indexed": true,
          "internalType": "address",
          "name": "operator",
          "type": "address"
        },
        {
          "indexed": true,
          "internalType": "address",
          "name": "from",
          "type": "address"
        },
        {
          "indexed": true,
          "internalType": "address",
          "name": "to",
          "type": "address"
        },
        {
          "indexed": false,
          "internalType": "uint256",
          "name": "id",
          "type": "uint256"
        },
        {
          "indexed": false,
          "internalType": "uint256",
          "name": "value",
          "type": "uint256"
        }
      ],
      "name": "TransferSingle",
      "type": "event"
    },
    {
      "anonymous": false,
      "inputs": [
        {
          "indexed": false,
          "internalType": "string",
          "name": "value",
          "type": "string"
        },
        {
          "indexed": true,
          "internalType": "uint256",
          "name": "id",
          "type": "uint256"
        }
      ],
      "name": "URI",
      "type": "event"
    },
    {
      "inputs": [],
      "name": "UWArchiveAddress",
      "outputs": [
        {
          "internalType": "address",
          "name": "",
          "type": "address"
        }
      ],
      "stateMutability": "view",
      "type": "function"
    },
    {
      "inputs": [],
      "name": "UWIDAddress",
      "outputs": [
        {
          "internalType": "address",
          "name": "",
          "type": "address"
        }
      ],
      "stateMutability": "view",
      "type": "function"
    },
    {
      "inputs": [
        {
          "internalType": "address",
          "name": "_UWIDAddress",
          "type": "address"
        },
        {
          "internalType": "address",
          "name": "_UWArchiveAddress",
          "type": "address"
        },
        {
          "internalType": "string",
          "name": "_quarterName",
          "type": "string"
        }
      ],
      "name": "__UWClasses_init",
      "outputs": [],
      "stateMutability": "nonpayable",
      "type": "function"
    },
    {
      "inputs": [
        {
          "internalType": "address",
          "name": "",
          "type": "address"
        },
        {
          "internalType": "uint256",
          "name": "",
          "type": "uint256"
        }
      ],
      "name": "accountClasses",
      "outputs": [
        {
          "internalType": "uint256",
          "name": "",
          "type": "uint256"
        }
      ],
      "stateMutability": "view",
      "type": "function"
    },
    {
      "inputs": [
        {
          "internalType": "address",
          "name": "",
          "type": "address"
        },
        {
          "internalType": "bytes32",
          "name": "",
          "type": "bytes32"
        }
      ],
      "name": "accountCourseSectionInfo",
      "outputs": [
        {
          "internalType": "bytes20",
          "name": "",
          "type": "bytes20"
        }
      ],
      "stateMutability": "view",
      "type": "function"
    },
    {
      "inputs": [
        {
          "internalType": "address",
          "name": "",
          "type": "address"
        }
      ],
      "name": "accountCredits",
      "outputs": [
        {
          "internalType": "uint256",
          "name": "",
          "type": "uint256"
        }
      ],
      "stateMutability": "view",
      "type": "function"
    },
    {
      "inputs": [
        {
          "internalType": "address",
          "name": "account",
          "type": "address"
        },
        {
          "internalType": "bytes32",
          "name": "courseId",
          "type": "bytes32"
        }
      ],
      "name": "accountDroppedAllCourseSections",
      "outputs": [
        {
          "internalType": "bool",
          "name": "",
          "type": "bool"
        }
      ],
      "stateMutability": "view",
      "type": "function"
    },
    {
      "inputs": [
        {
          "internalType": "address",
          "name": "account",
          "type": "address"
        },
        {
          "internalType": "string",
          "name": "courseName",
          "type": "string"
        }
      ],
      "name": "accountDroppedAllCourseSections",
      "outputs": [
        {
          "internalType": "bool",
          "name": "",
          "type": "bool"
        }
      ],
      "stateMutability": "view",
      "type": "function"
    },
    {
      "inputs": [
        {
          "internalType": "address",
          "name": "",
          "type": "address"
        },
        {
          "internalType": "bytes32",
          "name": "",
          "type": "bytes32"
        }
      ],
      "name": "accountIsRegisteredForCourse",
      "outputs": [
        {
          "internalType": "bool",
          "name": "",
          "type": "bool"
        }
      ],
      "stateMutability": "view",
      "type": "function"
    },
    {
      "inputs": [
        {
          "internalType": "address",
          "name": "account",
          "type": "address"
        },
        {
          "internalType": "string",
          "name": "courseName",
          "type": "string"
        }
      ],
      "name": "accountRegisteredAllCourseSections",
      "outputs": [
        {
          "internalType": "bool",
          "name": "",
          "type": "bool"
        }
      ],
      "stateMutability": "view",
      "type": "function"
    },
    {
      "inputs": [
        {
          "internalType": "address",
          "name": "account",
          "type": "address"
        },
        {
          "internalType": "bytes32",
          "name": "courseId",
          "type": "bytes32"
        }
      ],
      "name": "accountRegisteredAllCourseSections",
      "outputs": [
        {
          "internalType": "bool",
          "name": "",
          "type": "bool"
        }
      ],
      "stateMutability": "view",
      "type": "function"
    },
    {
      "inputs": [
        {
          "internalType": "address",
          "name": "",
          "type": "address"
        }
      ],
      "name": "accountWeekdayTime",
      "outputs": [
        {
          "internalType": "bytes30",
          "name": "",
          "type": "bytes30"
        }
      ],
      "stateMutability": "view",
      "type": "function"
    },
    {
      "inputs": [
        {
          "internalType": "address",
          "name": "",
          "type": "address"
        }
      ],
      "name": "accountWeekendTime",
      "outputs": [
        {
          "internalType": "bytes12",
          "name": "",
          "type": "bytes12"
        }
      ],
      "stateMutability": "view",
      "type": "function"
    },
    {
      "inputs": [
        {
          "internalType": "uint256",
          "name": "classId",
          "type": "uint256"
        },
        {
          "internalType": "string",
          "name": "courseName",
          "type": "string"
        },
        {
          "internalType": "uint256",
          "name": "enrollCapacity",
          "type": "uint256"
        },
        {
          "internalType": "uint256",
          "name": "credits",
          "type": "uint256"
        },
        {
          "internalType": "string",
          "name": "creditType",
          "type": "string"
        },
        {
          "internalType": "bytes30",
          "name": "weekdayTime",
          "type": "bytes30"
        },
        {
          "internalType": "uint8",
          "name": "sectionRequirements",
          "type": "uint8"
        },
        {
          "internalType": "bytes12",
          "name": "weekendTime",
          "type": "bytes12"
        },
        {
          "internalType": "bytes20",
          "name": "sectionType",
          "type": "bytes20"
        }
      ],
      "name": "addClass",
      "outputs": [],
      "stateMutability": "nonpayable",
      "type": "function"
    },
    {
      "inputs": [
        {
          "internalType": "address",
          "name": "account",
          "type": "address"
        },
        {
          "internalType": "uint256",
          "name": "id",
          "type": "uint256"
        }
      ],
      "name": "balanceOf",
      "outputs": [
        {
          "internalType": "uint256",
          "name": "",
          "type": "uint256"
        }
      ],
      "stateMutability": "view",
      "type": "function"
    },
    {
      "inputs": [
        {
          "internalType": "address[]",
          "name": "accounts",
          "type": "address[]"
        },
        {
          "internalType": "uint256[]",
          "name": "ids",
          "type": "uint256[]"
        }
      ],
      "name": "balanceOfBatch",
      "outputs": [
        {
          "internalType": "uint256[]",
          "name": "",
          "type": "uint256[]"
        }
      ],
      "stateMutability": "view",
      "type": "function"
    },
    {
      "inputs": [
        {
          "internalType": "address",
          "name": "account",
          "type": "address"
        },
        {
          "internalType": "uint256",
          "name": "classId",
          "type": "uint256"
        }
      ],
      "name": "canEnroll",
      "outputs": [
        {
          "internalType": "bool",
          "name": "",
          "type": "bool"
        }
      ],
      "stateMutability": "view",
      "type": "function"
    },
    {
      "inputs": [
        {
          "internalType": "uint256",
          "name": "num",
          "type": "uint256"
        }
      ],
      "name": "changeMaxAllowedCredits",
      "outputs": [],
      "stateMutability": "nonpayable",
      "type": "function"
    },
    {
      "inputs": [
        {
          "internalType": "uint256",
          "name": "classId",
          "type": "uint256"
        }
      ],
      "name": "classFull",
      "outputs": [
        {
          "internalType": "bool",
          "name": "",
          "type": "bool"
        }
      ],
      "stateMutability": "view",
      "type": "function"
    },
    {
      "inputs": [
        {
          "internalType": "uint256",
          "name": "",
          "type": "uint256"
        },
        {
          "internalType": "uint256",
          "name": "",
          "type": "uint256"
        }
      ],
      "name": "classMajorRestrictions",
      "outputs": [
        {
          "internalType": "address",
          "name": "",
          "type": "address"
        }
      ],
      "stateMutability": "view",
      "type": "function"
    },
    {
      "inputs": [
        {
          "internalType": "address",
          "name": "account",
          "type": "address"
        },
        {
          "internalType": "uint256",
          "name": "classId",
          "type": "uint256"
        }
      ],
      "name": "classRegistered",
      "outputs": [
        {
          "internalType": "bool",
          "name": "",
          "type": "bool"
        }
      ],
      "stateMutability": "view",
      "type": "function"
    },
    {
      "inputs": [
        {
          "internalType": "uint256",
          "name": "",
          "type": "uint256"
        }
      ],
      "name": "classes",
      "outputs": [
        {
          "internalType": "bytes32",
          "name": "courseId",
          "type": "bytes32"
        },
        {
          "internalType": "uint256",
          "name": "classId",
          "type": "uint256"
        },
        {
          "internalType": "uint256",
          "name": "currentlyEnrolled",
          "type": "uint256"
        },
        {
          "internalType": "uint256",
          "name": "enrollCapacity",
          "type": "uint256"
        },
        {
          "internalType": "uint256",
          "name": "credits",
          "type": "uint256"
        },
        {
          "internalType": "bytes30",
          "name": "weekdayTime",
          "type": "bytes30"
        },
        {
          "internalType": "bytes12",
          "name": "weekendTime",
          "type": "bytes12"
        },
        {
          "internalType": "bytes20",
          "name": "sectionType",
          "type": "bytes20"
        },
        {
          "internalType": "string",
          "name": "creditType",
          "type": "string"
        },
        {
          "internalType": "string",
          "name": "courseName",
          "type": "string"
        },
        {
          "internalType": "bytes",
          "name": "data",
          "type": "bytes"
        }
      ],
      "stateMutability": "view",
      "type": "function"
    },
    {
      "inputs": [
        {
          "internalType": "bytes32",
          "name": "",
          "type": "bytes32"
        },
        {
          "internalType": "uint256",
          "name": "",
          "type": "uint256"
        },
        {
          "internalType": "uint256",
          "name": "",
          "type": "uint256"
        }
      ],
      "name": "coursePrerequisites",
      "outputs": [
        {
          "internalType": "bytes32",
          "name": "",
          "type": "bytes32"
        }
      ],
      "stateMutability": "view",
      "type": "function"
    },
    {
      "inputs": [
        {
          "internalType": "bytes32",
          "name": "",
          "type": "bytes32"
        }
      ],
      "name": "courseSectionRequirements",
      "outputs": [
        {
          "internalType": "uint8",
          "name": "",
          "type": "uint8"
        }
      ],
      "stateMutability": "view",
      "type": "function"
    },
    {
      "inputs": [],
      "name": "currentSupply",
      "outputs": [
        {
          "internalType": "uint256",
          "name": "",
          "type": "uint256"
        }
      ],
      "stateMutability": "view",
      "type": "function"
    },
    {
      "inputs": [
        {
          "internalType": "uint256",
          "name": "classId",
          "type": "uint256"
        }
      ],
      "name": "dropClass",
      "outputs": [],
      "stateMutability": "nonpayable",
      "type": "function"
    },
    {
      "inputs": [
        {
          "internalType": "uint256[]",
          "name": "classIds",
          "type": "uint256[]"
        }
      ],
      "name": "dropCourse",
      "outputs": [],
      "stateMutability": "nonpayable",
      "type": "function"
    },
    {
      "inputs": [],
      "name": "endQuarter",
      "outputs": [],
      "stateMutability": "nonpayable",
      "type": "function"
    },
    {
      "inputs": [
        {
          "internalType": "address",
          "name": "account",
          "type": "address"
        },
        {
          "internalType": "uint256",
          "name": "classId",
          "type": "uint256"
        }
      ],
      "name": "exceedsMaxCredit",
      "outputs": [
        {
          "internalType": "bool",
          "name": "",
          "type": "bool"
        }
      ],
      "stateMutability": "view",
      "type": "function"
    },
    {
      "inputs": [
        {
          "internalType": "address",
          "name": "account",
          "type": "address"
        },
        {
          "internalType": "uint256",
          "name": "classId",
          "type": "uint256"
        }
      ],
      "name": "hasTimeConflict",
      "outputs": [
        {
          "internalType": "bool",
          "name": "",
          "type": "bool"
        }
      ],
      "stateMutability": "view",
      "type": "function"
    },
    {
      "inputs": [
        {
          "internalType": "address",
          "name": "account",
          "type": "address"
        },
        {
          "internalType": "address",
          "name": "operator",
          "type": "address"
        }
      ],
      "name": "isApprovedForAll",
      "outputs": [
        {
          "internalType": "bool",
          "name": "",
          "type": "bool"
        }
      ],
      "stateMutability": "view",
      "type": "function"
    },
    {
      "inputs": [
        {
          "internalType": "address",
          "name": "account",
          "type": "address"
        }
      ],
      "name": "isRegistrationPeriod",
      "outputs": [
        {
          "internalType": "bool",
          "name": "",
          "type": "bool"
        }
      ],
      "stateMutability": "view",
      "type": "function"
    },
    {
      "inputs": [
        {
          "internalType": "address",
          "name": "to",
          "type": "address"
        }
      ],
      "name": "isUWAccount",
      "outputs": [
        {
          "internalType": "bool",
          "name": "",
          "type": "bool"
        }
      ],
      "stateMutability": "view",
      "type": "function"
    },
    {
      "inputs": [
        {
          "internalType": "address",
          "name": "account",
          "type": "address"
        },
        {
          "internalType": "uint256",
          "name": "classId",
          "type": "uint256"
        }
      ],
      "name": "majorRestriction",
      "outputs": [
        {
          "internalType": "bool",
          "name": "",
          "type": "bool"
        }
      ],
      "stateMutability": "view",
      "type": "function"
    },
    {
      "inputs": [],
      "name": "maxAllowedCredits",
      "outputs": [
        {
          "internalType": "uint256",
          "name": "",
          "type": "uint256"
        }
      ],
      "stateMutability": "view",
      "type": "function"
    },
    {
      "inputs": [
        {
          "internalType": "address",
          "name": "account",
          "type": "address"
        },
        {
          "internalType": "uint256",
          "name": "classId",
          "type": "uint256"
        }
      ],
      "name": "meetsPrerequisite",
      "outputs": [
        {
          "internalType": "bool",
          "name": "",
          "type": "bool"
        }
      ],
      "stateMutability": "view",
      "type": "function"
    },
    {
      "inputs": [
        {
          "internalType": "address",
          "name": "account",
          "type": "address"
        }
      ],
      "name": "numberOfClasses",
      "outputs": [
        {
          "internalType": "uint256",
          "name": "",
          "type": "uint256"
        }
      ],
      "stateMutability": "view",
      "type": "function"
    },
    {
      "inputs": [],
      "name": "owner",
      "outputs": [
        {
          "internalType": "address",
          "name": "",
          "type": "address"
        }
      ],
      "stateMutability": "view",
      "type": "function"
    },
    {
      "inputs": [],
      "name": "quarterEnd",
      "outputs": [
        {
          "internalType": "bool",
          "name": "",
          "type": "bool"
        }
      ],
      "stateMutability": "view",
      "type": "function"
    },
    {
      "inputs": [],
      "name": "quarterName",
      "outputs": [
        {
          "internalType": "string",
          "name": "",
          "type": "string"
        }
      ],
      "stateMutability": "view",
      "type": "function"
    },
    {
      "inputs": [
        {
          "internalType": "uint256",
          "name": "classId",
          "type": "uint256"
        }
      ],
      "name": "registerClass",
      "outputs": [],
      "stateMutability": "nonpayable",
      "type": "function"
    },
    {
      "inputs": [
        {
          "internalType": "uint256[]",
          "name": "classIds",
          "type": "uint256[]"
        }
      ],
      "name": "registerCourse",
      "outputs": [],
      "stateMutability": "nonpayable",
      "type": "function"
    },
    {
      "inputs": [
        {
          "internalType": "uint256[]",
          "name": "classIds",
          "type": "uint256[]"
        }
      ],
      "name": "registerMultipleClasses",
      "outputs": [],
      "stateMutability": "nonpayable",
      "type": "function"
    },
    {
      "inputs": [
        {
          "internalType": "uint256",
          "name": "",
          "type": "uint256"
        }
      ],
      "name": "registrationPeriods",
      "outputs": [
        {
          "internalType": "uint256",
          "name": "",
          "type": "uint256"
        }
      ],
      "stateMutability": "view",
      "type": "function"
    },
    {
      "inputs": [
        {
          "internalType": "uint256",
          "name": "classId",
          "type": "uint256"
        },
        {
          "internalType": "address",
          "name": "majorAddress",
          "type": "address"
        }
      ],
      "name": "removeMajorRestriction",
      "outputs": [],
      "stateMutability": "nonpayable",
      "type": "function"
    },
    {
      "inputs": [
        {
          "internalType": "uint256",
          "name": "classId",
          "type": "uint256"
        },
        {
          "internalType": "uint256",
          "name": "index",
          "type": "uint256"
        }
      ],
      "name": "removePrerequisite",
      "outputs": [],
      "stateMutability": "nonpayable",
      "type": "function"
    },
    {
      "inputs": [],
      "name": "renounceOwnership",
      "outputs": [],
      "stateMutability": "nonpayable",
      "type": "function"
    },
    {
      "inputs": [
        {
          "internalType": "address",
          "name": "from",
          "type": "address"
        },
        {
          "internalType": "address",
          "name": "to",
          "type": "address"
        },
        {
          "internalType": "uint256[]",
          "name": "ids",
          "type": "uint256[]"
        },
        {
          "internalType": "uint256[]",
          "name": "amounts",
          "type": "uint256[]"
        },
        {
          "internalType": "bytes",
          "name": "data",
          "type": "bytes"
        }
      ],
      "name": "safeBatchTransferFrom",
      "outputs": [],
      "stateMutability": "nonpayable",
      "type": "function"
    },
    {
      "inputs": [
        {
          "internalType": "address",
          "name": "from",
          "type": "address"
        },
        {
          "internalType": "address",
          "name": "to",
          "type": "address"
        },
        {
          "internalType": "uint256",
          "name": "id",
          "type": "uint256"
        },
        {
          "internalType": "uint256",
          "name": "amount",
          "type": "uint256"
        },
        {
          "internalType": "bytes",
          "name": "data",
          "type": "bytes"
        }
      ],
      "name": "safeTransferFrom",
      "outputs": [],
      "stateMutability": "nonpayable",
      "type": "function"
    },
    {
      "inputs": [
        {
          "internalType": "address",
          "name": "operator",
          "type": "address"
        },
        {
          "internalType": "bool",
          "name": "approved",
          "type": "bool"
        }
      ],
      "name": "setApprovalForAll",
      "outputs": [],
      "stateMutability": "nonpayable",
      "type": "function"
    },
    {
      "inputs": [
        {
          "internalType": "string",
          "name": "courseName",
          "type": "string"
        },
        {
          "internalType": "uint8",
          "name": "sectionRequirements",
          "type": "uint8"
        }
      ],
      "name": "setCourseSectionRequirements",
      "outputs": [],
      "stateMutability": "nonpayable",
      "type": "function"
    },
    {
      "inputs": [
        {
          "internalType": "uint256",
          "name": "classId",
          "type": "uint256"
        },
        {
          "internalType": "address",
          "name": "majorAddress",
          "type": "address"
        }
      ],
      "name": "setMajorRestriction",
      "outputs": [],
      "stateMutability": "nonpayable",
      "type": "function"
    },
    {
      "inputs": [
        {
          "internalType": "uint256",
          "name": "classId",
          "type": "uint256"
        },
        {
          "internalType": "string[]",
          "name": "courseList",
          "type": "string[]"
        }
      ],
      "name": "setPrerequisite",
      "outputs": [],
      "stateMutability": "nonpayable",
      "type": "function"
    },
    {
      "inputs": [
        {
          "internalType": "uint256",
          "name": "period1",
          "type": "uint256"
        },
        {
          "internalType": "uint256",
          "name": "period2",
          "type": "uint256"
        },
        {
          "internalType": "uint256",
          "name": "period3",
          "type": "uint256"
        }
      ],
      "name": "setRegistrationPeriod",
      "outputs": [],
      "stateMutability": "nonpayable",
      "type": "function"
    },
    {
      "inputs": [
        {
          "internalType": "bytes4",
          "name": "interfaceId",
          "type": "bytes4"
        }
      ],
      "name": "supportsInterface",
      "outputs": [
        {
          "internalType": "bool",
          "name": "",
          "type": "bool"
        }
      ],
      "stateMutability": "view",
      "type": "function"
    },
    {
      "inputs": [
        {
          "internalType": "address",
          "name": "newOwner",
          "type": "address"
        }
      ],
      "name": "transferOwnership",
      "outputs": [],
      "stateMutability": "nonpayable",
      "type": "function"
    },
    {
      "inputs": [
        {
          "internalType": "string",
          "name": "baseURI",
          "type": "string"
        }
      ],
      "name": "updateBaseURI",
      "outputs": [],
      "stateMutability": "nonpayable",
      "type": "function"
    },
    {
      "inputs": [
        {
          "internalType": "uint256",
          "name": "tokenId",
          "type": "uint256"
        },
        {
          "internalType": "string",
          "name": "tokenURI",
          "type": "string"
        }
      ],
      "name": "updateClassURI",
      "outputs": [],
      "stateMutability": "nonpayable",
      "type": "function"
    },
    {
      "inputs": [
        {
          "internalType": "uint256",
          "name": "tokenId",
          "type": "uint256"
        }
      ],
      "name": "uri",
      "outputs": [
        {
          "internalType": "string",
          "name": "",
          "type": "string"
        }
      ],
      "stateMutability": "view",
      "type": "function"
    }
  ],
  "transactionHash": "0x2f2cd50acae70cba0747ff0ec6f9378d05b8f6535b27b5510dd1ccb8d9910d8c",
  "args": [],
  "numDeployments": 1,
  "solcInputHash": "f2a9cb5ba49bff57e76b682873f16e16",
  "bytecode": "0x6080604052601460fd5534801561001557600080fd5b50614995806100256000396000f3fe608060405234801561001057600080fd5b50600436106103985760003560e01c8063817dbe9f116101e9578063d3fb06a01161010f578063ef1ba8e1116100ad578063f2fde38b1161007c578063f2fde38b1461090e578063f703701914610921578063f990063514610934578063fbca6abc1461094757600080fd5b8063ef1ba8e1146108c2578063f016c6c5146108d5578063f12e5291146108e8578063f242432a146108fb57600080fd5b8063e5caecb3116100e9578063e5caecb314610823578063e985e9c514610860578063eaca6dbf1461089c578063edc13f64146108af57600080fd5b8063d3fb06a0146107cf578063d7105abf146107d8578063e3c0293d1461081057600080fd5b8063a22cb46511610187578063bc5cbfdf11610156578063bc5cbfdf14610769578063ca5fe0a614610796578063cf0a757f146107a9578063d3f6b50f146107bc57600080fd5b8063a22cb465146106fa578063a366dc171461070d578063a43b2cbe14610743578063ba677ca01461075657600080fd5b80638f74e7e2116101c35780638f74e7e2146106b5578063931688cb146106c85780639462ba1d146106db5780639b4d7701146106e757600080fd5b8063817dbe9f146106675780638da5cb5b146106915780638ec29e55146106a257600080fd5b806338e7d5d5116102ce578063559264721161026c57806361af1c6f1161023b57806361af1c6f1461062f578063715018a614610642578063771282f61461064a578063817bbf351461065457600080fd5b806355926472146105cb57806356e2d00e146105de5780635bf567f3146106095780635d003bd41461061c57600080fd5b806348caf4be116102a857806348caf4be1461056f5780634bff67e8146105905780634e1273f4146105a35780635328c0e2146105c357600080fd5b806338e7d5d5146105365780633cb8504b14610549578063466129eb1461055c57600080fd5b806323eef3621161033b5780632a818af3116103155780632a818af3146104c05780632b201678146104c85780632eb2c2d61461051057806336505a2d1461052357600080fd5b806323eef3621461048757806326fd482e1461049a57806329e6a406146104ad57600080fd5b80630e89341c116103775780630e89341c146103f95780631116e83814610419578063195309af146104435780631d7989591461045857600080fd5b8062fdd58e1461039d57806301c23c97146103c357806301ffc9a7146103e6575b600080fd5b6103b06103ab3660046138f1565b61095a565b6040519081526020015b60405180910390f35b6103d66103d13660046138f1565b6109f5565b60405190151581526020016103ba565b6103d66103f4366004613931565b610a95565b61040c61040736600461394e565b610ae5565b6040516103ba91906139b7565b6103b06104273660046139ca565b6001600160a01b03166000908152610105602052604090205490565b610456610451366004613a9a565b610af0565b005b6103d66104663660046138f1565b61010660209081526000928352604080842090915290825290205460ff1681565b610456610495366004613ae0565b610b06565b6103d66104a83660046139ca565b610c35565b6104566104bb366004613b60565b610cac565b61040c610da4565b6104f76104d63660046138f1565b61010960209081526000928352604080842090915290825290205460601b81565b6040516001600160601b031990911681526020016103ba565b61045661051e366004613c98565b610e32565b6103d66105313660046138f1565b610e7e565b6103b06105443660046138f1565b610eb7565b6103d6610557366004613d41565b610ee9565b6103d661056a3660046138f1565b610ef8565b6103b061057d3660046139ca565b6101046020526000908152604090205481565b61045661059e366004613d78565b610f0d565b6105b66105b1366004613db4565b610f93565b6040516103ba9190613eaf565b6104566110bc565b6104566105d9366004613d78565b6110d3565b6105f16105ec366004613ec2565b611105565b6040516001600160a01b0390911681526020016103ba565b610456610617366004613ee4565b61113e565b61045661062a366004613d78565b6111c6565b6103b061063d366004613ee4565b611296565b6104566112e1565b6103b061010b5481565b60fc546105f1906001600160a01b031681565b61067a61067536600461394e565b6112f5565b6040516103ba9b9a99989796959493929190613f10565b6033546001600160a01b03166105f1565b60fb546105f1906001600160a01b031681565b6103d66106c33660046138f1565b6114f7565b6104566106d6366004613fb6565b611579565b60ff80546103d6911681565b6104566106f5366004613ffb565b61158d565b610456610708366004614056565b6115ce565b61073161071b36600461394e565b6101036020526000908152604090205460ff1681565b60405160ff90911681526020016103ba565b61045661075136600461394e565b6115d9565b6103d66107643660046138f1565b611628565b6103d661077736600461394e565b6000908152610100602052604090206003810154600290910154101590565b6103b06107a436600461394e565b611723565b6104566107b736600461408d565b611745565b6103d66107ca3660046139ca565b6117ab565b6103b060fd5481565b6107fc6107e63660046139ca565b6101076020526000908152604090205460101b81565b60405161ffff1990911681526020016103ba565b61045661081e36600461394e565b6119e2565b6108476108313660046139ca565b6101086020526000908152604090205460a01b81565b6040516001600160a01b031990911681526020016103ba565b6103d661086e3660046140b0565b6001600160a01b03918216600090815260986020908152604080832093909416825291909152205460ff1690565b6104566108aa366004613ec2565b6119ef565b6103d66108bd3660046138f1565b611af5565b6104566108d036600461408d565b611b38565b6103d66108e3366004613d41565b611cad565b6103d66108f63660046138f1565b611cbc565b6104566109093660046140da565b611d64565b61045661091c3660046139ca565b611da9565b61045661092f36600461394e565b611e1f565b61045661094236600461416e565b611e6e565b6103d66109553660046138f1565b611f5f565b60006001600160a01b0383166109ca5760405162461bcd60e51b815260206004820152602a60248201527f455243313135353a2061646472657373207a65726f206973206e6f742061207660448201526930b634b21037bbb732b960b11b60648201526084015b60405180910390fd5b5060008181526097602090815260408083206001600160a01b03861684529091529020545b92915050565b60ff805460009116158015610a115750610a0f8383611af5565b155b8015610a245750610a228383611628565b155b8015610a4757506000828152610100602052604090206003810154600290910154105b8015610a5a5750610a588383610ef8565b155b8015610a6a5750610a6a836117ab565b8015610a7d5750610a7b83836114f7565b155b8015610a8e5750610a8e8383611f5f565b9392505050565b60006001600160e01b03198216636cdb3d1360e11b1480610ac657506001600160e01b031982166303a24d0760e21b145b806109ef57506301ffc9a760e01b6001600160e01b03198316146109ef565b60606109ef826120e8565b610af86121c7565b610b028282612221565b5050565b600054610100900460ff1615808015610b265750600054600160ff909116105b80610b405750303b158015610b40575060005460ff166001145b610ba35760405162461bcd60e51b815260206004820152602e60248201527f496e697469616c697a61626c653a20636f6e747261637420697320616c72656160448201526d191e481a5b9a5d1a585b1a5e995960921b60648201526084016109c1565b6000805460ff191660011790558015610bc6576000805461ff0019166101001790555b610bde6040518060200160405280600081525061227e565b610be98484846122ae565b8015610c2f576000805461ff0019169055604051600181527f7f26b83ff96e1f2b6a682f133852f6798a09c465da95921460cefb38474024989060200160405180910390a15b50505050565b60fb546040516370a0823160e01b81526001600160a01b03838116600483015260009216906370a0823190602401602060405180830381865afa158015610c80573d6000803e3d6000fd5b505050506040513d601f19601f82011682018060405250810190610ca4919061423b565b151592915050565b610cb46121c7565b6000828152610100602052604081205482519091906001600160401b03811115610ce057610ce06139e5565b604051908082528060200260200182016040528015610d09578160200160208202803683370190505b50905060005b8351811015610d6957610d3a848281518110610d2d57610d2d614254565b6020026020010151612365565b828281518110610d4c57610d4c614254565b602090810291909101015280610d6181614280565b915050610d0f565b60008381526101026020908152604082208054600181018255908352918190208451610d9c93919091019185019061381b565b505050505050565b60fe8054610db190614299565b80601f0160208091040260200160405190810160405280929190818152602001828054610ddd90614299565b8015610e2a5780601f10610dff57610100808354040283529160200191610e2a565b820191906000526020600020905b815481529060010190602001808311610e0d57829003601f168201915b505050505081565b6001600160a01b038516331480610e4e5750610e4e853361086e565b610e6a5760405162461bcd60e51b81526004016109c1906142cd565b610e778585858585612395565b5050505050565b6001600160a01b03821660009081526101096020908152604080832084845290915290205460601b6001600160601b0319161592915050565b6101056020528160005260406000208181548110610ed457600080fd5b90600052602060002001600091509150505481565b6000610a8e836108f684612365565b6000610f04838361095a565b15159392505050565b33328114610f1a57600080fd5b610f2381610c35565b610f3f5760405162461bcd60e51b81526004016109c19061431b565b6000805b8351811015610c2f57838181518110610f5e57610f5e614254565b60200260200101519150610f7233836109f5565b15610f8157610f813383612548565b610f8c600182614352565b9050610f43565b60608151835114610ff85760405162461bcd60e51b815260206004820152602960248201527f455243313135353a206163636f756e747320616e6420696473206c656e677468604482015268040dad2e6dac2e8c6d60bb1b60648201526084016109c1565b600083516001600160401b03811115611013576110136139e5565b60405190808252806020026020018201604052801561103c578160200160208202803683370190505b50905060005b84518110156110b45761108785828151811061106057611060614254565b602002602001015185838151811061107a5761107a614254565b602002602001015161095a565b82828151811061109957611099614254565b60209081029190910101526110ad81614280565b9050611042565b509392505050565b6110c46121c7565b60ff805460ff19166001179055565b333281146110e057600080fd5b6110e981610c35565b610b025760405162461bcd60e51b81526004016109c19061431b565b610101602052816000526040600020818154811061112257600080fd5b6000918252602090912001546001600160a01b03169150829050565b6111466121c7565b61010a546003111561115757600080fd5b8261010a60008154811061116d5761116d614254565b90600052602060002001819055508161010a60018154811061119157611191614254565b90600052602060002001819055508061010a6002815481106111b5576111b5614254565b600091825260209091200155505050565b333281146111d357600080fd5b6111dc81610c35565b6111f85760405162461bcd60e51b81526004016109c19061431b565b60008083516001600160401b03811115611214576112146139e5565b60405190808252806020026020018201604052801561123d578160200160208202803683370190505b5090505b835182101561127b57600181838151811061125e5761125e614254565b6020908102919091010152611274600183614352565b9150611241565b610c2f33858360405180602001604052806000815250612564565b61010260205282600052604060002082815481106112b357600080fd5b9060005260206000200181815481106112cb57600080fd5b9060005260206000200160009250925050505481565b6112e96121c7565b6112f360006126ce565b565b61010060205260009081526040902080546001820154600283015460038401546004850154600586015460068701546007880180549798969795969495939460109390931b9360a083901b93600160601b90930460601b92919061135890614299565b80601f016020809104026020016040519081016040528092919081815260200182805461138490614299565b80156113d15780601f106113a6576101008083540402835291602001916113d1565b820191906000526020600020905b8154815290600101906020018083116113b457829003601f168201915b5050505050908060080180546113e690614299565b80601f016020809104026020016040519081016040528092919081815260200182805461141290614299565b801561145f5780601f106114345761010080835404028352916020019161145f565b820191906000526020600020905b81548152906001019060200180831161144257829003601f168201915b50505050509080600901805461147490614299565b80601f01602080910402602001604051908101604052809291908181526020018280546114a090614299565b80156114ed5780601f106114c2576101008083540402835291602001916114ed565b820191906000526020600020905b8154815290600101906020018083116114d057829003601f168201915b505050505090508b565b60008181526101006020908152604080832060058101546006909101546001600160a01b038716855261010790935290832054601091821b9260a01b911b821661ffff191615158061157057506001600160a01b0385166000908152610108602052604090205460a01b81166001600160a01b03191615155b95945050505050565b6115816121c7565b61158a81612720565b50565b6115956121c7565b8061010360006115a485612365565b815260200190815260200160002060006101000a81548160ff021916908360ff1602179055505050565b610b0233838361272c565b333281146115e657600080fd5b6115ef81610c35565b61160b5760405162461bcd60e51b81526004016109c19061431b565b61161533836109f5565b61161e57600080fd5b610b023383612548565b600081815261010160205260408120548103611646575060006109ef565b60005b600083815261010160205260409020548110156117195760008381526101016020526040902080548290811061168157611681614254565b6000918252602090912001546040516370a0823160e01b81526001600160a01b038681166004830152909116906370a0823190602401602060405180830381865afa1580156116d4573d6000803e3d6000fd5b505050506040513d601f19601f820116820180604052508101906116f8919061423b565b156117075760009150506109ef565b611712600182614352565b9050611649565b5060019392505050565b61010a818154811061173457600080fd5b600091825260209091200154905081565b61174d6121c7565b60008281526101006020526040812060010154900361176b57600080fd5b60009182526101016020908152604083208054600181018255908452922090910180546001600160a01b0319166001600160a01b03909216919091179055565b60fb54604051630861b4bd60e41b81526001600160a01b038381166004830152600092839291169063861b4bd090602401602060405180830381865afa1580156117f9573d6000803e3d6000fd5b505050506040513d601f19601f8201168201806040525081019061181d919061423b565b60fb546040516301b50e1160e11b815260048101839052919250602d916001600160a01b039091169063036a1c2290602401602060405180830381865afa15801561186c573d6000803e3d6000fd5b505050506040513d601f19601f82011682018060405250810190611890919061423b565b10156118c15761010a6002815481106118ab576118ab614254565b9060005260206000200154421015915050919050565b60fb546040516301b50e1160e11b815260048101839052605a916001600160a01b03169063036a1c2290602401602060405180830381865afa15801561190b573d6000803e3d6000fd5b505050506040513d601f19601f8201168201806040525081019061192f919061423b565b101561194a5761010a6001815481106118ab576118ab614254565b60fb546040516301b50e1160e11b8152600481018390526087916001600160a01b03169063036a1c2290602401602060405180830381865afa158015611994573d6000803e3d6000fd5b505050506040513d601f19601f820116820180604052508101906119b8919061423b565b10156119d35761010a6000815481106118ab576118ab614254565b50600192915050565b50919050565b6119ea6121c7565b60fd55565b6119f76121c7565b60008281526101006020908152604080832054808452610102909252909120805483908110611a2857611a28614254565b6000918252602090912001548210611a3f57600080fd5b6000818152610102602052604090208054611a5c90600190614365565b81548110611a6c57611a6c614254565b9060005260206000200161010260008381526020019081526020016000208381548110611a9b57611a9b614254565b90600052602060002001908054611ab3929190613866565b50600081815261010260205260409020805480611ad257611ad2614378565b600190038181906000526020600020016000611aee91906138a6565b9055505050565b60fd54600082815261010060209081526040808320600401546001600160a01b0387168452610104909252822054919291611b309190614352565b119392505050565b611b406121c7565b600082815261010060205260408120600101549003611b5e57600080fd5b60005b60008381526101016020526040902054811015611ca85760008381526101016020526040902080546001600160a01b038416919083908110611ba557611ba5614254565b6000918252602090912001546001600160a01b031603611c96576000838152610101602052604090208054611bdc90600190614365565b81548110611bec57611bec614254565b6000918252602080832090910154858352610101909152604090912080546001600160a01b039092169183908110611c2657611c26614254565b600091825260208083209190910180546001600160a01b0319166001600160a01b03949094169390931790925584815261010190915260409020805480611c6f57611c6f614378565b600082815260209020810160001990810180546001600160a01b0319169055019055505050565b611ca1600182614352565b9050611b61565b505050565b6000610a8e8361053184612365565b6000818152610103602052604081205460ff16816001611cdd836002614472565b611ce79190614365565b60601b90505b6001600160601b0319811615611d59576001600160a01b0385166000908152610109602090815260408083208784529091529020546001600160601b031980831660609290921b1603611d45576001925050506109ef565b6001600160601b03191660ff82161b611ced565b506000949350505050565b6001600160a01b038516331480611d805750611d80853361086e565b611d9c5760405162461bcd60e51b81526004016109c1906142cd565b610e77858585858561280c565b611db16121c7565b6001600160a01b038116611e165760405162461bcd60e51b815260206004820152602660248201527f4f776e61626c653a206e6577206f776e657220697320746865207a65726f206160448201526564647265737360d01b60648201526084016109c1565b61158a816126ce565b33328114611e2c57600080fd5b611e3581610c35565b611e515760405162461bcd60e51b81526004016109c19061431b565b611e5b3383610ef8565b611e6457600080fd5b610b023383612956565b611e766121c7565b6000898152610100602052604090206001015415611e9357600080fd5b611e9c88612365565b60008a815261010060205260409020908155600181018a9055600801611ec289826144c7565b506000898152610100602052604090206003810188905560048101879055600701611eed86826144c7565b50600098895261010060209081526040808b2060058101805460109890981c6001600160f01b03199098169790971790965560609290921c600160601b0260a09390931c9290921760068501559254885261010390529520805460ff90961660ff199096169590951790945550505050565b600081815261010060205260408120548190819081905b600081815261010260205260409020548310156120db5760019350600091505b600081815261010260205260409020805484908110611fb757611fb7614254565b6000918252602090912001548310156120b65760fc5460008281526101026020526040902080546001600160a01b03909216916361182d15918a918790811061200257612002614254565b90600052602060002001858154811061201d5761201d614254565b6000918252602090912001546040516001600160e01b031960e085901b1681526001600160a01b0390921660048301526024820152604401602060405180830381865afa158015612072573d6000803e3d6000fd5b505050506040513d601f19601f820116820180604052508101906120969190614586565b156120a457600093506120b6565b826120ae81614280565b935050611f96565b83156120c95760019450505050506109ef565b826120d381614280565b935050611f76565b5060009695505050505050565b600081815260ca602052604081208054606092919061210690614299565b80601f016020809104026020016040519081016040528092919081815260200182805461213290614299565b801561217f5780601f106121545761010080835404028352916020019161217f565b820191906000526020600020905b81548152906001019060200180831161216257829003601f168201915b50505050509050600081511161219d5761219883612962565b610a8e565b60c9816040516020016121b19291906145a3565b6040516020818303038152906040529392505050565b6033546001600160a01b031633146112f35760405162461bcd60e51b815260206004820181905260248201527f4f776e61626c653a2063616c6c6572206973206e6f7420746865206f776e657260448201526064016109c1565b600082815260ca6020526040902061223982826144c7565b50817f6bb7ff708619ba0610cba295a58592e0451dee2622938c8755667688daf3529b61226584610ae5565b60405161227291906139b7565b60405180910390a25050565b600054610100900460ff166122a55760405162461bcd60e51b81526004016109c19061462a565b61158a816129f6565b600054610100900460ff166122d55760405162461bcd60e51b81526004016109c19061462a565b60fb80546001600160a01b038086166001600160a01b03199283161790925560fc80549285169290911691909117905560fe61231182826144c7565b505061010a80546001818101835560008381527fc588bd85af64879c0999911852d2549e38c750e7e4e194eb8891b0913e93b12c928301819055835480830185558301819055835491820190935501555050565b60008160405160200161237891906139b7565b604051602081830303815290604052805190602001209050919050565b81518351146123b65760405162461bcd60e51b81526004016109c190614675565b6001600160a01b0384166123dc5760405162461bcd60e51b81526004016109c1906146bd565b336123eb818787878787612a26565b60005b84518110156124d457600085828151811061240b5761240b614254565b60200260200101519050600085838151811061242957612429614254565b60209081029190910181015160008481526097835260408082206001600160a01b038e16835290935291909120549091508181101561247a5760405162461bcd60e51b81526004016109c190614702565b60008381526097602090815260408083206001600160a01b038e8116855292528083208585039055908b168252812080548492906124b9908490614352565b92505081905550505050806124cd90614280565b90506123ee565b50846001600160a01b0316866001600160a01b0316826001600160a01b03167f4a39dc06d4c0dbc64b70af90fd698a233a518aa5d07e595d983b8c0526c8f7fb878760405161252492919061474c565b60405180910390a461253a818787878787612a96565b610d9c81878787878761331f565b610b02828260016040518060200160405280600081525061347a565b6001600160a01b03841661258a5760405162461bcd60e51b81526004016109c190614771565b81518351146125ab5760405162461bcd60e51b81526004016109c190614675565b336125bb81600087878787612a26565b60005b8451811015612657578381815181106125d9576125d9614254565b6020026020010151609760008784815181106125f7576125f7614254565b602002602001015181526020019081526020016000206000886001600160a01b03166001600160a01b03168152602001908152602001600020600082825461263f9190614352565b9091555081905061264f81614280565b9150506125be565b50846001600160a01b031660006001600160a01b0316826001600160a01b03167f4a39dc06d4c0dbc64b70af90fd698a233a518aa5d07e595d983b8c0526c8f7fb87876040516126a892919061474c565b60405180910390a46126bf81600087878787612a96565b610e778160008787878761331f565b603380546001600160a01b038381166001600160a01b0319831681179093556040519116919082907f8be0079c531659141344cd1fd0a4f28419497f9722a3daafe3b4186f6b6457e090600090a35050565b60c9610b0282826144c7565b816001600160a01b0316836001600160a01b03160361279f5760405162461bcd60e51b815260206004820152602960248201527f455243313135353a2073657474696e6720617070726f76616c20737461747573604482015268103337b91039b2b63360b91b60648201526084016109c1565b6001600160a01b03838116600081815260986020908152604080832094871680845294825291829020805460ff191686151590811790915591519182527f17307eab39ab6107e8899845ad3d59bd9653f200f220920489ca2b5937696c31910160405180910390a3505050565b6001600160a01b0384166128325760405162461bcd60e51b81526004016109c1906146bd565b33600061283e8561356b565b9050600061284b8561356b565b905061285b838989858589612a26565b60008681526097602090815260408083206001600160a01b038c1684529091529020548581101561289e5760405162461bcd60e51b81526004016109c190614702565b60008781526097602090815260408083206001600160a01b038d8116855292528083208985039055908a168252812080548892906128dd908490614352565b909155505060408051888152602081018890526001600160a01b03808b16928c821692918816917fc3d58168c5ae7397731d063d5bbf3d657854427343f4c083240f7aacaa2d0f62910160405180910390a461293d848a8a86868a612a96565b61294b848a8a8a8a8a6135b6565b505050505050505050565b610b0282826001613671565b60606099805461297190614299565b80601f016020809104026020016040519081016040528092919081815260200182805461299d90614299565b80156129ea5780601f106129bf576101008083540402835291602001916129ea565b820191906000526020600020905b8154815290600101906020018083116129cd57829003601f168201915b50505050509050919050565b600054610100900460ff16612a1d5760405162461bcd60e51b81526004016109c19061462a565b61158a8161380f565b60005b8351811015612a8d576001600160a01b03851615612a7b57612a4a85610c35565b15612a7b57612a7285858381518110612a6557612a65614254565b60200260200101516109f5565b612a7b57600080fd5b612a86600182614352565b9050612a29565b50505050505050565b60008080805b865184101561325d576101006000888681518110612abc57612abc614254565b6020026020010151815260200190815260200160002060050160009054906101000a900460101b91506101006000888681518110612afc57612afc614254565b60209081029190910181015182528101919091526040016000206006015460a01b90506001600160a01b03881615612d6e576101006000888681518110612b4557612b45614254565b602002602001015181526020019081526020016000206004015461010460008a6001600160a01b03166001600160a01b031681526020019081526020016000206000828254612b949190614352565b90915550506001600160a01b0388166000908152610107602090815260408083208054601081811b8817901c6001600160f01b031990911617905561010690915281208851600192906101009082908c908a908110612bf557612bf5614254565b6020026020010151815260200190815260200160002060000154815260200190815260200160002060006101000a81548160ff0219169083151502179055506101006000888681518110612c4b57612c4b614254565b60200260200101518152602001908152602001600020600601600c9054906101000a900460601b61010960008a6001600160a01b03166001600160a01b03168152602001908152602001600020600061010060008b8981518110612cb157612cb1614254565b6020026020010151815260200190815260200160002060000154815260200190815260200160002060009054906101000a900460601b1761010960008a6001600160a01b03166001600160a01b03168152602001908152602001600020600061010060008b8981518110612d2757612d27614254565b6020026020010151815260200190815260200160002060000154815260200190815260200160002060006101000a8154816001600160a01b03021916908360601c02179055505b6001600160a01b03891615612fbd576101006000888681518110612d9457612d94614254565b602002602001015181526020019081526020016000206004015461010460008b6001600160a01b03166001600160a01b031681526020019081526020016000206000828254612de39190614365565b90915550506001600160a01b038916600090815261010860209081526040808320805460a081811b871916901c6001600160601b03199091161790556101069091528120885182906101009082908c908a908110612e4357612e43614254565b6020026020010151815260200190815260200160002060000154815260200190815260200160002060006101000a81548160ff0219169083151502179055506101006000888681518110612e9957612e99614254565b60200260200101518152602001908152602001600020600601600c9054906101000a900460601b1961010960008a6001600160a01b03166001600160a01b03168152602001908152602001600020600061010060008b8981518110612f0057612f00614254565b6020026020010151815260200190815260200160002060000154815260200190815260200160002060009054906101000a900460601b1661010960008a6001600160a01b03166001600160a01b03168152602001908152602001600020600061010060008b8981518110612f7657612f76614254565b6020026020010151815260200190815260200160002060000154815260200190815260200160002060006101000a8154816001600160a01b03021916908360601c02179055505b6001600160a01b0388166000908152610105602052604090208751889086908110612fea57612fea614254565b602090810291909101810151825460018101845560009384529183209091015592505b6001600160a01b0389166000908152610105602052604090205483101561316b5786848151811061304057613040614254565b602002602001015161010560008b6001600160a01b03166001600160a01b03168152602001908152602001600020848154811061307f5761307f614254565b906000526020600020015403613159576001600160a01b03891660009081526101056020526040902080546130b690600190614365565b815481106130c6576130c6614254565b906000526020600020015461010560008b6001600160a01b03166001600160a01b03168152602001908152602001600020848154811061310857613108614254565b60009182526020808320909101929092556001600160a01b038b1681526101059091526040902080548061313e5761313e614378565b6001900381819060005260206000200160009055905561316b565b613164600184614352565b925061300d565b6001600160a01b0389166131db576001610100600089878151811061319257613192614254565b6020026020010151815260200190815260200160002060020160008282546131ba9190614352565b92505081905550600161010b60008282546131d59190614352565b90915550505b6001600160a01b03881661324b576001610100600089878151811061320257613202614254565b60200260200101518152602001908152602001600020600201600082825461322a9190614365565b92505081905550600161010b60008282546132459190614365565b90915550505b613256600185614352565b9350612a9c565b600093505b8651841015613313576001600160a01b038816156132b6576132b48861010060008a888151811061329557613295614254565b6020026020010151815260200190815260200160002060000154611cbc565b505b6001600160a01b03891615613301576132ff8961010060008a88815181106132e0576132e0614254565b6020026020010151815260200190815260200160002060000154610e7e565b505b61330c600185614352565b9350613262565b50505050505050505050565b6001600160a01b0384163b15610d9c5760405163bc197c8160e01b81526001600160a01b0385169063bc197c819061336390899089908890889088906004016147b2565b6020604051808303816000875af192505050801561339e575060408051601f3d908101601f1916820190925261339b91810190614810565b60015b61344a576133aa61482d565b806308c379a0036133e357506133be614849565b806133c957506133e5565b8060405162461bcd60e51b81526004016109c191906139b7565b505b60405162461bcd60e51b815260206004820152603460248201527f455243313135353a207472616e7366657220746f206e6f6e2d455243313135356044820152732932b1b2b4bb32b91034b6b83632b6b2b73a32b960611b60648201526084016109c1565b6001600160e01b0319811663bc197c8160e01b14612a8d5760405162461bcd60e51b81526004016109c1906148d2565b6001600160a01b0384166134a05760405162461bcd60e51b81526004016109c190614771565b3360006134ac8561356b565b905060006134b98561356b565b90506134ca83600089858589612a26565b60008681526097602090815260408083206001600160a01b038b168452909152812080548792906134fc908490614352565b909155505060408051878152602081018790526001600160a01b03808a1692600092918716917fc3d58168c5ae7397731d063d5bbf3d657854427343f4c083240f7aacaa2d0f62910160405180910390a461355c83600089858589612a96565b612a8d836000898989896135b6565b604080516001808252818301909252606091600091906020808301908036833701905050905082816000815181106135a5576135a5614254565b602090810291909101015292915050565b6001600160a01b0384163b15610d9c5760405163f23a6e6160e01b81526001600160a01b0385169063f23a6e61906135fa908990899088908890889060040161491a565b6020604051808303816000875af1925050508015613635575060408051601f3d908101601f1916820190925261363291810190614810565b60015b613641576133aa61482d565b6001600160e01b0319811663f23a6e6160e01b14612a8d5760405162461bcd60e51b81526004016109c1906148d2565b6001600160a01b0383166136d35760405162461bcd60e51b815260206004820152602360248201527f455243313135353a206275726e2066726f6d20746865207a65726f206164647260448201526265737360e81b60648201526084016109c1565b3360006136df8461356b565b905060006136ec8461356b565b905061370c83876000858560405180602001604052806000815250612a26565b60008581526097602090815260408083206001600160a01b038a1684529091529020548481101561378b5760405162461bcd60e51b8152602060048201526024808201527f455243313135353a206275726e20616d6f756e7420657863656564732062616c604482015263616e636560e01b60648201526084016109c1565b60008681526097602090815260408083206001600160a01b038b81168086529184528285208a8703905582518b81529384018a90529092908816917fc3d58168c5ae7397731d063d5bbf3d657854427343f4c083240f7aacaa2d0f62910160405180910390a4612a8d84886000868660405180602001604052806000815250612a96565b6099610b0282826144c7565b828054828255906000526020600020908101928215613856579160200282015b8281111561385657825182559160200191906001019061383b565b506138629291506138c0565b5090565b8280548282559060005260206000209081019282156138565760005260206000209182015b8281111561385657825482559160010191906001019061388b565b508054600082559060005260206000209081019061158a91905b5b8082111561386257600081556001016138c1565b80356001600160a01b03811681146138ec57600080fd5b919050565b6000806040838503121561390457600080fd5b61390d836138d5565b946020939093013593505050565b6001600160e01b03198116811461158a57600080fd5b60006020828403121561394357600080fd5b8135610a8e8161391b565b60006020828403121561396057600080fd5b5035919050565b60005b8381101561398257818101518382015260200161396a565b50506000910152565b600081518084526139a3816020860160208601613967565b601f01601f19169290920160200192915050565b602081526000610a8e602083018461398b565b6000602082840312156139dc57600080fd5b610a8e826138d5565b634e487b7160e01b600052604160045260246000fd5b601f8201601f191681016001600160401b0381118282101715613a2057613a206139e5565b6040525050565b600082601f830112613a3857600080fd5b81356001600160401b03811115613a5157613a516139e5565b604051613a68601f8301601f1916602001826139fb565b818152846020838601011115613a7d57600080fd5b816020850160208301376000918101602001919091529392505050565b60008060408385031215613aad57600080fd5b8235915060208301356001600160401b03811115613aca57600080fd5b613ad685828601613a27565b9150509250929050565b600080600060608486031215613af557600080fd5b613afe846138d5565b9250613b0c602085016138d5565b915060408401356001600160401b03811115613b2757600080fd5b613b3386828701613a27565b9150509250925092565b60006001600160401b03821115613b5657613b566139e5565b5060051b60200190565b60008060408385031215613b7357600080fd5b823591506020808401356001600160401b0380821115613b9257600080fd5b818601915086601f830112613ba657600080fd5b8135613bb181613b3d565b604051613bbe82826139fb565b82815260059290921b8401850191858101915089831115613bde57600080fd5b8585015b83811015613c1657803585811115613bfa5760008081fd5b613c088c89838a0101613a27565b845250918601918601613be2565b508096505050505050509250929050565b600082601f830112613c3857600080fd5b81356020613c4582613b3d565b604051613c5282826139fb565b83815260059390931b8501820192828101915086841115613c7257600080fd5b8286015b84811015613c8d5780358352918301918301613c76565b509695505050505050565b600080600080600060a08688031215613cb057600080fd5b613cb9866138d5565b9450613cc7602087016138d5565b935060408601356001600160401b0380821115613ce357600080fd5b613cef89838a01613c27565b94506060880135915080821115613d0557600080fd5b613d1189838a01613c27565b93506080880135915080821115613d2757600080fd5b50613d3488828901613a27565b9150509295509295909350565b60008060408385031215613d5457600080fd5b613d5d836138d5565b915060208301356001600160401b03811115613aca57600080fd5b600060208284031215613d8a57600080fd5b81356001600160401b03811115613da057600080fd5b613dac84828501613c27565b949350505050565b60008060408385031215613dc757600080fd5b82356001600160401b0380821115613dde57600080fd5b818501915085601f830112613df257600080fd5b81356020613dff82613b3d565b604051613e0c82826139fb565b83815260059390931b8501820192828101915089841115613e2c57600080fd5b948201945b83861015613e5157613e42866138d5565b82529482019490820190613e31565b96505086013592505080821115613e6757600080fd5b50613ad685828601613c27565b600081518084526020808501945080840160005b83811015613ea457815187529582019590820190600101613e88565b509495945050505050565b602081526000610a8e6020830184613e74565b60008060408385031215613ed557600080fd5b50508035926020909101359150565b600080600060608486031215613ef957600080fd5b505081359360208301359350604090920135919050565b60006101608d83528c60208401528b60408401528a606084015289608084015261ffff19891660a08401526bffffffffffffffffffffffff60a01b881660c08401526bffffffffffffffffffffffff19871660e084015280610100840152613f7a8184018761398b565b9050828103610120840152613f8f818661398b565b9050828103610140840152613fa4818561398b565b9e9d5050505050505050505050505050565b600060208284031215613fc857600080fd5b81356001600160401b03811115613fde57600080fd5b613dac84828501613a27565b803560ff811681146138ec57600080fd5b6000806040838503121561400e57600080fd5b82356001600160401b0381111561402457600080fd5b61403085828601613a27565b92505061403f60208401613fea565b90509250929050565b801515811461158a57600080fd5b6000806040838503121561406957600080fd5b614072836138d5565b9150602083013561408281614048565b809150509250929050565b600080604083850312156140a057600080fd5b8235915061403f602084016138d5565b600080604083850312156140c357600080fd5b6140cc836138d5565b915061403f602084016138d5565b600080600080600060a086880312156140f257600080fd5b6140fb866138d5565b9450614109602087016138d5565b9350604086013592506060860135915060808601356001600160401b0381111561413257600080fd5b613d3488828901613a27565b80356001600160a01b0319811681146138ec57600080fd5b80356001600160601b0319811681146138ec57600080fd5b60008060008060008060008060006101208a8c03121561418d57600080fd5b8935985060208a01356001600160401b03808211156141ab57600080fd5b6141b78d838e01613a27565b995060408c0135985060608c0135975060808c01359150808211156141db57600080fd5b506141e88c828d01613a27565b95505060a08a013561ffff198116811461420157600080fd5b935061420f60c08b01613fea565b925061421d60e08b0161413e565b915061422c6101008b01614156565b90509295985092959850929598565b60006020828403121561424d57600080fd5b5051919050565b634e487b7160e01b600052603260045260246000fd5b634e487b7160e01b600052601160045260246000fd5b6000600182016142925761429261426a565b5060010190565b600181811c908216806142ad57607f821691505b6020821081036119dc57634e487b7160e01b600052602260045260246000fd5b6020808252602e908201527f455243313135353a2063616c6c6572206973206e6f7420746f6b656e206f776e60408201526d195c881bdc88185c1c1c9bdd995960921b606082015260800190565b60208082526017908201527f446f6573206e6f74206861766520616e2055572049442e000000000000000000604082015260600190565b808201808211156109ef576109ef61426a565b818103818111156109ef576109ef61426a565b634e487b7160e01b600052603160045260246000fd5b600181815b808511156143c95781600019048211156143af576143af61426a565b808516156143bc57918102915b93841c9390800290614393565b509250929050565b6000826143e0575060016109ef565b816143ed575060006109ef565b8160018114614403576002811461440d57614429565b60019150506109ef565b60ff84111561441e5761441e61426a565b50506001821b6109ef565b5060208310610133831016604e8410600b841016171561444c575081810a6109ef565b614456838361438e565b806000190482111561446a5761446a61426a565b029392505050565b6000610a8e60ff8416836143d1565b601f821115611ca857600081815260208120601f850160051c810160208610156144a85750805b601f850160051c820191505b81811015610d9c578281556001016144b4565b81516001600160401b038111156144e0576144e06139e5565b6144f4816144ee8454614299565b84614481565b602080601f83116001811461452957600084156145115750858301515b600019600386901b1c1916600185901b178555610d9c565b600085815260208120601f198616915b8281101561455857888601518255948401946001909101908401614539565b50858210156145765787850151600019600388901b60f8161c191681555b5050505050600190811b01905550565b60006020828403121561459857600080fd5b8151610a8e81614048565b60008084546145b181614299565b600182811680156145c957600181146145de5761460d565b60ff198416875282151583028701945061460d565b8860005260208060002060005b858110156146045781548a8201529084019082016145eb565b50505082870194505b505050508351614621818360208801613967565b01949350505050565b6020808252602b908201527f496e697469616c697a61626c653a20636f6e7472616374206973206e6f74206960408201526a6e697469616c697a696e6760a81b606082015260800190565b60208082526028908201527f455243313135353a2069647320616e6420616d6f756e7473206c656e677468206040820152670dad2e6dac2e8c6d60c31b606082015260800190565b60208082526025908201527f455243313135353a207472616e7366657220746f20746865207a65726f206164604082015264647265737360d81b606082015260800190565b6020808252602a908201527f455243313135353a20696e73756666696369656e742062616c616e636520666f60408201526939103a3930b739b332b960b11b606082015260800190565b60408152600061475f6040830185613e74565b82810360208401526115708185613e74565b60208082526021908201527f455243313135353a206d696e7420746f20746865207a65726f206164647265736040820152607360f81b606082015260800190565b6001600160a01b0386811682528516602082015260a0604082018190526000906147de90830186613e74565b82810360608401526147f08186613e74565b90508281036080840152614804818561398b565b98975050505050505050565b60006020828403121561482257600080fd5b8151610a8e8161391b565b600060033d11156148465760046000803e5060005160e01c5b90565b600060443d10156148575790565b6040516003193d81016004833e81513d6001600160401b03816024840111818411171561488657505050505090565b828501915081518181111561489e5750505050505090565b843d87010160208285010111156148b85750505050505090565b6148c7602082860101876139fb565b509095945050505050565b60208082526028908201527f455243313135353a204552433131353552656365697665722072656a656374656040820152676420746f6b656e7360c01b606082015260800190565b6001600160a01b03868116825285166020820152604081018490526060810183905260a0608082018190526000906149549083018461398b565b97965050505050505056fea264697066735822122025afc5cbb25669fa2418d3eeaba5dfd841b7c2cb8a21352ce9025f5e3ba9d3a264736f6c63430008110033",
  "devdoc": {
    "kind": "dev",
    "methods": {
      "balanceOf(address,uint256)": {
        "details": "See {IERC1155-balanceOf}. Requirements: - `account` cannot be the zero address."
      },
      "balanceOfBatch(address[],uint256[])": {
        "details": "See {IERC1155-balanceOfBatch}. Requirements: - `accounts` and `ids` must have the same length."
      },
      "isApprovedForAll(address,address)": {
        "details": "See {IERC1155-isApprovedForAll}."
      },
      "owner()": {
        "details": "Returns the address of the current owner."
      },
      "renounceOwnership()": {
        "details": "Leaves the contract without owner. It will not be possible to call `onlyOwner` functions anymore. Can only be called by the current owner. NOTE: Renouncing ownership will leave the contract without an owner, thereby removing any functionality that is only available to the owner."
      },
      "safeBatchTransferFrom(address,address,uint256[],uint256[],bytes)": {
        "details": "See {IERC1155-safeBatchTransferFrom}."
      },
      "safeTransferFrom(address,address,uint256,uint256,bytes)": {
        "details": "See {IERC1155-safeTransferFrom}."
      },
      "setApprovalForAll(address,bool)": {
        "details": "See {IERC1155-setApprovalForAll}."
      },
      "supportsInterface(bytes4)": {
        "details": "See {IERC165-supportsInterface}."
      },
      "transferOwnership(address)": {
        "details": "Transfers ownership of the contract to a new account (`newOwner`). Can only be called by the current owner."
      }
    },
    "version": 1
  },
  "userdoc": {
    "kind": "user",
    "methods": {},
    "version": 1
  },
  "storageLayout": {
    "storage": [
      {
        "astId": 138,
        "contract": "contracts/UWClasses/UWClassesUpgradeable.sol:UWClassesUpgradeable",
        "label": "_initialized",
        "offset": 0,
        "slot": "0",
        "type": "t_uint8"
      },
      {
        "astId": 141,
        "contract": "contracts/UWClasses/UWClassesUpgradeable.sol:UWClassesUpgradeable",
        "label": "_initializing",
        "offset": 1,
        "slot": "0",
        "type": "t_bool"
      },
      {
        "astId": 3293,
        "contract": "contracts/UWClasses/UWClassesUpgradeable.sol:UWClassesUpgradeable",
        "label": "__gap",
        "offset": 0,
        "slot": "1",
        "type": "t_array(t_uint256)50_storage"
      },
      {
        "astId": 10,
        "contract": "contracts/UWClasses/UWClassesUpgradeable.sol:UWClassesUpgradeable",
        "label": "_owner",
        "offset": 0,
        "slot": "51",
        "type": "t_address"
      },
      {
        "astId": 130,
        "contract": "contracts/UWClasses/UWClassesUpgradeable.sol:UWClassesUpgradeable",
        "label": "__gap",
        "offset": 0,
        "slot": "52",
        "type": "t_array(t_uint256)49_storage"
      },
      {
        "astId": 3512,
        "contract": "contracts/UWClasses/UWClassesUpgradeable.sol:UWClassesUpgradeable",
        "label": "__gap",
        "offset": 0,
        "slot": "101",
        "type": "t_array(t_uint256)50_storage"
      },
      {
        "astId": 329,
        "contract": "contracts/UWClasses/UWClassesUpgradeable.sol:UWClassesUpgradeable",
        "label": "_balances",
        "offset": 0,
        "slot": "151",
        "type": "t_mapping(t_uint256,t_mapping(t_address,t_uint256))"
      },
      {
        "astId": 335,
        "contract": "contracts/UWClasses/UWClassesUpgradeable.sol:UWClassesUpgradeable",
        "label": "_operatorApprovals",
        "offset": 0,
        "slot": "152",
        "type": "t_mapping(t_address,t_mapping(t_address,t_bool))"
      },
      {
        "astId": 337,
        "contract": "contracts/UWClasses/UWClassesUpgradeable.sol:UWClassesUpgradeable",
        "label": "_uri",
        "offset": 0,
        "slot": "153",
        "type": "t_string_storage"
      },
      {
        "astId": 1544,
        "contract": "contracts/UWClasses/UWClassesUpgradeable.sol:UWClassesUpgradeable",
        "label": "__gap",
        "offset": 0,
        "slot": "154",
        "type": "t_array(t_uint256)47_storage"
      },
      {
        "astId": 1742,
        "contract": "contracts/UWClasses/UWClassesUpgradeable.sol:UWClassesUpgradeable",
        "label": "_baseURI",
        "offset": 0,
        "slot": "201",
        "type": "t_string_storage"
      },
      {
        "astId": 1746,
        "contract": "contracts/UWClasses/UWClassesUpgradeable.sol:UWClassesUpgradeable",
        "label": "_tokenURIs",
        "offset": 0,
        "slot": "202",
        "type": "t_mapping(t_uint256,t_string_storage)"
      },
      {
        "astId": 1821,
        "contract": "contracts/UWClasses/UWClassesUpgradeable.sol:UWClassesUpgradeable",
        "label": "__gap",
        "offset": 0,
        "slot": "203",
        "type": "t_array(t_uint256)48_storage"
      },
      {
        "astId": 4834,
        "contract": "contracts/UWClasses/UWClassesUpgradeable.sol:UWClassesUpgradeable",
        "label": "UWIDAddress",
        "offset": 0,
        "slot": "251",
        "type": "t_address"
      },
      {
        "astId": 4836,
        "contract": "contracts/UWClasses/UWClassesUpgradeable.sol:UWClassesUpgradeable",
        "label": "UWArchiveAddress",
        "offset": 0,
        "slot": "252",
        "type": "t_address"
      },
      {
        "astId": 4839,
        "contract": "contracts/UWClasses/UWClassesUpgradeable.sol:UWClassesUpgradeable",
        "label": "maxAllowedCredits",
        "offset": 0,
        "slot": "253",
        "type": "t_uint256"
      },
      {
        "astId": 4841,
        "contract": "contracts/UWClasses/UWClassesUpgradeable.sol:UWClassesUpgradeable",
        "label": "quarterName",
        "offset": 0,
        "slot": "254",
        "type": "t_string_storage"
      },
      {
        "astId": 4843,
        "contract": "contracts/UWClasses/UWClassesUpgradeable.sol:UWClassesUpgradeable",
        "label": "quarterEnd",
        "offset": 0,
        "slot": "255",
        "type": "t_bool"
      },
      {
        "astId": 4871,
        "contract": "contracts/UWClasses/UWClassesUpgradeable.sol:UWClassesUpgradeable",
        "label": "classes",
        "offset": 0,
        "slot": "256",
        "type": "t_mapping(t_uint256,t_struct(Class)4866_storage)"
      },
      {
        "astId": 4876,
        "contract": "contracts/UWClasses/UWClassesUpgradeable.sol:UWClassesUpgradeable",
        "label": "classMajorRestrictions",
        "offset": 0,
        "slot": "257",
        "type": "t_mapping(t_uint256,t_array(t_address)dyn_storage)"
      },
      {
        "astId": 4882,
        "contract": "contracts/UWClasses/UWClassesUpgradeable.sol:UWClassesUpgradeable",
        "label": "coursePrerequisites",
        "offset": 0,
        "slot": "258",
        "type": "t_mapping(t_bytes32,t_array(t_array(t_bytes32)dyn_storage)dyn_storage)"
      },
      {
        "astId": 4886,
        "contract": "contracts/UWClasses/UWClassesUpgradeable.sol:UWClassesUpgradeable",
        "label": "courseSectionRequirements",
        "offset": 0,
        "slot": "259",
        "type": "t_mapping(t_bytes32,t_uint8)"
      },
      {
        "astId": 4890,
        "contract": "contracts/UWClasses/UWClassesUpgradeable.sol:UWClassesUpgradeable",
        "label": "accountCredits",
        "offset": 0,
        "slot": "260",
        "type": "t_mapping(t_address,t_uint256)"
      },
      {
        "astId": 4895,
        "contract": "contracts/UWClasses/UWClassesUpgradeable.sol:UWClassesUpgradeable",
        "label": "accountClasses",
        "offset": 0,
        "slot": "261",
        "type": "t_mapping(t_address,t_array(t_uint256)dyn_storage)"
      },
      {
        "astId": 4901,
        "contract": "contracts/UWClasses/UWClassesUpgradeable.sol:UWClassesUpgradeable",
        "label": "accountIsRegisteredForCourse",
        "offset": 0,
        "slot": "262",
        "type": "t_mapping(t_address,t_mapping(t_bytes32,t_bool))"
      },
      {
        "astId": 4905,
        "contract": "contracts/UWClasses/UWClassesUpgradeable.sol:UWClassesUpgradeable",
        "label": "accountWeekdayTime",
        "offset": 0,
        "slot": "263",
        "type": "t_mapping(t_address,t_bytes30)"
      },
      {
        "astId": 4909,
        "contract": "contracts/UWClasses/UWClassesUpgradeable.sol:UWClassesUpgradeable",
        "label": "accountWeekendTime",
        "offset": 0,
        "slot": "264",
        "type": "t_mapping(t_address,t_bytes12)"
      },
      {
        "astId": 4915,
        "contract": "contracts/UWClasses/UWClassesUpgradeable.sol:UWClassesUpgradeable",
        "label": "accountCourseSectionInfo",
        "offset": 0,
        "slot": "265",
        "type": "t_mapping(t_address,t_mapping(t_bytes32,t_bytes20))"
      },
      {
        "astId": 4918,
        "contract": "contracts/UWClasses/UWClassesUpgradeable.sol:UWClassesUpgradeable",
        "label": "registrationPeriods",
        "offset": 0,
        "slot": "266",
        "type": "t_array(t_uint256)dyn_storage"
      },
      {
        "astId": 4920,
        "contract": "contracts/UWClasses/UWClassesUpgradeable.sol:UWClassesUpgradeable",
        "label": "currentSupply",
        "offset": 0,
        "slot": "267",
        "type": "t_uint256"
      }
    ],
    "types": {
      "t_address": {
        "encoding": "inplace",
        "label": "address",
        "numberOfBytes": "20"
      },
      "t_array(t_address)dyn_storage": {
        "base": "t_address",
        "encoding": "dynamic_array",
        "label": "address[]",
        "numberOfBytes": "32"
      },
      "t_array(t_array(t_bytes32)dyn_storage)dyn_storage": {
        "base": "t_array(t_bytes32)dyn_storage",
        "encoding": "dynamic_array",
        "label": "bytes32[][]",
        "numberOfBytes": "32"
      },
      "t_array(t_bytes32)dyn_storage": {
        "base": "t_bytes32",
        "encoding": "dynamic_array",
        "label": "bytes32[]",
        "numberOfBytes": "32"
      },
      "t_array(t_uint256)47_storage": {
        "base": "t_uint256",
        "encoding": "inplace",
        "label": "uint256[47]",
        "numberOfBytes": "1504"
      },
      "t_array(t_uint256)48_storage": {
        "base": "t_uint256",
        "encoding": "inplace",
        "label": "uint256[48]",
        "numberOfBytes": "1536"
      },
      "t_array(t_uint256)49_storage": {
        "base": "t_uint256",
        "encoding": "inplace",
        "label": "uint256[49]",
        "numberOfBytes": "1568"
      },
      "t_array(t_uint256)50_storage": {
        "base": "t_uint256",
        "encoding": "inplace",
        "label": "uint256[50]",
        "numberOfBytes": "1600"
      },
      "t_array(t_uint256)dyn_storage": {
        "base": "t_uint256",
        "encoding": "dynamic_array",
        "label": "uint256[]",
        "numberOfBytes": "32"
      },
      "t_bool": {
        "encoding": "inplace",
        "label": "bool",
        "numberOfBytes": "1"
      },
      "t_bytes12": {
        "encoding": "inplace",
        "label": "bytes12",
        "numberOfBytes": "12"
      },
      "t_bytes20": {
        "encoding": "inplace",
        "label": "bytes20",
        "numberOfBytes": "20"
      },
      "t_bytes30": {
        "encoding": "inplace",
        "label": "bytes30",
        "numberOfBytes": "30"
      },
      "t_bytes32": {
        "encoding": "inplace",
        "label": "bytes32",
        "numberOfBytes": "32"
      },
      "t_bytes_storage": {
        "encoding": "bytes",
        "label": "bytes",
        "numberOfBytes": "32"
      },
      "t_mapping(t_address,t_array(t_uint256)dyn_storage)": {
        "encoding": "mapping",
        "key": "t_address",
        "label": "mapping(address => uint256[])",
        "numberOfBytes": "32",
        "value": "t_array(t_uint256)dyn_storage"
      },
      "t_mapping(t_address,t_bool)": {
        "encoding": "mapping",
        "key": "t_address",
        "label": "mapping(address => bool)",
        "numberOfBytes": "32",
        "value": "t_bool"
      },
      "t_mapping(t_address,t_bytes12)": {
        "encoding": "mapping",
        "key": "t_address",
        "label": "mapping(address => bytes12)",
        "numberOfBytes": "32",
        "value": "t_bytes12"
      },
      "t_mapping(t_address,t_bytes30)": {
        "encoding": "mapping",
        "key": "t_address",
        "label": "mapping(address => bytes30)",
        "numberOfBytes": "32",
        "value": "t_bytes30"
      },
      "t_mapping(t_address,t_mapping(t_address,t_bool))": {
        "encoding": "mapping",
        "key": "t_address",
        "label": "mapping(address => mapping(address => bool))",
        "numberOfBytes": "32",
        "value": "t_mapping(t_address,t_bool)"
      },
      "t_mapping(t_address,t_mapping(t_bytes32,t_bool))": {
        "encoding": "mapping",
        "key": "t_address",
        "label": "mapping(address => mapping(bytes32 => bool))",
        "numberOfBytes": "32",
        "value": "t_mapping(t_bytes32,t_bool)"
      },
      "t_mapping(t_address,t_mapping(t_bytes32,t_bytes20))": {
        "encoding": "mapping",
        "key": "t_address",
        "label": "mapping(address => mapping(bytes32 => bytes20))",
        "numberOfBytes": "32",
        "value": "t_mapping(t_bytes32,t_bytes20)"
      },
      "t_mapping(t_address,t_uint256)": {
        "encoding": "mapping",
        "key": "t_address",
        "label": "mapping(address => uint256)",
        "numberOfBytes": "32",
        "value": "t_uint256"
      },
      "t_mapping(t_bytes32,t_array(t_array(t_bytes32)dyn_storage)dyn_storage)": {
        "encoding": "mapping",
        "key": "t_bytes32",
        "label": "mapping(bytes32 => bytes32[][])",
        "numberOfBytes": "32",
        "value": "t_array(t_array(t_bytes32)dyn_storage)dyn_storage"
      },
      "t_mapping(t_bytes32,t_bool)": {
        "encoding": "mapping",
        "key": "t_bytes32",
        "label": "mapping(bytes32 => bool)",
        "numberOfBytes": "32",
        "value": "t_bool"
      },
      "t_mapping(t_bytes32,t_bytes20)": {
        "encoding": "mapping",
        "key": "t_bytes32",
        "label": "mapping(bytes32 => bytes20)",
        "numberOfBytes": "32",
        "value": "t_bytes20"
      },
      "t_mapping(t_bytes32,t_uint8)": {
        "encoding": "mapping",
        "key": "t_bytes32",
        "label": "mapping(bytes32 => uint8)",
        "numberOfBytes": "32",
        "value": "t_uint8"
      },
      "t_mapping(t_uint256,t_array(t_address)dyn_storage)": {
        "encoding": "mapping",
        "key": "t_uint256",
        "label": "mapping(uint256 => address[])",
        "numberOfBytes": "32",
        "value": "t_array(t_address)dyn_storage"
      },
      "t_mapping(t_uint256,t_mapping(t_address,t_uint256))": {
        "encoding": "mapping",
        "key": "t_uint256",
        "label": "mapping(uint256 => mapping(address => uint256))",
        "numberOfBytes": "32",
        "value": "t_mapping(t_address,t_uint256)"
      },
      "t_mapping(t_uint256,t_string_storage)": {
        "encoding": "mapping",
        "key": "t_uint256",
        "label": "mapping(uint256 => string)",
        "numberOfBytes": "32",
        "value": "t_string_storage"
      },
      "t_mapping(t_uint256,t_struct(Class)4866_storage)": {
        "encoding": "mapping",
        "key": "t_uint256",
        "label": "mapping(uint256 => struct UWClassesUpgradeable.Class)",
        "numberOfBytes": "32",
        "value": "t_struct(Class)4866_storage"
      },
      "t_string_storage": {
        "encoding": "bytes",
        "label": "string",
        "numberOfBytes": "32"
      },
      "t_struct(Class)4866_storage": {
        "encoding": "inplace",
        "label": "struct UWClassesUpgradeable.Class",
        "members": [
          {
            "astId": 4845,
            "contract": "contracts/UWClasses/UWClassesUpgradeable.sol:UWClassesUpgradeable",
            "label": "courseId",
            "offset": 0,
            "slot": "0",
            "type": "t_bytes32"
          },
          {
            "astId": 4847,
            "contract": "contracts/UWClasses/UWClassesUpgradeable.sol:UWClassesUpgradeable",
            "label": "classId",
            "offset": 0,
            "slot": "1",
            "type": "t_uint256"
          },
          {
            "astId": 4849,
            "contract": "contracts/UWClasses/UWClassesUpgradeable.sol:UWClassesUpgradeable",
            "label": "currentlyEnrolled",
            "offset": 0,
            "slot": "2",
            "type": "t_uint256"
          },
          {
            "astId": 4851,
            "contract": "contracts/UWClasses/UWClassesUpgradeable.sol:UWClassesUpgradeable",
            "label": "enrollCapacity",
            "offset": 0,
            "slot": "3",
            "type": "t_uint256"
          },
          {
            "astId": 4853,
            "contract": "contracts/UWClasses/UWClassesUpgradeable.sol:UWClassesUpgradeable",
            "label": "credits",
            "offset": 0,
            "slot": "4",
            "type": "t_uint256"
          },
          {
            "astId": 4855,
            "contract": "contracts/UWClasses/UWClassesUpgradeable.sol:UWClassesUpgradeable",
            "label": "weekdayTime",
            "offset": 0,
            "slot": "5",
            "type": "t_bytes30"
          },
          {
            "astId": 4857,
            "contract": "contracts/UWClasses/UWClassesUpgradeable.sol:UWClassesUpgradeable",
            "label": "weekendTime",
            "offset": 0,
            "slot": "6",
            "type": "t_bytes12"
          },
          {
            "astId": 4859,
            "contract": "contracts/UWClasses/UWClassesUpgradeable.sol:UWClassesUpgradeable",
            "label": "sectionType",
            "offset": 12,
            "slot": "6",
            "type": "t_bytes20"
          },
          {
            "astId": 4861,
            "contract": "contracts/UWClasses/UWClassesUpgradeable.sol:UWClassesUpgradeable",
            "label": "creditType",
            "offset": 0,
            "slot": "7",
            "type": "t_string_storage"
          },
          {
            "astId": 4863,
            "contract": "contracts/UWClasses/UWClassesUpgradeable.sol:UWClassesUpgradeable",
            "label": "courseName",
            "offset": 0,
            "slot": "8",
            "type": "t_string_storage"
          },
          {
            "astId": 4865,
            "contract": "contracts/UWClasses/UWClassesUpgradeable.sol:UWClassesUpgradeable",
            "label": "data",
            "offset": 0,
            "slot": "9",
            "type": "t_bytes_storage"
          }
        ],
        "numberOfBytes": "320"
      },
      "t_uint256": {
        "encoding": "inplace",
        "label": "uint256",
        "numberOfBytes": "32"
      },
      "t_uint8": {
        "encoding": "inplace",
        "label": "uint8",
        "numberOfBytes": "1"
      }
    }
  }
}