{
  "address": "0x99baFCbAc29Ba6D5cb5D1BbbCd51384EeD40B3f6",
  "abi": [
    {
      "anonymous": false,
      "inputs": [
        {
          "indexed": true,
          "internalType": "address",
          "name": "account",
          "type": "address"
        },
        {
          "indexed": true,
          "internalType": "address",
          "name": "operator",
          "type": "address"
        },
        {
          "indexed": false,
          "internalType": "bool",
          "name": "approved",
          "type": "bool"
        }
      ],
      "name": "ApprovalForAll",
      "type": "event"
    },
    {
      "anonymous": false,
      "inputs": [
        {
          "indexed": false,
          "internalType": "uint8",
          "name": "version",
          "type": "uint8"
        }
      ],
      "name": "Initialized",
      "type": "event"
    },
    {
      "anonymous": false,
      "inputs": [
        {
          "indexed": true,
          "internalType": "address",
          "name": "previousOwner",
          "type": "address"
        },
        {
          "indexed": true,
          "internalType": "address",
          "name": "newOwner",
          "type": "address"
        }
      ],
      "name": "OwnershipTransferred",
      "type": "event"
    },
    {
      "anonymous": false,
      "inputs": [
        {
          "indexed": true,
          "internalType": "address",
          "name": "operator",
          "type": "address"
        },
        {
          "indexed": true,
          "internalType": "address",
          "name": "from",
          "type": "address"
        },
        {
          "indexed": true,
          "internalType": "address",
          "name": "to",
          "type": "address"
        },
        {
          "indexed": false,
          "internalType": "uint256[]",
          "name": "ids",
          "type": "uint256[]"
        },
        {
          "indexed": false,
          "internalType": "uint256[]",
          "name": "values",
          "type": "uint256[]"
        }
      ],
      "name": "TransferBatch",
      "type": "event"
    },
    {
      "anonymous": false,
      "inputs": [
        {
          "indexed": true,
          "internalType": "address",
          "name": "operator",
          "type": "address"
        },
        {
          "indexed": true,
          "internalType": "address",
          "name": "from",
          "type": "address"
        },
        {
          "indexed": true,
          "internalType": "address",
          "name": "to",
          "type": "address"
        },
        {
          "indexed": false,
          "internalType": "uint256",
          "name": "id",
          "type": "uint256"
        },
        {
          "indexed": false,
          "internalType": "uint256",
          "name": "value",
          "type": "uint256"
        }
      ],
      "name": "TransferSingle",
      "type": "event"
    },
    {
      "anonymous": false,
      "inputs": [
        {
          "indexed": false,
          "internalType": "string",
          "name": "value",
          "type": "string"
        },
        {
          "indexed": true,
          "internalType": "uint256",
          "name": "id",
          "type": "uint256"
        }
      ],
      "name": "URI",
      "type": "event"
    },
    {
      "inputs": [],
      "name": "UWIDContractAddress",
      "outputs": [
        {
          "internalType": "address",
          "name": "",
          "type": "address"
        }
      ],
      "stateMutability": "view",
      "type": "function"
    },
    {
      "inputs": [
        {
          "internalType": "address",
          "name": "_UWIDContractAddress",
          "type": "address"
        },
        {
          "internalType": "string",
          "name": "_quarterName",
          "type": "string"
        }
      ],
      "name": "__UWClasses_init",
      "outputs": [],
      "stateMutability": "nonpayable",
      "type": "function"
    },
    {
      "inputs": [
        {
          "internalType": "address",
          "name": "",
          "type": "address"
        },
        {
          "internalType": "uint256",
          "name": "",
          "type": "uint256"
        }
      ],
      "name": "accountClasses",
      "outputs": [
        {
          "internalType": "uint256",
          "name": "",
          "type": "uint256"
        }
      ],
      "stateMutability": "view",
      "type": "function"
    },
    {
      "inputs": [
        {
          "internalType": "address",
          "name": "",
          "type": "address"
        }
      ],
      "name": "accountCredits",
      "outputs": [
        {
          "internalType": "uint256",
          "name": "",
          "type": "uint256"
        }
      ],
      "stateMutability": "view",
      "type": "function"
    },
    {
      "inputs": [
        {
          "internalType": "uint256",
          "name": "classId",
          "type": "uint256"
        },
        {
          "internalType": "string",
          "name": "className",
          "type": "string"
        },
        {
          "internalType": "uint256",
          "name": "enrollCapacity",
          "type": "uint256"
        },
        {
          "internalType": "uint256",
          "name": "credits",
          "type": "uint256"
        },
        {
          "internalType": "string",
          "name": "creditType",
          "type": "string"
        },
        {
          "internalType": "uint256[7]",
          "name": "startTimes",
          "type": "uint256[7]"
        },
        {
          "internalType": "uint256[7]",
          "name": "endTimes",
          "type": "uint256[7]"
        }
      ],
      "name": "addClass",
      "outputs": [],
      "stateMutability": "nonpayable",
      "type": "function"
    },
    {
      "inputs": [
        {
          "internalType": "address",
          "name": "account",
          "type": "address"
        },
        {
          "internalType": "uint256",
          "name": "id",
          "type": "uint256"
        }
      ],
      "name": "balanceOf",
      "outputs": [
        {
          "internalType": "uint256",
          "name": "",
          "type": "uint256"
        }
      ],
      "stateMutability": "view",
      "type": "function"
    },
    {
      "inputs": [
        {
          "internalType": "address[]",
          "name": "accounts",
          "type": "address[]"
        },
        {
          "internalType": "uint256[]",
          "name": "ids",
          "type": "uint256[]"
        }
      ],
      "name": "balanceOfBatch",
      "outputs": [
        {
          "internalType": "uint256[]",
          "name": "",
          "type": "uint256[]"
        }
      ],
      "stateMutability": "view",
      "type": "function"
    },
    {
      "inputs": [
        {
          "internalType": "address",
          "name": "account",
          "type": "address"
        },
        {
          "internalType": "uint256",
          "name": "classId",
          "type": "uint256"
        }
      ],
      "name": "canEnroll",
      "outputs": [
        {
          "internalType": "bool",
          "name": "",
          "type": "bool"
        }
      ],
      "stateMutability": "view",
      "type": "function"
    },
    {
      "inputs": [
        {
          "internalType": "uint256",
          "name": "num",
          "type": "uint256"
        }
      ],
      "name": "changeMaxAllowedCredits",
      "outputs": [],
      "stateMutability": "nonpayable",
      "type": "function"
    },
    {
      "inputs": [
        {
          "internalType": "uint256",
          "name": "classId",
          "type": "uint256"
        }
      ],
      "name": "classFull",
      "outputs": [
        {
          "internalType": "bool",
          "name": "",
          "type": "bool"
        }
      ],
      "stateMutability": "view",
      "type": "function"
    },
    {
      "inputs": [
        {
          "internalType": "uint256",
          "name": "",
          "type": "uint256"
        }
      ],
      "name": "classes",
      "outputs": [
        {
          "internalType": "uint256",
          "name": "classId",
          "type": "uint256"
        },
        {
          "internalType": "string",
          "name": "className",
          "type": "string"
        },
        {
          "internalType": "uint256",
          "name": "currentlyEnrolled",
          "type": "uint256"
        },
        {
          "internalType": "uint256",
          "name": "enrollCapacity",
          "type": "uint256"
        },
        {
          "internalType": "uint256",
          "name": "credits",
          "type": "uint256"
        },
        {
          "internalType": "string",
          "name": "creditType",
          "type": "string"
        },
        {
          "internalType": "bytes",
          "name": "data",
          "type": "bytes"
        }
      ],
      "stateMutability": "view",
      "type": "function"
    },
    {
      "inputs": [
        {
          "internalType": "uint256",
          "name": "classId",
          "type": "uint256"
        }
      ],
      "name": "closeClass",
      "outputs": [],
      "stateMutability": "nonpayable",
      "type": "function"
    },
    {
      "inputs": [
        {
          "internalType": "uint256",
          "name": "classId",
          "type": "uint256"
        }
      ],
      "name": "dropClass",
      "outputs": [],
      "stateMutability": "nonpayable",
      "type": "function"
    },
    {
      "inputs": [
        {
          "internalType": "address",
          "name": "account",
          "type": "address"
        },
        {
          "internalType": "uint256",
          "name": "classId",
          "type": "uint256"
        }
      ],
      "name": "exceedsMaxCredit",
      "outputs": [
        {
          "internalType": "bool",
          "name": "",
          "type": "bool"
        }
      ],
      "stateMutability": "view",
      "type": "function"
    },
    {
      "inputs": [
        {
          "internalType": "address",
          "name": "account",
          "type": "address"
        },
        {
          "internalType": "uint256",
          "name": "classId",
          "type": "uint256"
        }
      ],
      "name": "hasTimeConflict",
      "outputs": [
        {
          "internalType": "bool",
          "name": "",
          "type": "bool"
        }
      ],
      "stateMutability": "view",
      "type": "function"
    },
    {
      "inputs": [
        {
          "internalType": "address",
          "name": "account",
          "type": "address"
        },
        {
          "internalType": "address",
          "name": "operator",
          "type": "address"
        }
      ],
      "name": "isApprovedForAll",
      "outputs": [
        {
          "internalType": "bool",
          "name": "",
          "type": "bool"
        }
      ],
      "stateMutability": "view",
      "type": "function"
    },
    {
      "inputs": [
        {
          "internalType": "address",
          "name": "account",
          "type": "address"
        }
      ],
      "name": "isRegistrationPeriod",
      "outputs": [
        {
          "internalType": "bool",
          "name": "",
          "type": "bool"
        }
      ],
      "stateMutability": "view",
      "type": "function"
    },
    {
      "inputs": [
        {
          "internalType": "address",
          "name": "to",
          "type": "address"
        }
      ],
      "name": "isUWAccount",
      "outputs": [
        {
          "internalType": "bool",
          "name": "",
          "type": "bool"
        }
      ],
      "stateMutability": "view",
      "type": "function"
    },
    {
      "inputs": [
        {
          "internalType": "address",
          "name": "account",
          "type": "address"
        },
        {
          "internalType": "uint256",
          "name": "classId",
          "type": "uint256"
        }
      ],
      "name": "majorRestriction",
      "outputs": [
        {
          "internalType": "bool",
          "name": "",
          "type": "bool"
        }
      ],
      "stateMutability": "view",
      "type": "function"
    },
    {
      "inputs": [],
      "name": "maxAllowedCredits",
      "outputs": [
        {
          "internalType": "uint256",
          "name": "",
          "type": "uint256"
        }
      ],
      "stateMutability": "view",
      "type": "function"
    },
    {
      "inputs": [],
      "name": "owner",
      "outputs": [
        {
          "internalType": "address",
          "name": "",
          "type": "address"
        }
      ],
      "stateMutability": "view",
      "type": "function"
    },
    {
      "inputs": [],
      "name": "quarterName",
      "outputs": [
        {
          "internalType": "string",
          "name": "",
          "type": "string"
        }
      ],
      "stateMutability": "view",
      "type": "function"
    },
    {
      "inputs": [
        {
          "internalType": "uint256",
          "name": "classId",
          "type": "uint256"
        }
      ],
      "name": "registerClass",
      "outputs": [],
      "stateMutability": "nonpayable",
      "type": "function"
    },
    {
      "inputs": [
        {
          "internalType": "uint256[]",
          "name": "classIds",
          "type": "uint256[]"
        }
      ],
      "name": "registerMultipleClasses",
      "outputs": [],
      "stateMutability": "nonpayable",
      "type": "function"
    },
    {
      "inputs": [
        {
          "internalType": "address",
          "name": "account",
          "type": "address"
        },
        {
          "internalType": "uint256",
          "name": "classId",
          "type": "uint256"
        }
      ],
      "name": "registered",
      "outputs": [
        {
          "internalType": "bool",
          "name": "",
          "type": "bool"
        }
      ],
      "stateMutability": "view",
      "type": "function"
    },
    {
      "inputs": [
        {
          "internalType": "uint256",
          "name": "",
          "type": "uint256"
        }
      ],
      "name": "registrationPeriods",
      "outputs": [
        {
          "internalType": "uint256",
          "name": "",
          "type": "uint256"
        }
      ],
      "stateMutability": "view",
      "type": "function"
    },
    {
      "inputs": [
        {
          "internalType": "uint256",
          "name": "classId",
          "type": "uint256"
        },
        {
          "internalType": "address",
          "name": "majorAddress",
          "type": "address"
        }
      ],
      "name": "removeMajorRestriction",
      "outputs": [],
      "stateMutability": "nonpayable",
      "type": "function"
    },
    {
      "inputs": [],
      "name": "renounceOwnership",
      "outputs": [],
      "stateMutability": "nonpayable",
      "type": "function"
    },
    {
      "inputs": [
        {
          "internalType": "address",
          "name": "from",
          "type": "address"
        },
        {
          "internalType": "address",
          "name": "to",
          "type": "address"
        },
        {
          "internalType": "uint256[]",
          "name": "ids",
          "type": "uint256[]"
        },
        {
          "internalType": "uint256[]",
          "name": "amounts",
          "type": "uint256[]"
        },
        {
          "internalType": "bytes",
          "name": "data",
          "type": "bytes"
        }
      ],
      "name": "safeBatchTransferFrom",
      "outputs": [],
      "stateMutability": "nonpayable",
      "type": "function"
    },
    {
      "inputs": [
        {
          "internalType": "address",
          "name": "from",
          "type": "address"
        },
        {
          "internalType": "address",
          "name": "to",
          "type": "address"
        },
        {
          "internalType": "uint256",
          "name": "id",
          "type": "uint256"
        },
        {
          "internalType": "uint256",
          "name": "amount",
          "type": "uint256"
        },
        {
          "internalType": "bytes",
          "name": "data",
          "type": "bytes"
        }
      ],
      "name": "safeTransferFrom",
      "outputs": [],
      "stateMutability": "nonpayable",
      "type": "function"
    },
    {
      "inputs": [
        {
          "internalType": "address",
          "name": "operator",
          "type": "address"
        },
        {
          "internalType": "bool",
          "name": "approved",
          "type": "bool"
        }
      ],
      "name": "setApprovalForAll",
      "outputs": [],
      "stateMutability": "nonpayable",
      "type": "function"
    },
    {
      "inputs": [
        {
          "internalType": "uint256",
          "name": "classId",
          "type": "uint256"
        },
        {
          "internalType": "address",
          "name": "majorAddress",
          "type": "address"
        }
      ],
      "name": "setMajorRestriction",
      "outputs": [],
      "stateMutability": "nonpayable",
      "type": "function"
    },
    {
      "inputs": [
        {
          "internalType": "uint256",
          "name": "period1",
          "type": "uint256"
        },
        {
          "internalType": "uint256",
          "name": "period2",
          "type": "uint256"
        },
        {
          "internalType": "uint256",
          "name": "period3",
          "type": "uint256"
        }
      ],
      "name": "setRegistrationPeriod",
      "outputs": [],
      "stateMutability": "nonpayable",
      "type": "function"
    },
    {
      "inputs": [
        {
          "internalType": "bytes4",
          "name": "interfaceId",
          "type": "bytes4"
        }
      ],
      "name": "supportsInterface",
      "outputs": [
        {
          "internalType": "bool",
          "name": "",
          "type": "bool"
        }
      ],
      "stateMutability": "view",
      "type": "function"
    },
    {
      "inputs": [
        {
          "internalType": "address",
          "name": "newOwner",
          "type": "address"
        }
      ],
      "name": "transferOwnership",
      "outputs": [],
      "stateMutability": "nonpayable",
      "type": "function"
    },
    {
      "inputs": [
        {
          "internalType": "string",
          "name": "baseURI",
          "type": "string"
        }
      ],
      "name": "updateBaseURI",
      "outputs": [],
      "stateMutability": "nonpayable",
      "type": "function"
    },
    {
      "inputs": [
        {
          "internalType": "uint256",
          "name": "tokenId",
          "type": "uint256"
        },
        {
          "internalType": "string",
          "name": "tokenURI",
          "type": "string"
        }
      ],
      "name": "updateClassURI",
      "outputs": [],
      "stateMutability": "nonpayable",
      "type": "function"
    },
    {
      "inputs": [
        {
          "internalType": "uint256",
          "name": "tokenId",
          "type": "uint256"
        }
      ],
      "name": "uri",
      "outputs": [
        {
          "internalType": "string",
          "name": "",
          "type": "string"
        }
      ],
      "stateMutability": "view",
      "type": "function"
    }
  ],
  "transactionHash": "0x084019bed01a24c5f18037ea01fe464533dc0345811a1b588fe3ac7e59daf8c2",
  "args": [],
  "numDeployments": 1,
  "solcInputHash": "606eb45cb8d2b7223935070e14d8efbb",
  "bytecode": "0x6080604052601460fc5534801561001557600080fd5b50613753806100256000396000f3fe608060405234801561001057600080fd5b50600436106102315760003560e01c80638f74e7e211610130578063d3f6b50f116100b8578063ef1ba8e11161007c578063ef1ba8e11461053c578063f242432a1461054f578063f2fde38b14610562578063f703701914610575578063fb2879df1461058857600080fd5b8063d3f6b50f146104be578063d3fb06a0146104d1578063e3c0293d146104da578063e985e9c5146104ed578063edc13f641461052957600080fd5b8063aec36734116100ff578063aec3673414610446578063ba677ca014610459578063bc5cbfdf1461046c578063ca5fe0a614610498578063cf0a757f146104ab57600080fd5b80638f74e7e2146103fa578063931688cb1461040d578063a22cb46514610420578063a43b2cbe1461043357600080fd5b806338e7d5d5116101be578063715018a611610182578063715018a614610381578063723831da1461038957806375dffe0f1461039c578063817dbe9f146103af5780638da5cb5b146103d557600080fd5b806338e7d5d51461030857806348caf4be1461031b5780634bff67e81461033b5780634e1273f41461034e5780635bf567f31461036e57600080fd5b8063143d414011610205578063143d4140146102b2578063195309af146102c757806326fd482e146102da5780632a818af3146102ed5780632eb2c2d6146102f557600080fd5b8062fdd58e1461023657806301c23c971461025c57806301ffc9a71461027f5780630e89341c14610292575b600080fd5b610249610244366004612a15565b61059b565b6040519081526020015b60405180910390f35b61026f61026a366004612a15565b610636565b6040519015158152602001610253565b61026f61028d366004612a55565b6106b5565b6102a56102a0366004612a72565b610705565b6040516102539190612adb565b6102c56102c0366004612a72565b610710565b005b6102c56102d5366004612ba3565b6107d5565b61026f6102e8366004612be9565b6107eb565b6102a5610862565b6102c5610303366004612c98565b6108f0565b610249610316366004612a15565b61093c565b610249610329366004612be9565b60ff6020526000908152604090205481565b6102c5610349366004612d41565b61096e565b61036161035c366004612d7d565b6109f9565b6040516102539190612e78565b6102c561037c366004612e8b565b610b22565b6102c5610baa565b6102c5610397366004612eb7565b610bbe565b61026f6103aa366004612a15565b610ceb565b6103c26103bd366004612a72565b610d00565b6040516102539796959493929190612eee565b6033546001600160a01b03165b6040516001600160a01b039091168152602001610253565b61026f610408366004612a15565b610ed3565b6102c561041b366004612f4d565b6110a0565b6102c561042e366004612f81565b6110b1565b6102c5610441366004612a72565b6110bc565b6102c561045436600461302a565b61110b565b61026f610467366004612a15565b61122b565b61026f61047a366004612a72565b600090815260fe602052604090206003810154600290910154101590565b6102496104a6366004612a72565b61132c565b6102c56104b93660046130cf565b61134e565b61026f6104cc366004612be9565b6113b2565b61024960fc5481565b6102c56104e8366004612a72565b6115e9565b61026f6104fb3660046130fb565b6001600160a01b03918216600090815260986020908152604080832093909416825291909152205460ff1690565b61026f610537366004612a15565b6115f6565b6102c561054a3660046130cf565b611637565b6102c561055d366004613125565b6117ad565b6102c5610570366004612be9565b6117f2565b6102c5610583366004612a72565b611868565b60fb546103e2906001600160a01b031681565b60006001600160a01b03831661060b5760405162461bcd60e51b815260206004820152602a60248201527f455243313135353a2061646472657373207a65726f206973206e6f742061207660448201526930b634b21037bbb732b960b11b60648201526084015b60405180910390fd5b5060008181526097602090815260408083206001600160a01b03861684529091529020545b92915050565b600061064283836115f6565b1580156106565750610654838361122b565b155b80156106785750600082815260fe602052604090206003810154600290910154105b801561068b57506106898383610ceb565b155b801561069b575061069b836113b2565b80156106ae57506106ac8383610ed3565b155b9392505050565b60006001600160e01b03198216636cdb3d1360e11b14806106e657506001600160e01b031982166303a24d0760e21b145b8061063057506301ffc9a760e01b6001600160e01b0319831614610630565b6060610630826118b7565b610718611996565b600081815260fe6020818152604080842084815581518084019092528482529385905291905260019091019061074e9082613203565b50600081815260fe602081815260408084206002810185905560038101859055600481018590558151808401909252848252938590529190526005909101906107979082613203565b50600081815260fe602052604081206107b591600790910190612998565b600081815260fe602052604081206107d2916006909101906129a7565b50565b6107dd611996565b6107e782826119f0565b5050565b60fb546040516370a0823160e01b81526001600160a01b03838116600483015260009216906370a0823190602401602060405180830381865afa158015610836573d6000803e3d6000fd5b505050506040513d601f19601f8201168201806040525081019061085a91906132c2565b151592915050565b60fd805461086f90613189565b80601f016020809104026020016040519081016040528092919081815260200182805461089b90613189565b80156108e85780601f106108bd576101008083540402835291602001916108e8565b820191906000526020600020905b8154815290600101906020018083116108cb57829003601f168201915b505050505081565b6001600160a01b03851633148061090c575061090c85336104fb565b6109285760405162461bcd60e51b8152600401610602906132db565b6109358585858585611a4d565b5050505050565b610100602052816000526040600020818154811061095957600080fd5b90600052602060002001600091509150505481565b3332811461097b57600080fd5b610984816107eb565b6109a05760405162461bcd60e51b815260040161060290613329565b6000805b83518110156109f3578381815181106109bf576109bf613360565b602002602001015191506109d33383610636565b156109e1576109e1826110bc565b6109ec60018261338c565b90506109a4565b50505050565b60608151835114610a5e5760405162461bcd60e51b815260206004820152602960248201527f455243313135353a206163636f756e747320616e6420696473206c656e677468604482015268040dad2e6dac2e8c6d60bb1b6064820152608401610602565b600083516001600160401b03811115610a7957610a79612aee565b604051908082528060200260200182016040528015610aa2578160200160208202803683370190505b50905060005b8451811015610b1a57610aed858281518110610ac657610ac6613360565b6020026020010151858381518110610ae057610ae0613360565b602002602001015161059b565b828281518110610aff57610aff613360565b6020908102919091010152610b138161339f565b9050610aa8565b509392505050565b610b2a611996565b6101015460031115610b3b57600080fd5b82610101600081548110610b5157610b51613360565b906000526020600020018190555081610101600181548110610b7557610b75613360565b906000526020600020018190555080610101600281548110610b9957610b99613360565b600091825260209091200155505050565b610bb2611996565b610bbc6000611c49565b565b600054610100900460ff1615808015610bde5750600054600160ff909116105b80610bf85750303b158015610bf8575060005460ff166001145b610c5b5760405162461bcd60e51b815260206004820152602e60248201527f496e697469616c697a61626c653a20636f6e747261637420697320616c72656160448201526d191e481a5b9a5d1a585b1a5e995960921b6064820152608401610602565b6000805460ff191660011790558015610c7e576000805461ff0019166101001790555b610c9660405180602001604052806000815250611c9b565b610ca08383611ccb565b8015610ce6576000805461ff0019169055604051600181527f7f26b83ff96e1f2b6a682f133852f6798a09c465da95921460cefb38474024989060200160405180910390a15b505050565b6000610cf7838361059b565b15159392505050565b60fe6020526000908152604090208054600182018054919291610d2290613189565b80601f0160208091040260200160405190810160405280929190818152602001828054610d4e90613189565b8015610d9b5780601f10610d7057610100808354040283529160200191610d9b565b820191906000526020600020905b815481529060010190602001808311610d7e57829003601f168201915b505050505090806002015490806003015490806004015490806005018054610dc290613189565b80601f0160208091040260200160405190810160405280929190818152602001828054610dee90613189565b8015610e3b5780601f10610e1057610100808354040283529160200191610e3b565b820191906000526020600020905b815481529060010190602001808311610e1e57829003601f168201915b505050505090806015018054610e5090613189565b80601f0160208091040260200160405190810160405280929190818152602001828054610e7c90613189565b8015610ec95780601f10610e9e57610100808354040283529160200191610ec9565b820191906000526020600020905b815481529060010190602001808311610eac57829003601f168201915b5050505050905087565b60008080805b6001600160a01b03861660009081526101006020526040902054831015611094576001600160a01b038616600090815261010060205260409020805484908110610f2557610f25613360565b906000526020600020015490508060000315611082575b600782101561108257600081815260fe6020526040902060079081019083908110610f6957610f69613360565b6002020154600086815260fe6020526040902060079081019084908110610f9257610f92613360565b6002020154101561100957600081815260fe6020526040902060079081019083908110610fc157610fc1613360565b6002020154600086815260fe6020526040902060079081019084908110610fea57610fea613360565b600202016001015411156110045760019350505050610630565b611070565b600085815260fe602052604090206007908101908390811061102d5761102d613360565b6002020154600082815260fe602052604090206007908101908490811061105657611056613360565b600202016001015411156110705760019350505050610630565b61107b60018361338c565b9150610f3c565b61108d60018461338c565b9250610ed9565b50600095945050505050565b6110a8611996565b6107d281611d6c565b6107e7338383611d78565b333281146110c957600080fd5b6110d2816107eb565b6110ee5760405162461bcd60e51b815260040161060290613329565b6110f83383610636565b61110157600080fd5b6107e73383611e58565b611113611996565b600087815260fe60205260409020541561112c57600080fd5b600087815260fe6020526040902087815560010161114a8782613203565b50600087815260fe6020526040902060038101869055600481018590556005016111748482613203565b5060005b60078110156112215782816007811061119357611193613360565b602002015160fe60008a815260200190815260200160002060070182600781106111bf576111bf613360565b60020201558181600781106111d6576111d6613360565b602002015160fe60008a8152602001908152602001600020600701826007811061120257611202613360565b600202016001018190555060018161121a919061338c565b9050611178565b5050505050505050565b600081815260fe6020526040812060060154810361124b57506000610630565b60005b600083815260fe602052604090206006015481101561132257600083815260fe6020526040902060060180548290811061128a5761128a613360565b6000918252602090912001546040516370a0823160e01b81526001600160a01b038681166004830152909116906370a0823190602401602060405180830381865afa1580156112dd573d6000803e3d6000fd5b505050506040513d601f19601f8201168201806040525081019061130191906132c2565b15611310576000915050610630565b61131b60018261338c565b905061124e565b5060019392505050565b610101818154811061133d57600080fd5b600091825260209091200154905081565b611356611996565b600082815260fe6020526040812054900361137057600080fd5b600091825260fe6020908152604083206006018054600181018255908452922090910180546001600160a01b0319166001600160a01b03909216919091179055565b60fb54604051630861b4bd60e41b81526001600160a01b038381166004830152600092839291169063861b4bd090602401602060405180830381865afa158015611400573d6000803e3d6000fd5b505050506040513d601f19601f8201168201806040525081019061142491906132c2565b60fb546040516301b50e1160e11b815260048101839052919250602d916001600160a01b039091169063036a1c2290602401602060405180830381865afa158015611473573d6000803e3d6000fd5b505050506040513d601f19601f8201168201806040525081019061149791906132c2565b10156114c8576101016002815481106114b2576114b2613360565b9060005260206000200154421015915050919050565b60fb546040516301b50e1160e11b815260048101839052605a916001600160a01b03169063036a1c2290602401602060405180830381865afa158015611512573d6000803e3d6000fd5b505050506040513d601f19601f8201168201806040525081019061153691906132c2565b1015611551576101016001815481106114b2576114b2613360565b60fb546040516301b50e1160e11b8152600481018390526087916001600160a01b03169063036a1c2290602401602060405180830381865afa15801561159b573d6000803e3d6000fd5b505050506040513d601f19601f820116820180604052508101906115bf91906132c2565b10156115da576101016000815481106114b2576114b2613360565b50600192915050565b50919050565b6115f1611996565b60fc55565b60fc54600082815260fe60209081526040808320600401546001600160a01b038716845260ff90925282205491929161162f919061338c565b119392505050565b61163f611996565b600082815260fe6020526040812054900361165957600080fd5b60005b600083815260fe6020526040902060060154811015610ce657600083815260fe6020526040902060060180546001600160a01b0384169190839081106116a4576116a4613360565b6000918252602090912001546001600160a01b03160361179b57600083815260fe6020526040902060060180546116dd906001906133b8565b815481106116ed576116ed613360565b600091825260208083209091015485835260fe909152604090912060060180546001600160a01b03909216918390811061172957611729613360565b600091825260208083209190910180546001600160a01b0319166001600160a01b03949094169390931790925584815260fe90915260409020600601805480611774576117746133cb565b600082815260209020810160001990810180546001600160a01b0319169055019055505050565b6117a660018261338c565b905061165c565b6001600160a01b0385163314806117c957506117c985336104fb565b6117e55760405162461bcd60e51b8152600401610602906132db565b6109358585858585611e74565b6117fa611996565b6001600160a01b03811661185f5760405162461bcd60e51b815260206004820152602660248201527f4f776e61626c653a206e6577206f776e657220697320746865207a65726f206160448201526564647265737360d01b6064820152608401610602565b6107d281611c49565b3332811461187557600080fd5b61187e816107eb565b61189a5760405162461bcd60e51b815260040161060290613329565b6118a43383610ceb565b6118ad57600080fd5b6107e73383611fbe565b600081815260ca60205260408120805460609291906118d590613189565b80601f016020809104026020016040519081016040528092919081815260200182805461190190613189565b801561194e5780601f106119235761010080835404028352916020019161194e565b820191906000526020600020905b81548152906001019060200180831161193157829003601f168201915b50505050509050600081511161196c5761196783611fca565b6106ae565b60c9816040516020016119809291906133e1565b6040516020818303038152906040529392505050565b6033546001600160a01b03163314610bbc5760405162461bcd60e51b815260206004820181905260248201527f4f776e61626c653a2063616c6c6572206973206e6f7420746865206f776e65726044820152606401610602565b600082815260ca60205260409020611a088282613203565b50817f6bb7ff708619ba0610cba295a58592e0451dee2622938c8755667688daf3529b611a3484610705565b604051611a419190612adb565b60405180910390a25050565b8151835114611aaf5760405162461bcd60e51b815260206004820152602860248201527f455243313135353a2069647320616e6420616d6f756e7473206c656e677468206044820152670dad2e6dac2e8c6d60c31b6064820152608401610602565b6001600160a01b038416611ad55760405162461bcd60e51b815260040161060290613468565b33611ae481878787878761205e565b60005b8451811015611bcd576000858281518110611b0457611b04613360565b602002602001015190506000858381518110611b2257611b22613360565b60209081029190910181015160008481526097835260408082206001600160a01b038e168352909352919091205490915081811015611b735760405162461bcd60e51b8152600401610602906134ad565b60008381526097602090815260408083206001600160a01b038e8116855292528083208585039055908b16825281208054849290611bb290849061338c565b9250508190555050505080611bc69061339f565b9050611ae7565b50846001600160a01b0316866001600160a01b0316826001600160a01b03167f4a39dc06d4c0dbc64b70af90fd698a233a518aa5d07e595d983b8c0526c8f7fb8787604051611c1d9291906134f7565b60405180910390a4611c338187878787876120ce565b611c41818787878787612432565b505050505050565b603380546001600160a01b038381166001600160a01b0319831681179093556040519116919082907f8be0079c531659141344cd1fd0a4f28419497f9722a3daafe3b4186f6b6457e090600090a35050565b600054610100900460ff16611cc25760405162461bcd60e51b815260040161060290613525565b6107d28161258d565b600054610100900460ff16611cf25760405162461bcd60e51b815260040161060290613525565b60fb80546001600160a01b0319166001600160a01b03841617905560fd611d198282613203565b505061010180546001818101835560008381527f109ea3cebb188b9c1b9fc5bb3920be60dfdc8699098dff92f3d80daaca7476899283018190558354808301855583018190558354918201909355015550565b60c96107e78282613203565b816001600160a01b0316836001600160a01b031603611deb5760405162461bcd60e51b815260206004820152602960248201527f455243313135353a2073657474696e6720617070726f76616c20737461747573604482015268103337b91039b2b63360b91b6064820152608401610602565b6001600160a01b03838116600081815260986020908152604080832094871680845294825291829020805460ff191686151590811790915591519182527f17307eab39ab6107e8899845ad3d59bd9653f200f220920489ca2b5937696c31910160405180910390a3505050565b6107e782826001604051806020016040528060008152506125bd565b6001600160a01b038416611e9a5760405162461bcd60e51b815260040161060290613468565b336000611ea6856126e8565b90506000611eb3856126e8565b9050611ec383898985858961205e565b60008681526097602090815260408083206001600160a01b038c16845290915290205485811015611f065760405162461bcd60e51b8152600401610602906134ad565b60008781526097602090815260408083206001600160a01b038d8116855292528083208985039055908a16825281208054889290611f4590849061338c565b909155505060408051888152602081018890526001600160a01b03808b16928c821692918816917fc3d58168c5ae7397731d063d5bbf3d657854427343f4c083240f7aacaa2d0f62910160405180910390a4611fa5848a8a86868a6120ce565b611fb3848a8a8a8a8a612733565b505050505050505050565b6107e7828260016127ee565b606060998054611fd990613189565b80601f016020809104026020016040519081016040528092919081815260200182805461200590613189565b80156120525780601f1061202757610100808354040283529160200191612052565b820191906000526020600020905b81548152906001019060200180831161203557829003601f168201915b50505050509050919050565b60005b83518110156120c5576001600160a01b038516156120b357612082856107eb565b156120b3576120aa8585838151811061209d5761209d613360565b6020026020010151610636565b6120b357600080fd5b6120be60018261338c565b9050612061565b50505050505050565b6000805b8451821015611221576001600160a01b038616156121545760fe600086848151811061210057612100613360565b602002602001015181526020019081526020016000206004015460ff6000886001600160a01b03166001600160a01b03168152602001908152602001600020600082825461214e919061338c565b90915550505b6001600160a01b038716156121cd5760fe600086848151811061217957612179613360565b602002602001015181526020019081526020016000206004015460ff6000896001600160a01b03166001600160a01b0316815260200190815260200160002060008282546121c791906133b8565b90915550505b6001600160a01b03861660009081526101006020526040902085518690849081106121fa576121fa613360565b602090810291909101810151825460018101845560009384529190922001555b6001600160a01b038716600090815261010060205260409020548110156123785784828151811061224d5761224d613360565b60200260200101516101006000896001600160a01b03166001600160a01b03168152602001908152602001600020828154811061228c5761228c613360565b906000526020600020015403612366576001600160a01b03871660009081526101006020526040902080546122c3906001906133b8565b815481106122d3576122d3613360565b90600052602060002001546101006000896001600160a01b03166001600160a01b03168152602001908152602001600020828154811061231557612315613360565b60009182526020808320909101929092556001600160a01b03891681526101009091526040902080548061234b5761234b6133cb565b60019003818190600052602060002001600090559055612378565b61237160018261338c565b905061221a565b6001600160a01b0387166123cc57600160fe600087858151811061239e5761239e613360565b6020026020010151815260200190815260200160002060020160008282546123c6919061338c565b90915550505b6001600160a01b03861661242057600160fe60008785815181106123f2576123f2613360565b60200260200101518152602001908152602001600020600201600082825461241a91906133b8565b90915550505b61242b60018361338c565b91506120d2565b6001600160a01b0384163b15611c415760405163bc197c8160e01b81526001600160a01b0385169063bc197c81906124769089908990889088908890600401613570565b6020604051808303816000875af19250505080156124b1575060408051601f3d908101601f191682019092526124ae918101906135ce565b60015b61255d576124bd6135eb565b806308c379a0036124f657506124d1613607565b806124dc57506124f8565b8060405162461bcd60e51b81526004016106029190612adb565b505b60405162461bcd60e51b815260206004820152603460248201527f455243313135353a207472616e7366657220746f206e6f6e2d455243313135356044820152732932b1b2b4bb32b91034b6b83632b6b2b73a32b960611b6064820152608401610602565b6001600160e01b0319811663bc197c8160e01b146120c55760405162461bcd60e51b815260040161060290613690565b600054610100900460ff166125b45760405162461bcd60e51b815260040161060290613525565b6107d28161298c565b6001600160a01b03841661261d5760405162461bcd60e51b815260206004820152602160248201527f455243313135353a206d696e7420746f20746865207a65726f206164647265736044820152607360f81b6064820152608401610602565b336000612629856126e8565b90506000612636856126e8565b90506126478360008985858961205e565b60008681526097602090815260408083206001600160a01b038b1684529091528120805487929061267990849061338c565b909155505060408051878152602081018790526001600160a01b03808a1692600092918716917fc3d58168c5ae7397731d063d5bbf3d657854427343f4c083240f7aacaa2d0f62910160405180910390a46126d9836000898585896120ce565b6120c583600089898989612733565b6040805160018082528183019092526060916000919060208083019080368337019050509050828160008151811061272257612722613360565b602090810291909101015292915050565b6001600160a01b0384163b15611c415760405163f23a6e6160e01b81526001600160a01b0385169063f23a6e619061277790899089908890889088906004016136d8565b6020604051808303816000875af19250505080156127b2575060408051601f3d908101601f191682019092526127af918101906135ce565b60015b6127be576124bd6135eb565b6001600160e01b0319811663f23a6e6160e01b146120c55760405162461bcd60e51b815260040161060290613690565b6001600160a01b0383166128505760405162461bcd60e51b815260206004820152602360248201527f455243313135353a206275726e2066726f6d20746865207a65726f206164647260448201526265737360e81b6064820152608401610602565b33600061285c846126e8565b90506000612869846126e8565b90506128898387600085856040518060200160405280600081525061205e565b60008581526097602090815260408083206001600160a01b038a168452909152902054848110156129085760405162461bcd60e51b8152602060048201526024808201527f455243313135353a206275726e20616d6f756e7420657863656564732062616c604482015263616e636560e01b6064820152608401610602565b60008681526097602090815260408083206001600160a01b038b81168086529184528285208a8703905582518b81529384018a90529092908816917fc3d58168c5ae7397731d063d5bbf3d657854427343f4c083240f7aacaa2d0f62910160405180910390a46120c5848860008686604051806020016040528060008152506120ce565b60996107e78282613203565b506107d290600e8101906129c5565b50805460008255906000526020600020908101906107d291906129e4565b5b808211156129e057600080825560018201556002016129c6565b5090565b5b808211156129e057600081556001016129e5565b80356001600160a01b0381168114612a1057600080fd5b919050565b60008060408385031215612a2857600080fd5b612a31836129f9565b946020939093013593505050565b6001600160e01b0319811681146107d257600080fd5b600060208284031215612a6757600080fd5b81356106ae81612a3f565b600060208284031215612a8457600080fd5b5035919050565b60005b83811015612aa6578181015183820152602001612a8e565b50506000910152565b60008151808452612ac7816020860160208601612a8b565b601f01601f19169290920160200192915050565b6020815260006106ae6020830184612aaf565b634e487b7160e01b600052604160045260246000fd5b601f8201601f191681016001600160401b0381118282101715612b2957612b29612aee565b6040525050565b600082601f830112612b4157600080fd5b81356001600160401b03811115612b5a57612b5a612aee565b604051612b71601f8301601f191660200182612b04565b818152846020838601011115612b8657600080fd5b816020850160208301376000918101602001919091529392505050565b60008060408385031215612bb657600080fd5b8235915060208301356001600160401b03811115612bd357600080fd5b612bdf85828601612b30565b9150509250929050565b600060208284031215612bfb57600080fd5b6106ae826129f9565b60006001600160401b03821115612c1d57612c1d612aee565b5060051b60200190565b600082601f830112612c3857600080fd5b81356020612c4582612c04565b604051612c528282612b04565b83815260059390931b8501820192828101915086841115612c7257600080fd5b8286015b84811015612c8d5780358352918301918301612c76565b509695505050505050565b600080600080600060a08688031215612cb057600080fd5b612cb9866129f9565b9450612cc7602087016129f9565b935060408601356001600160401b0380821115612ce357600080fd5b612cef89838a01612c27565b94506060880135915080821115612d0557600080fd5b612d1189838a01612c27565b93506080880135915080821115612d2757600080fd5b50612d3488828901612b30565b9150509295509295909350565b600060208284031215612d5357600080fd5b81356001600160401b03811115612d6957600080fd5b612d7584828501612c27565b949350505050565b60008060408385031215612d9057600080fd5b82356001600160401b0380821115612da757600080fd5b818501915085601f830112612dbb57600080fd5b81356020612dc882612c04565b604051612dd58282612b04565b83815260059390931b8501820192828101915089841115612df557600080fd5b948201945b83861015612e1a57612e0b866129f9565b82529482019490820190612dfa565b96505086013592505080821115612e3057600080fd5b50612bdf85828601612c27565b600081518084526020808501945080840160005b83811015612e6d57815187529582019590820190600101612e51565b509495945050505050565b6020815260006106ae6020830184612e3d565b600080600060608486031215612ea057600080fd5b505081359360208301359350604090920135919050565b60008060408385031215612eca57600080fd5b612ed3836129f9565b915060208301356001600160401b03811115612bd357600080fd5b87815260e060208201526000612f0760e0830189612aaf565b87604084015286606084015285608084015282810360a0840152612f2b8186612aaf565b905082810360c0840152612f3f8185612aaf565b9a9950505050505050505050565b600060208284031215612f5f57600080fd5b81356001600160401b03811115612f7557600080fd5b612d7584828501612b30565b60008060408385031215612f9457600080fd5b612f9d836129f9565b915060208301358015158114612fb257600080fd5b809150509250929050565b600082601f830112612fce57600080fd5b60405160e081018181106001600160401b0382111715612ff057612ff0612aee565b6040528060e084018581111561300557600080fd5b845b8181101561301f578035835260209283019201613007565b509195945050505050565b6000806000806000806000610260888a03121561304657600080fd5b8735965060208801356001600160401b038082111561306457600080fd5b6130708b838c01612b30565b975060408a0135965060608a0135955060808a013591508082111561309457600080fd5b506130a18a828b01612b30565b9350506130b18960a08a01612fbd565b91506130c1896101808a01612fbd565b905092959891949750929550565b600080604083850312156130e257600080fd5b823591506130f2602084016129f9565b90509250929050565b6000806040838503121561310e57600080fd5b613117836129f9565b91506130f2602084016129f9565b600080600080600060a0868803121561313d57600080fd5b613146866129f9565b9450613154602087016129f9565b9350604086013592506060860135915060808601356001600160401b0381111561317d57600080fd5b612d3488828901612b30565b600181811c9082168061319d57607f821691505b6020821081036115e357634e487b7160e01b600052602260045260246000fd5b601f821115610ce657600081815260208120601f850160051c810160208610156131e45750805b601f850160051c820191505b81811015611c41578281556001016131f0565b81516001600160401b0381111561321c5761321c612aee565b6132308161322a8454613189565b846131bd565b602080601f831160018114613265576000841561324d5750858301515b600019600386901b1c1916600185901b178555611c41565b600085815260208120601f198616915b8281101561329457888601518255948401946001909101908401613275565b50858210156132b25787850151600019600388901b60f8161c191681555b5050505050600190811b01905550565b6000602082840312156132d457600080fd5b5051919050565b6020808252602e908201527f455243313135353a2063616c6c6572206973206e6f7420746f6b656e206f776e60408201526d195c881bdc88185c1c1c9bdd995960921b606082015260800190565b60208082526017908201527f446f6573206e6f74206861766520616e2055572049442e000000000000000000604082015260600190565b634e487b7160e01b600052603260045260246000fd5b634e487b7160e01b600052601160045260246000fd5b8082018082111561063057610630613376565b6000600182016133b1576133b1613376565b5060010190565b8181038181111561063057610630613376565b634e487b7160e01b600052603160045260246000fd5b60008084546133ef81613189565b60018281168015613407576001811461341c5761344b565b60ff198416875282151583028701945061344b565b8860005260208060002060005b858110156134425781548a820152908401908201613429565b50505082870194505b50505050835161345f818360208801612a8b565b01949350505050565b60208082526025908201527f455243313135353a207472616e7366657220746f20746865207a65726f206164604082015264647265737360d81b606082015260800190565b6020808252602a908201527f455243313135353a20696e73756666696369656e742062616c616e636520666f60408201526939103a3930b739b332b960b11b606082015260800190565b60408152600061350a6040830185612e3d565b828103602084015261351c8185612e3d565b95945050505050565b6020808252602b908201527f496e697469616c697a61626c653a20636f6e7472616374206973206e6f74206960408201526a6e697469616c697a696e6760a81b606082015260800190565b6001600160a01b0386811682528516602082015260a06040820181905260009061359c90830186612e3d565b82810360608401526135ae8186612e3d565b905082810360808401526135c28185612aaf565b98975050505050505050565b6000602082840312156135e057600080fd5b81516106ae81612a3f565b600060033d11156136045760046000803e5060005160e01c5b90565b600060443d10156136155790565b6040516003193d81016004833e81513d6001600160401b03816024840111818411171561364457505050505090565b828501915081518181111561365c5750505050505090565b843d87010160208285010111156136765750505050505090565b61368560208286010187612b04565b509095945050505050565b60208082526028908201527f455243313135353a204552433131353552656365697665722072656a656374656040820152676420746f6b656e7360c01b606082015260800190565b6001600160a01b03868116825285166020820152604081018490526060810183905260a06080820181905260009061371290830184612aaf565b97965050505050505056fea26469706673582212208c152763cef53a6c1a4292f7f0cfc66d9c6f6389297d89411a1f6b49a395eae164736f6c63430008110033",
  "devdoc": {
    "kind": "dev",
    "methods": {
      "balanceOf(address,uint256)": {
        "details": "See {IERC1155-balanceOf}. Requirements: - `account` cannot be the zero address."
      },
      "balanceOfBatch(address[],uint256[])": {
        "details": "See {IERC1155-balanceOfBatch}. Requirements: - `accounts` and `ids` must have the same length."
      },
      "isApprovedForAll(address,address)": {
        "details": "See {IERC1155-isApprovedForAll}."
      },
      "owner()": {
        "details": "Returns the address of the current owner."
      },
      "renounceOwnership()": {
        "details": "Leaves the contract without owner. It will not be possible to call `onlyOwner` functions anymore. Can only be called by the current owner. NOTE: Renouncing ownership will leave the contract without an owner, thereby removing any functionality that is only available to the owner."
      },
      "safeBatchTransferFrom(address,address,uint256[],uint256[],bytes)": {
        "details": "See {IERC1155-safeBatchTransferFrom}."
      },
      "safeTransferFrom(address,address,uint256,uint256,bytes)": {
        "details": "See {IERC1155-safeTransferFrom}."
      },
      "setApprovalForAll(address,bool)": {
        "details": "See {IERC1155-setApprovalForAll}."
      },
      "supportsInterface(bytes4)": {
        "details": "See {IERC165-supportsInterface}."
      },
      "transferOwnership(address)": {
        "details": "Transfers ownership of the contract to a new account (`newOwner`). Can only be called by the current owner."
      }
    },
    "version": 1
  },
  "userdoc": {
    "kind": "user",
    "methods": {},
    "version": 1
  },
  "storageLayout": {
    "storage": [
      {
        "astId": 138,
        "contract": "contracts/UWClasses/UWClassesUpgradeable.sol:UWClassesUpgradeable",
        "label": "_initialized",
        "offset": 0,
        "slot": "0",
        "type": "t_uint8"
      },
      {
        "astId": 141,
        "contract": "contracts/UWClasses/UWClassesUpgradeable.sol:UWClassesUpgradeable",
        "label": "_initializing",
        "offset": 1,
        "slot": "0",
        "type": "t_bool"
      },
      {
        "astId": 3293,
        "contract": "contracts/UWClasses/UWClassesUpgradeable.sol:UWClassesUpgradeable",
        "label": "__gap",
        "offset": 0,
        "slot": "1",
        "type": "t_array(t_uint256)50_storage"
      },
      {
        "astId": 10,
        "contract": "contracts/UWClasses/UWClassesUpgradeable.sol:UWClassesUpgradeable",
        "label": "_owner",
        "offset": 0,
        "slot": "51",
        "type": "t_address"
      },
      {
        "astId": 130,
        "contract": "contracts/UWClasses/UWClassesUpgradeable.sol:UWClassesUpgradeable",
        "label": "__gap",
        "offset": 0,
        "slot": "52",
        "type": "t_array(t_uint256)49_storage"
      },
      {
        "astId": 3512,
        "contract": "contracts/UWClasses/UWClassesUpgradeable.sol:UWClassesUpgradeable",
        "label": "__gap",
        "offset": 0,
        "slot": "101",
        "type": "t_array(t_uint256)50_storage"
      },
      {
        "astId": 329,
        "contract": "contracts/UWClasses/UWClassesUpgradeable.sol:UWClassesUpgradeable",
        "label": "_balances",
        "offset": 0,
        "slot": "151",
        "type": "t_mapping(t_uint256,t_mapping(t_address,t_uint256))"
      },
      {
        "astId": 335,
        "contract": "contracts/UWClasses/UWClassesUpgradeable.sol:UWClassesUpgradeable",
        "label": "_operatorApprovals",
        "offset": 0,
        "slot": "152",
        "type": "t_mapping(t_address,t_mapping(t_address,t_bool))"
      },
      {
        "astId": 337,
        "contract": "contracts/UWClasses/UWClassesUpgradeable.sol:UWClassesUpgradeable",
        "label": "_uri",
        "offset": 0,
        "slot": "153",
        "type": "t_string_storage"
      },
      {
        "astId": 1544,
        "contract": "contracts/UWClasses/UWClassesUpgradeable.sol:UWClassesUpgradeable",
        "label": "__gap",
        "offset": 0,
        "slot": "154",
        "type": "t_array(t_uint256)47_storage"
      },
      {
        "astId": 1742,
        "contract": "contracts/UWClasses/UWClassesUpgradeable.sol:UWClassesUpgradeable",
        "label": "_baseURI",
        "offset": 0,
        "slot": "201",
        "type": "t_string_storage"
      },
      {
        "astId": 1746,
        "contract": "contracts/UWClasses/UWClassesUpgradeable.sol:UWClassesUpgradeable",
        "label": "_tokenURIs",
        "offset": 0,
        "slot": "202",
        "type": "t_mapping(t_uint256,t_string_storage)"
      },
      {
        "astId": 1821,
        "contract": "contracts/UWClasses/UWClassesUpgradeable.sol:UWClassesUpgradeable",
        "label": "__gap",
        "offset": 0,
        "slot": "203",
        "type": "t_array(t_uint256)48_storage"
      },
      {
        "astId": 4408,
        "contract": "contracts/UWClasses/UWClassesUpgradeable.sol:UWClassesUpgradeable",
        "label": "UWIDContractAddress",
        "offset": 0,
        "slot": "251",
        "type": "t_address"
      },
      {
        "astId": 4411,
        "contract": "contracts/UWClasses/UWClassesUpgradeable.sol:UWClassesUpgradeable",
        "label": "maxAllowedCredits",
        "offset": 0,
        "slot": "252",
        "type": "t_uint256"
      },
      {
        "astId": 4413,
        "contract": "contracts/UWClasses/UWClassesUpgradeable.sol:UWClassesUpgradeable",
        "label": "quarterName",
        "offset": 0,
        "slot": "253",
        "type": "t_string_storage"
      },
      {
        "astId": 4446,
        "contract": "contracts/UWClasses/UWClassesUpgradeable.sol:UWClassesUpgradeable",
        "label": "classes",
        "offset": 0,
        "slot": "254",
        "type": "t_mapping(t_uint256,t_struct(Class)4441_storage)"
      },
      {
        "astId": 4450,
        "contract": "contracts/UWClasses/UWClassesUpgradeable.sol:UWClassesUpgradeable",
        "label": "accountCredits",
        "offset": 0,
        "slot": "255",
        "type": "t_mapping(t_address,t_uint256)"
      },
      {
        "astId": 4455,
        "contract": "contracts/UWClasses/UWClassesUpgradeable.sol:UWClassesUpgradeable",
        "label": "accountClasses",
        "offset": 0,
        "slot": "256",
        "type": "t_mapping(t_address,t_array(t_uint256)dyn_storage)"
      },
      {
        "astId": 4458,
        "contract": "contracts/UWClasses/UWClassesUpgradeable.sol:UWClassesUpgradeable",
        "label": "registrationPeriods",
        "offset": 0,
        "slot": "257",
        "type": "t_array(t_uint256)dyn_storage"
      }
    ],
    "types": {
      "t_address": {
        "encoding": "inplace",
        "label": "address",
        "numberOfBytes": "20"
      },
      "t_array(t_address)dyn_storage": {
        "base": "t_address",
        "encoding": "dynamic_array",
        "label": "address[]",
        "numberOfBytes": "32"
      },
      "t_array(t_struct(ClassTime)4418_storage)7_storage": {
        "base": "t_struct(ClassTime)4418_storage",
        "encoding": "inplace",
        "label": "struct UWClassesUpgradeable.ClassTime[7]",
        "numberOfBytes": "448"
      },
      "t_array(t_uint256)47_storage": {
        "base": "t_uint256",
        "encoding": "inplace",
        "label": "uint256[47]",
        "numberOfBytes": "1504"
      },
      "t_array(t_uint256)48_storage": {
        "base": "t_uint256",
        "encoding": "inplace",
        "label": "uint256[48]",
        "numberOfBytes": "1536"
      },
      "t_array(t_uint256)49_storage": {
        "base": "t_uint256",
        "encoding": "inplace",
        "label": "uint256[49]",
        "numberOfBytes": "1568"
      },
      "t_array(t_uint256)50_storage": {
        "base": "t_uint256",
        "encoding": "inplace",
        "label": "uint256[50]",
        "numberOfBytes": "1600"
      },
      "t_array(t_uint256)dyn_storage": {
        "base": "t_uint256",
        "encoding": "dynamic_array",
        "label": "uint256[]",
        "numberOfBytes": "32"
      },
      "t_bool": {
        "encoding": "inplace",
        "label": "bool",
        "numberOfBytes": "1"
      },
      "t_bytes_storage": {
        "encoding": "bytes",
        "label": "bytes",
        "numberOfBytes": "32"
      },
      "t_mapping(t_address,t_array(t_uint256)dyn_storage)": {
        "encoding": "mapping",
        "key": "t_address",
        "label": "mapping(address => uint256[])",
        "numberOfBytes": "32",
        "value": "t_array(t_uint256)dyn_storage"
      },
      "t_mapping(t_address,t_bool)": {
        "encoding": "mapping",
        "key": "t_address",
        "label": "mapping(address => bool)",
        "numberOfBytes": "32",
        "value": "t_bool"
      },
      "t_mapping(t_address,t_mapping(t_address,t_bool))": {
        "encoding": "mapping",
        "key": "t_address",
        "label": "mapping(address => mapping(address => bool))",
        "numberOfBytes": "32",
        "value": "t_mapping(t_address,t_bool)"
      },
      "t_mapping(t_address,t_uint256)": {
        "encoding": "mapping",
        "key": "t_address",
        "label": "mapping(address => uint256)",
        "numberOfBytes": "32",
        "value": "t_uint256"
      },
      "t_mapping(t_uint256,t_mapping(t_address,t_uint256))": {
        "encoding": "mapping",
        "key": "t_uint256",
        "label": "mapping(uint256 => mapping(address => uint256))",
        "numberOfBytes": "32",
        "value": "t_mapping(t_address,t_uint256)"
      },
      "t_mapping(t_uint256,t_string_storage)": {
        "encoding": "mapping",
        "key": "t_uint256",
        "label": "mapping(uint256 => string)",
        "numberOfBytes": "32",
        "value": "t_string_storage"
      },
      "t_mapping(t_uint256,t_struct(Class)4441_storage)": {
        "encoding": "mapping",
        "key": "t_uint256",
        "label": "mapping(uint256 => struct UWClassesUpgradeable.Class)",
        "numberOfBytes": "32",
        "value": "t_struct(Class)4441_storage"
      },
      "t_string_storage": {
        "encoding": "bytes",
        "label": "string",
        "numberOfBytes": "32"
      },
      "t_struct(Class)4441_storage": {
        "encoding": "inplace",
        "label": "struct UWClassesUpgradeable.Class",
        "members": [
          {
            "astId": 4420,
            "contract": "contracts/UWClasses/UWClassesUpgradeable.sol:UWClassesUpgradeable",
            "label": "classId",
            "offset": 0,
            "slot": "0",
            "type": "t_uint256"
          },
          {
            "astId": 4422,
            "contract": "contracts/UWClasses/UWClassesUpgradeable.sol:UWClassesUpgradeable",
            "label": "className",
            "offset": 0,
            "slot": "1",
            "type": "t_string_storage"
          },
          {
            "astId": 4424,
            "contract": "contracts/UWClasses/UWClassesUpgradeable.sol:UWClassesUpgradeable",
            "label": "currentlyEnrolled",
            "offset": 0,
            "slot": "2",
            "type": "t_uint256"
          },
          {
            "astId": 4426,
            "contract": "contracts/UWClasses/UWClassesUpgradeable.sol:UWClassesUpgradeable",
            "label": "enrollCapacity",
            "offset": 0,
            "slot": "3",
            "type": "t_uint256"
          },
          {
            "astId": 4428,
            "contract": "contracts/UWClasses/UWClassesUpgradeable.sol:UWClassesUpgradeable",
            "label": "credits",
            "offset": 0,
            "slot": "4",
            "type": "t_uint256"
          },
          {
            "astId": 4430,
            "contract": "contracts/UWClasses/UWClassesUpgradeable.sol:UWClassesUpgradeable",
            "label": "creditType",
            "offset": 0,
            "slot": "5",
            "type": "t_string_storage"
          },
          {
            "astId": 4433,
            "contract": "contracts/UWClasses/UWClassesUpgradeable.sol:UWClassesUpgradeable",
            "label": "classMajorRestrictions",
            "offset": 0,
            "slot": "6",
            "type": "t_array(t_address)dyn_storage"
          },
          {
            "astId": 4438,
            "contract": "contracts/UWClasses/UWClassesUpgradeable.sol:UWClassesUpgradeable",
            "label": "classTimes",
            "offset": 0,
            "slot": "7",
            "type": "t_array(t_struct(ClassTime)4418_storage)7_storage"
          },
          {
            "astId": 4440,
            "contract": "contracts/UWClasses/UWClassesUpgradeable.sol:UWClassesUpgradeable",
            "label": "data",
            "offset": 0,
            "slot": "21",
            "type": "t_bytes_storage"
          }
        ],
        "numberOfBytes": "704"
      },
      "t_struct(ClassTime)4418_storage": {
        "encoding": "inplace",
        "label": "struct UWClassesUpgradeable.ClassTime",
        "members": [
          {
            "astId": 4415,
            "contract": "contracts/UWClasses/UWClassesUpgradeable.sol:UWClassesUpgradeable",
            "label": "startTime",
            "offset": 0,
            "slot": "0",
            "type": "t_uint256"
          },
          {
            "astId": 4417,
            "contract": "contracts/UWClasses/UWClassesUpgradeable.sol:UWClassesUpgradeable",
            "label": "endTime",
            "offset": 0,
            "slot": "1",
            "type": "t_uint256"
          }
        ],
        "numberOfBytes": "64"
      },
      "t_uint256": {
        "encoding": "inplace",
        "label": "uint256",
        "numberOfBytes": "32"
      },
      "t_uint8": {
        "encoding": "inplace",
        "label": "uint8",
        "numberOfBytes": "1"
      }
    }
  }
}