{
  "address": "0xe663D1CecBe90ac21C2C48f2A899E074346De249",
  "abi": [
    {
      "anonymous": false,
      "inputs": [
        {
          "indexed": true,
          "internalType": "address",
          "name": "owner",
          "type": "address"
        },
        {
          "indexed": true,
          "internalType": "address",
          "name": "approved",
          "type": "address"
        },
        {
          "indexed": true,
          "internalType": "uint256",
          "name": "tokenId",
          "type": "uint256"
        }
      ],
      "name": "Approval",
      "type": "event"
    },
    {
      "anonymous": false,
      "inputs": [
        {
          "indexed": true,
          "internalType": "address",
          "name": "owner",
          "type": "address"
        },
        {
          "indexed": true,
          "internalType": "address",
          "name": "operator",
          "type": "address"
        },
        {
          "indexed": false,
          "internalType": "bool",
          "name": "approved",
          "type": "bool"
        }
      ],
      "name": "ApprovalForAll",
      "type": "event"
    },
    {
      "anonymous": false,
      "inputs": [
        {
          "indexed": false,
          "internalType": "uint8",
          "name": "version",
          "type": "uint8"
        }
      ],
      "name": "Initialized",
      "type": "event"
    },
    {
      "anonymous": false,
      "inputs": [
        {
          "indexed": true,
          "internalType": "address",
          "name": "previousOwner",
          "type": "address"
        },
        {
          "indexed": true,
          "internalType": "address",
          "name": "newOwner",
          "type": "address"
        }
      ],
      "name": "OwnershipTransferred",
      "type": "event"
    },
    {
      "anonymous": false,
      "inputs": [
        {
          "indexed": true,
          "internalType": "address",
          "name": "from",
          "type": "address"
        },
        {
          "indexed": true,
          "internalType": "address",
          "name": "to",
          "type": "address"
        },
        {
          "indexed": true,
          "internalType": "uint256",
          "name": "tokenId",
          "type": "uint256"
        }
      ],
      "name": "Transfer",
      "type": "event"
    },
    {
      "inputs": [
        {
          "internalType": "string",
          "name": "name_",
          "type": "string"
        },
        {
          "internalType": "string",
          "name": "symbol_",
          "type": "string"
        }
      ],
      "name": "__UWID_init",
      "outputs": [],
      "stateMutability": "nonpayable",
      "type": "function"
    },
    {
      "inputs": [
        {
          "internalType": "address",
          "name": "",
          "type": "address"
        }
      ],
      "name": "accountTokenId",
      "outputs": [
        {
          "internalType": "uint256",
          "name": "",
          "type": "uint256"
        }
      ],
      "stateMutability": "view",
      "type": "function"
    },
    {
      "inputs": [
        {
          "internalType": "uint256",
          "name": "tokenId",
          "type": "uint256"
        },
        {
          "internalType": "uint256",
          "name": "creditNum",
          "type": "uint256"
        }
      ],
      "name": "addCredits",
      "outputs": [],
      "stateMutability": "nonpayable",
      "type": "function"
    },
    {
      "inputs": [
        {
          "internalType": "address",
          "name": "to",
          "type": "address"
        },
        {
          "internalType": "uint256",
          "name": "tokenId",
          "type": "uint256"
        }
      ],
      "name": "approve",
      "outputs": [],
      "stateMutability": "nonpayable",
      "type": "function"
    },
    {
      "inputs": [
        {
          "internalType": "address",
          "name": "owner",
          "type": "address"
        }
      ],
      "name": "balanceOf",
      "outputs": [
        {
          "internalType": "uint256",
          "name": "",
          "type": "uint256"
        }
      ],
      "stateMutability": "view",
      "type": "function"
    },
    {
      "inputs": [
        {
          "internalType": "uint256",
          "name": "tokenId",
          "type": "uint256"
        }
      ],
      "name": "burn",
      "outputs": [],
      "stateMutability": "nonpayable",
      "type": "function"
    },
    {
      "inputs": [
        {
          "internalType": "uint256",
          "name": "",
          "type": "uint256"
        }
      ],
      "name": "campus",
      "outputs": [
        {
          "internalType": "string",
          "name": "",
          "type": "string"
        }
      ],
      "stateMutability": "view",
      "type": "function"
    },
    {
      "inputs": [
        {
          "internalType": "uint256",
          "name": "studentId",
          "type": "uint256"
        },
        {
          "internalType": "string",
          "name": "campusName",
          "type": "string"
        }
      ],
      "name": "changeCampus",
      "outputs": [],
      "stateMutability": "nonpayable",
      "type": "function"
    },
    {
      "inputs": [
        {
          "internalType": "uint256",
          "name": "",
          "type": "uint256"
        }
      ],
      "name": "credits",
      "outputs": [
        {
          "internalType": "uint256",
          "name": "",
          "type": "uint256"
        }
      ],
      "stateMutability": "view",
      "type": "function"
    },
    {
      "inputs": [
        {
          "internalType": "uint256",
          "name": "tokenId",
          "type": "uint256"
        }
      ],
      "name": "getApproved",
      "outputs": [
        {
          "internalType": "address",
          "name": "",
          "type": "address"
        }
      ],
      "stateMutability": "view",
      "type": "function"
    },
    {
      "inputs": [
        {
          "internalType": "address",
          "name": "owner",
          "type": "address"
        },
        {
          "internalType": "address",
          "name": "operator",
          "type": "address"
        }
      ],
      "name": "isApprovedForAll",
      "outputs": [
        {
          "internalType": "bool",
          "name": "",
          "type": "bool"
        }
      ],
      "stateMutability": "view",
      "type": "function"
    },
    {
      "inputs": [
        {
          "internalType": "address",
          "name": "to",
          "type": "address"
        },
        {
          "internalType": "string",
          "name": "campusName",
          "type": "string"
        }
      ],
      "name": "mint",
      "outputs": [],
      "stateMutability": "nonpayable",
      "type": "function"
    },
    {
      "inputs": [],
      "name": "name",
      "outputs": [
        {
          "internalType": "string",
          "name": "",
          "type": "string"
        }
      ],
      "stateMutability": "view",
      "type": "function"
    },
    {
      "inputs": [],
      "name": "owner",
      "outputs": [
        {
          "internalType": "address",
          "name": "",
          "type": "address"
        }
      ],
      "stateMutability": "view",
      "type": "function"
    },
    {
      "inputs": [
        {
          "internalType": "uint256",
          "name": "tokenId",
          "type": "uint256"
        }
      ],
      "name": "ownerOf",
      "outputs": [
        {
          "internalType": "address",
          "name": "",
          "type": "address"
        }
      ],
      "stateMutability": "view",
      "type": "function"
    },
    {
      "inputs": [],
      "name": "renounceOwnership",
      "outputs": [],
      "stateMutability": "nonpayable",
      "type": "function"
    },
    {
      "inputs": [
        {
          "internalType": "address",
          "name": "from",
          "type": "address"
        },
        {
          "internalType": "address",
          "name": "to",
          "type": "address"
        },
        {
          "internalType": "uint256",
          "name": "tokenId",
          "type": "uint256"
        }
      ],
      "name": "safeTransferFrom",
      "outputs": [],
      "stateMutability": "nonpayable",
      "type": "function"
    },
    {
      "inputs": [
        {
          "internalType": "address",
          "name": "from",
          "type": "address"
        },
        {
          "internalType": "address",
          "name": "to",
          "type": "address"
        },
        {
          "internalType": "uint256",
          "name": "tokenId",
          "type": "uint256"
        },
        {
          "internalType": "bytes",
          "name": "data",
          "type": "bytes"
        }
      ],
      "name": "safeTransferFrom",
      "outputs": [],
      "stateMutability": "nonpayable",
      "type": "function"
    },
    {
      "inputs": [
        {
          "internalType": "address",
          "name": "operator",
          "type": "address"
        },
        {
          "internalType": "bool",
          "name": "approved",
          "type": "bool"
        }
      ],
      "name": "setApprovalForAll",
      "outputs": [],
      "stateMutability": "nonpayable",
      "type": "function"
    },
    {
      "inputs": [
        {
          "internalType": "uint256",
          "name": "tokenId",
          "type": "uint256"
        },
        {
          "internalType": "uint256",
          "name": "creditNum",
          "type": "uint256"
        }
      ],
      "name": "setCredits",
      "outputs": [],
      "stateMutability": "nonpayable",
      "type": "function"
    },
    {
      "inputs": [
        {
          "internalType": "bytes4",
          "name": "interfaceId",
          "type": "bytes4"
        }
      ],
      "name": "supportsInterface",
      "outputs": [
        {
          "internalType": "bool",
          "name": "",
          "type": "bool"
        }
      ],
      "stateMutability": "view",
      "type": "function"
    },
    {
      "inputs": [],
      "name": "symbol",
      "outputs": [
        {
          "internalType": "string",
          "name": "",
          "type": "string"
        }
      ],
      "stateMutability": "view",
      "type": "function"
    },
    {
      "inputs": [
        {
          "internalType": "uint256",
          "name": "tokenId",
          "type": "uint256"
        }
      ],
      "name": "tokenURI",
      "outputs": [
        {
          "internalType": "string",
          "name": "",
          "type": "string"
        }
      ],
      "stateMutability": "view",
      "type": "function"
    },
    {
      "inputs": [
        {
          "internalType": "address",
          "name": "from",
          "type": "address"
        },
        {
          "internalType": "address",
          "name": "to",
          "type": "address"
        },
        {
          "internalType": "uint256",
          "name": "tokenId",
          "type": "uint256"
        }
      ],
      "name": "transferFrom",
      "outputs": [],
      "stateMutability": "nonpayable",
      "type": "function"
    },
    {
      "inputs": [
        {
          "internalType": "address",
          "name": "newOwner",
          "type": "address"
        }
      ],
      "name": "transferOwnership",
      "outputs": [],
      "stateMutability": "nonpayable",
      "type": "function"
    }
  ],
  "transactionHash": "0x1eb819ef6981496792fc0cd901cc9f4b4fca08223c7d42577ae9ef68a8b7e97a",
  "args": [],
  "numDeployments": 1,
  "solcInputHash": "0d534139d8e306668c80c16f594c4d1c",
  "bytecode": "0x608060405234801561001057600080fd5b50611c21806100206000396000f3fe608060405234801561001057600080fd5b50600436106101735760003560e01c806370a08231116100de5780639ede9ee111610097578063c87b56dd11610071578063c87b56dd14610348578063d0def5211461035b578063e985e9c51461036e578063f2fde38b1461038157600080fd5b80639ede9ee11461030f578063a22cb46514610322578063b88d4fde1461033557600080fd5b806370a08231146102a8578063715018a6146102bb578063861b4bd0146102c35780638da5cb5b146102e357806395d89b41146102f45780639690227a146102fc57600080fd5b80632e566ebd116101305780632e566ebd1461023657806342842e0e1461024957806342966c681461025c57806346684cde1461026f5780636352211e1461028257806368197cef1461029557600080fd5b806301ffc9a714610178578063036a1c22146101a057806306fdde03146101ce578063081812fc146101e3578063095ea7b31461020e57806323b872dd14610223575b600080fd5b61018b61018636600461152c565b610394565b60405190151581526020015b60405180910390f35b6101c06101ae366004611549565b60cb6020526000908152604090205481565b604051908152602001610197565b6101d66103a5565b60405161019791906115b2565b6101f66101f1366004611549565b610437565b6040516001600160a01b039091168152602001610197565b61022161021c3660046115e1565b61045e565b005b61022161023136600461160b565b610578565b610221610244366004611647565b6105a9565b61022161025736600461160b565b6105d8565b61022161026a366004611549565b6105f3565b6101d661027d366004611549565b610607565b6101f6610290366004611549565b6106a1565b6102216102a3366004611647565b610701565b6101c06102b6366004611669565b61071b565b6102216107a1565b6101c06102d1366004611669565b60cc6020526000908152604090205481565b6033546001600160a01b03166101f6565b6101d66107b5565b61022161030a366004611730565b6107c4565b61022161031d366004611794565b6108e8565b6102216103303660046117d1565b610908565b61022161034336600461180d565b610917565b6101d6610356366004611549565b61094f565b610221610369366004611889565b6109c3565b61018b61037c3660046118c1565b610a81565b61022161038f366004611669565b610aaf565b600061039f82610b25565b92915050565b6060609780546103b4906118f4565b80601f01602080910402602001604051908101604052809291908181526020018280546103e0906118f4565b801561042d5780601f106104025761010080835404028352916020019161042d565b820191906000526020600020905b81548152906001019060200180831161041057829003601f168201915b5050505050905090565b600061044282610b75565b506000908152609b60205260409020546001600160a01b031690565b6000610469826106a1565b9050806001600160a01b0316836001600160a01b0316036104db5760405162461bcd60e51b815260206004820152602160248201527f4552433732313a20617070726f76616c20746f2063757272656e74206f776e656044820152603960f91b60648201526084015b60405180910390fd5b336001600160a01b03821614806104f757506104f78133610a81565b6105695760405162461bcd60e51b815260206004820152603d60248201527f4552433732313a20617070726f76652063616c6c6572206973206e6f7420746f60448201527f6b656e206f776e6572206f7220617070726f76656420666f7220616c6c00000060648201526084016104d2565b6105738383610bd4565b505050565b6105823382610c42565b61059e5760405162461bcd60e51b81526004016104d29061192e565b610573838383610ca1565b6105b1610ce2565b600082815260cb6020526040812080548392906105cf908490611991565b90915550505050565b61057383838360405180602001604052806000815250610917565b6105fb610ce2565b61060481610d3c565b50565b60c96020526000908152604090208054610620906118f4565b80601f016020809104026020016040519081016040528092919081815260200182805461064c906118f4565b80156106995780601f1061066e57610100808354040283529160200191610699565b820191906000526020600020905b81548152906001019060200180831161067c57829003601f168201915b505050505081565b6000818152609960205260408120546001600160a01b03168061039f5760405162461bcd60e51b8152602060048201526018602482015277115490cdcc8c4e881a5b9d985b1a59081d1bdad95b88125160421b60448201526064016104d2565b610709610ce2565b600091825260cb602052604090912055565b60006001600160a01b0382166107855760405162461bcd60e51b815260206004820152602960248201527f4552433732313a2061646472657373207a65726f206973206e6f7420612076616044820152683634b21037bbb732b960b91b60648201526084016104d2565b506001600160a01b03166000908152609a602052604090205490565b6107a9610ce2565b6107b36000610ddf565b565b6060609880546103b4906118f4565b600054610100900460ff16158080156107e45750600054600160ff909116105b806107fe5750303b1580156107fe575060005460ff166001145b6108615760405162461bcd60e51b815260206004820152602e60248201527f496e697469616c697a61626c653a20636f6e747261637420697320616c72656160448201526d191e481a5b9a5d1a585b1a5e995960921b60648201526084016104d2565b6000805460ff191660011790558015610884576000805461ff0019166101001790555b61088c610e31565b6108968383610e60565b61089e610e91565b8015610573576000805461ff0019169055604051600181527f7f26b83ff96e1f2b6a682f133852f6798a09c465da95921460cefb38474024989060200160405180910390a1505050565b6108f0610ce2565b600082815260c96020526040902061057382826119f2565b610913338383610ebf565b5050565b6109213383610c42565b61093d5760405162461bcd60e51b81526004016104d29061192e565b61094984848484610f8d565b50505050565b606061095a82610b75565b600061097160408051602081019091526000815290565b9050600081511161099157604051806020016040528060008152506109bc565b8061099b84610fc0565b6040516020016109ac929190611ab2565b6040516020818303038152906040525b9392505050565b6109cb610ce2565b6109d48261071b565b15610a2b5760405162461bcd60e51b815260206004820152602160248201527f746865206163636f756e7420616c72656164792068617320616e2055572049446044820152601760f91b60648201526084016104d2565b610a378260ca54611053565b60ca54600090815260c960205260409020610a5282826119f2565b5060ca80546001600160a01b038416600090815260cc60205260408120829055600192916105cf908490611991565b6001600160a01b039182166000908152609c6020908152604080832093909416825291909152205460ff1690565b610ab7610ce2565b6001600160a01b038116610b1c5760405162461bcd60e51b815260206004820152602660248201527f4f776e61626c653a206e6577206f776e657220697320746865207a65726f206160448201526564647265737360d01b60648201526084016104d2565b61060481610ddf565b60006001600160e01b031982166380ac58cd60e01b1480610b5657506001600160e01b03198216635b5e139f60e01b145b8061039f57506301ffc9a760e01b6001600160e01b031983161461039f565b6000818152609960205260409020546001600160a01b03166106045760405162461bcd60e51b8152602060048201526018602482015277115490cdcc8c4e881a5b9d985b1a59081d1bdad95b88125160421b60448201526064016104d2565b6000818152609b6020526040902080546001600160a01b0319166001600160a01b0384169081179091558190610c09826106a1565b6001600160a01b03167f8c5be1e5ebec7d5bd14f71427d1e84f3dd0314c0f7b2291e5b200ac8c7c3b92560405160405180910390a45050565b600080610c4e836106a1565b9050806001600160a01b0316846001600160a01b03161480610c755750610c758185610a81565b80610c995750836001600160a01b0316610c8e84610437565b6001600160a01b0316145b949350505050565b60405162461bcd60e51b815260206004820152601660248201527521b0b73737ba103a3930b739b332b9102aab9024a21760511b60448201526064016104d2565b6033546001600160a01b031633146107b35760405162461bcd60e51b815260206004820181905260248201527f4f776e61626c653a2063616c6c6572206973206e6f7420746865206f776e657260448201526064016104d2565b6000610d47826106a1565b9050610d5781600084600161106d565b610d60826106a1565b6000838152609b6020908152604080832080546001600160a01b03199081169091556001600160a01b038516808552609a845282852080546000190190558785526099909352818420805490911690555192935084927fddf252ad1be2c89b69c2b068fc378daa952ba7f163c4a11628f55a4df523b3ef908390a45050565b603380546001600160a01b038381166001600160a01b0319831681179093556040519116919082907f8be0079c531659141344cd1fd0a4f28419497f9722a3daafe3b4186f6b6457e090600090a35050565b600054610100900460ff16610e585760405162461bcd60e51b81526004016104d290611ae1565b6107b3611079565b600054610100900460ff16610e875760405162461bcd60e51b81526004016104d290611ae1565b61091382826110a9565b600054610100900460ff16610eb85760405162461bcd60e51b81526004016104d290611ae1565b600160ca55565b816001600160a01b0316836001600160a01b031603610f205760405162461bcd60e51b815260206004820152601960248201527f4552433732313a20617070726f766520746f2063616c6c65720000000000000060448201526064016104d2565b6001600160a01b038381166000818152609c6020908152604080832094871680845294825291829020805460ff191686151590811790915591519182527f17307eab39ab6107e8899845ad3d59bd9653f200f220920489ca2b5937696c31910160405180910390a3505050565b610f98848484610ca1565b610fa4848484846110e9565b6109495760405162461bcd60e51b81526004016104d290611b2c565b60606000610fcd836111ea565b600101905060008167ffffffffffffffff811115610fed57610fed611684565b6040519080825280601f01601f191660200182016040528015611017576020820181803683370190505b5090508181016020015b600019016f181899199a1a9b1b9c1cb0b131b232b360811b600a86061a8153600a850494508461102157509392505050565b6109138282604051806020016040528060008152506112c2565b610949848484846112f5565b600054610100900460ff166110a05760405162461bcd60e51b81526004016104d290611ae1565b6107b333610ddf565b600054610100900460ff166110d05760405162461bcd60e51b81526004016104d290611ae1565b60976110dc83826119f2565b50609861057382826119f2565b60006001600160a01b0384163b156111df57604051630a85bd0160e11b81526001600160a01b0385169063150b7a029061112d903390899088908890600401611b7e565b6020604051808303816000875af1925050508015611168575060408051601f3d908101601f1916820190925261116591810190611bbb565b60015b6111c5573d808015611196576040519150601f19603f3d011682016040523d82523d6000602084013e61119b565b606091505b5080516000036111bd5760405162461bcd60e51b81526004016104d290611b2c565b805181602001fd5b6001600160e01b031916630a85bd0160e11b149050610c99565b506001949350505050565b60008072184f03e93ff9f4daa797ed6e38ed64bf6a1f0160401b83106112295772184f03e93ff9f4daa797ed6e38ed64bf6a1f0160401b830492506040015b6d04ee2d6d415b85acef81000000008310611255576d04ee2d6d415b85acef8100000000830492506020015b662386f26fc10000831061127357662386f26fc10000830492506010015b6305f5e100831061128b576305f5e100830492506008015b612710831061129f57612710830492506004015b606483106112b1576064830492506002015b600a831061039f5760010192915050565b6112cc838361137d565b6112d960008484846110e9565b6105735760405162461bcd60e51b81526004016104d290611b2c565b6001811115610949576001600160a01b0384161561133b576001600160a01b0384166000908152609a602052604081208054839290611335908490611bd8565b90915550505b6001600160a01b03831615610949576001600160a01b0383166000908152609a602052604081208054839290611372908490611991565b909155505050505050565b6001600160a01b0382166113d35760405162461bcd60e51b815260206004820181905260248201527f4552433732313a206d696e7420746f20746865207a65726f206164647265737360448201526064016104d2565b6000818152609960205260409020546001600160a01b0316156114385760405162461bcd60e51b815260206004820152601c60248201527f4552433732313a20746f6b656e20616c7265616479206d696e7465640000000060448201526064016104d2565b61144660008383600161106d565b6000818152609960205260409020546001600160a01b0316156114ab5760405162461bcd60e51b815260206004820152601c60248201527f4552433732313a20746f6b656e20616c7265616479206d696e7465640000000060448201526064016104d2565b6001600160a01b0382166000818152609a6020908152604080832080546001019055848352609990915280822080546001600160a01b0319168417905551839291907fddf252ad1be2c89b69c2b068fc378daa952ba7f163c4a11628f55a4df523b3ef908290a45050565b6001600160e01b03198116811461060457600080fd5b60006020828403121561153e57600080fd5b81356109bc81611516565b60006020828403121561155b57600080fd5b5035919050565b60005b8381101561157d578181015183820152602001611565565b50506000910152565b6000815180845261159e816020860160208601611562565b601f01601f19169290920160200192915050565b6020815260006109bc6020830184611586565b80356001600160a01b03811681146115dc57600080fd5b919050565b600080604083850312156115f457600080fd5b6115fd836115c5565b946020939093013593505050565b60008060006060848603121561162057600080fd5b611629846115c5565b9250611637602085016115c5565b9150604084013590509250925092565b6000806040838503121561165a57600080fd5b50508035926020909101359150565b60006020828403121561167b57600080fd5b6109bc826115c5565b634e487b7160e01b600052604160045260246000fd5b600067ffffffffffffffff808411156116b5576116b5611684565b604051601f8501601f19908116603f011681019082821181831017156116dd576116dd611684565b816040528093508581528686860111156116f657600080fd5b858560208301376000602087830101525050509392505050565b600082601f83011261172157600080fd5b6109bc8383356020850161169a565b6000806040838503121561174357600080fd5b823567ffffffffffffffff8082111561175b57600080fd5b61176786838701611710565b9350602085013591508082111561177d57600080fd5b5061178a85828601611710565b9150509250929050565b600080604083850312156117a757600080fd5b82359150602083013567ffffffffffffffff8111156117c557600080fd5b61178a85828601611710565b600080604083850312156117e457600080fd5b6117ed836115c5565b91506020830135801515811461180257600080fd5b809150509250929050565b6000806000806080858703121561182357600080fd5b61182c856115c5565b935061183a602086016115c5565b925060408501359150606085013567ffffffffffffffff81111561185d57600080fd5b8501601f8101871361186e57600080fd5b61187d8782356020840161169a565b91505092959194509250565b6000806040838503121561189c57600080fd5b6118a5836115c5565b9150602083013567ffffffffffffffff8111156117c557600080fd5b600080604083850312156118d457600080fd5b6118dd836115c5565b91506118eb602084016115c5565b90509250929050565b600181811c9082168061190857607f821691505b60208210810361192857634e487b7160e01b600052602260045260246000fd5b50919050565b6020808252602d908201527f4552433732313a2063616c6c6572206973206e6f7420746f6b656e206f776e6560408201526c1c881bdc88185c1c1c9bdd9959609a1b606082015260800190565b634e487b7160e01b600052601160045260246000fd5b8082018082111561039f5761039f61197b565b601f82111561057357600081815260208120601f850160051c810160208610156119cb5750805b601f850160051c820191505b818110156119ea578281556001016119d7565b505050505050565b815167ffffffffffffffff811115611a0c57611a0c611684565b611a2081611a1a84546118f4565b846119a4565b602080601f831160018114611a555760008415611a3d5750858301515b600019600386901b1c1916600185901b1785556119ea565b600085815260208120601f198616915b82811015611a8457888601518255948401946001909101908401611a65565b5085821015611aa25787850151600019600388901b60f8161c191681555b5050505050600190811b01905550565b60008351611ac4818460208801611562565b835190830190611ad8818360208801611562565b01949350505050565b6020808252602b908201527f496e697469616c697a61626c653a20636f6e7472616374206973206e6f74206960408201526a6e697469616c697a696e6760a81b606082015260800190565b60208082526032908201527f4552433732313a207472616e7366657220746f206e6f6e20455243373231526560408201527131b2b4bb32b91034b6b83632b6b2b73a32b960711b606082015260800190565b6001600160a01b0385811682528416602082015260408101839052608060608201819052600090611bb190830184611586565b9695505050505050565b600060208284031215611bcd57600080fd5b81516109bc81611516565b8181038181111561039f5761039f61197b56fea2646970667358221220ef26a08d81256f82ad4d3eab03789eb850e603f3f8b02daafc956549206ed11164736f6c63430008110033",
  "devdoc": {
    "kind": "dev",
    "methods": {
      "approve(address,uint256)": {
        "details": "See {IERC721-approve}."
      },
      "balanceOf(address)": {
        "details": "See {IERC721-balanceOf}."
      },
      "getApproved(uint256)": {
        "details": "See {IERC721-getApproved}."
      },
      "isApprovedForAll(address,address)": {
        "details": "See {IERC721-isApprovedForAll}."
      },
      "name()": {
        "details": "See {IERC721Metadata-name}."
      },
      "owner()": {
        "details": "Returns the address of the current owner."
      },
      "ownerOf(uint256)": {
        "details": "See {IERC721-ownerOf}."
      },
      "renounceOwnership()": {
        "details": "Leaves the contract without owner. It will not be possible to call `onlyOwner` functions anymore. Can only be called by the current owner. NOTE: Renouncing ownership will leave the contract without an owner, thereby removing any functionality that is only available to the owner."
      },
      "safeTransferFrom(address,address,uint256)": {
        "details": "See {IERC721-safeTransferFrom}."
      },
      "safeTransferFrom(address,address,uint256,bytes)": {
        "details": "See {IERC721-safeTransferFrom}."
      },
      "setApprovalForAll(address,bool)": {
        "details": "See {IERC721-setApprovalForAll}."
      },
      "supportsInterface(bytes4)": {
        "details": "See {IERC165-supportsInterface}."
      },
      "symbol()": {
        "details": "See {IERC721Metadata-symbol}."
      },
      "tokenURI(uint256)": {
        "details": "See {IERC721Metadata-tokenURI}."
      },
      "transferFrom(address,address,uint256)": {
        "details": "See {IERC721-transferFrom}."
      },
      "transferOwnership(address)": {
        "details": "Transfers ownership of the contract to a new account (`newOwner`). Can only be called by the current owner."
      }
    },
    "version": 1
  },
  "userdoc": {
    "kind": "user",
    "methods": {
      "burn(uint256)": {
        "notice": "burns the UWID"
      },
      "setCredits(uint256,uint256)": {
        "notice": "testnet function"
      }
    },
    "version": 1
  },
  "storageLayout": {
    "storage": [
      {
        "astId": 138,
        "contract": "contracts/UWID/UWIDUpgradeable.sol:UWIDUpgradeable",
        "label": "_initialized",
        "offset": 0,
        "slot": "0",
        "type": "t_uint8"
      },
      {
        "astId": 141,
        "contract": "contracts/UWID/UWIDUpgradeable.sol:UWIDUpgradeable",
        "label": "_initializing",
        "offset": 1,
        "slot": "0",
        "type": "t_bool"
      },
      {
        "astId": 3293,
        "contract": "contracts/UWID/UWIDUpgradeable.sol:UWIDUpgradeable",
        "label": "__gap",
        "offset": 0,
        "slot": "1",
        "type": "t_array(t_uint256)50_storage"
      },
      {
        "astId": 10,
        "contract": "contracts/UWID/UWIDUpgradeable.sol:UWIDUpgradeable",
        "label": "_owner",
        "offset": 0,
        "slot": "51",
        "type": "t_address"
      },
      {
        "astId": 130,
        "contract": "contracts/UWID/UWIDUpgradeable.sol:UWIDUpgradeable",
        "label": "__gap",
        "offset": 0,
        "slot": "52",
        "type": "t_array(t_uint256)49_storage"
      },
      {
        "astId": 3512,
        "contract": "contracts/UWID/UWIDUpgradeable.sol:UWIDUpgradeable",
        "label": "__gap",
        "offset": 0,
        "slot": "101",
        "type": "t_array(t_uint256)50_storage"
      },
      {
        "astId": 1866,
        "contract": "contracts/UWID/UWIDUpgradeable.sol:UWIDUpgradeable",
        "label": "_name",
        "offset": 0,
        "slot": "151",
        "type": "t_string_storage"
      },
      {
        "astId": 1868,
        "contract": "contracts/UWID/UWIDUpgradeable.sol:UWIDUpgradeable",
        "label": "_symbol",
        "offset": 0,
        "slot": "152",
        "type": "t_string_storage"
      },
      {
        "astId": 1872,
        "contract": "contracts/UWID/UWIDUpgradeable.sol:UWIDUpgradeable",
        "label": "_owners",
        "offset": 0,
        "slot": "153",
        "type": "t_mapping(t_uint256,t_address)"
      },
      {
        "astId": 1876,
        "contract": "contracts/UWID/UWIDUpgradeable.sol:UWIDUpgradeable",
        "label": "_balances",
        "offset": 0,
        "slot": "154",
        "type": "t_mapping(t_address,t_uint256)"
      },
      {
        "astId": 1880,
        "contract": "contracts/UWID/UWIDUpgradeable.sol:UWIDUpgradeable",
        "label": "_tokenApprovals",
        "offset": 0,
        "slot": "155",
        "type": "t_mapping(t_uint256,t_address)"
      },
      {
        "astId": 1886,
        "contract": "contracts/UWID/UWIDUpgradeable.sol:UWIDUpgradeable",
        "label": "_operatorApprovals",
        "offset": 0,
        "slot": "156",
        "type": "t_mapping(t_address,t_mapping(t_address,t_bool))"
      },
      {
        "astId": 2806,
        "contract": "contracts/UWID/UWIDUpgradeable.sol:UWIDUpgradeable",
        "label": "__gap",
        "offset": 0,
        "slot": "157",
        "type": "t_array(t_uint256)44_storage"
      },
      {
        "astId": 6569,
        "contract": "contracts/UWID/UWIDUpgradeable.sol:UWIDUpgradeable",
        "label": "campus",
        "offset": 0,
        "slot": "201",
        "type": "t_mapping(t_uint256,t_string_storage)"
      },
      {
        "astId": 6571,
        "contract": "contracts/UWID/UWIDUpgradeable.sol:UWIDUpgradeable",
        "label": "_id",
        "offset": 0,
        "slot": "202",
        "type": "t_uint256"
      },
      {
        "astId": 6575,
        "contract": "contracts/UWID/UWIDUpgradeable.sol:UWIDUpgradeable",
        "label": "credits",
        "offset": 0,
        "slot": "203",
        "type": "t_mapping(t_uint256,t_uint256)"
      },
      {
        "astId": 6579,
        "contract": "contracts/UWID/UWIDUpgradeable.sol:UWIDUpgradeable",
        "label": "accountTokenId",
        "offset": 0,
        "slot": "204",
        "type": "t_mapping(t_address,t_uint256)"
      }
    ],
    "types": {
      "t_address": {
        "encoding": "inplace",
        "label": "address",
        "numberOfBytes": "20"
      },
      "t_array(t_uint256)44_storage": {
        "base": "t_uint256",
        "encoding": "inplace",
        "label": "uint256[44]",
        "numberOfBytes": "1408"
      },
      "t_array(t_uint256)49_storage": {
        "base": "t_uint256",
        "encoding": "inplace",
        "label": "uint256[49]",
        "numberOfBytes": "1568"
      },
      "t_array(t_uint256)50_storage": {
        "base": "t_uint256",
        "encoding": "inplace",
        "label": "uint256[50]",
        "numberOfBytes": "1600"
      },
      "t_bool": {
        "encoding": "inplace",
        "label": "bool",
        "numberOfBytes": "1"
      },
      "t_mapping(t_address,t_bool)": {
        "encoding": "mapping",
        "key": "t_address",
        "label": "mapping(address => bool)",
        "numberOfBytes": "32",
        "value": "t_bool"
      },
      "t_mapping(t_address,t_mapping(t_address,t_bool))": {
        "encoding": "mapping",
        "key": "t_address",
        "label": "mapping(address => mapping(address => bool))",
        "numberOfBytes": "32",
        "value": "t_mapping(t_address,t_bool)"
      },
      "t_mapping(t_address,t_uint256)": {
        "encoding": "mapping",
        "key": "t_address",
        "label": "mapping(address => uint256)",
        "numberOfBytes": "32",
        "value": "t_uint256"
      },
      "t_mapping(t_uint256,t_address)": {
        "encoding": "mapping",
        "key": "t_uint256",
        "label": "mapping(uint256 => address)",
        "numberOfBytes": "32",
        "value": "t_address"
      },
      "t_mapping(t_uint256,t_string_storage)": {
        "encoding": "mapping",
        "key": "t_uint256",
        "label": "mapping(uint256 => string)",
        "numberOfBytes": "32",
        "value": "t_string_storage"
      },
      "t_mapping(t_uint256,t_uint256)": {
        "encoding": "mapping",
        "key": "t_uint256",
        "label": "mapping(uint256 => uint256)",
        "numberOfBytes": "32",
        "value": "t_uint256"
      },
      "t_string_storage": {
        "encoding": "bytes",
        "label": "string",
        "numberOfBytes": "32"
      },
      "t_uint256": {
        "encoding": "inplace",
        "label": "uint256",
        "numberOfBytes": "32"
      },
      "t_uint8": {
        "encoding": "inplace",
        "label": "uint8",
        "numberOfBytes": "1"
      }
    }
  }
}