{
  "address": "0xcA34087565DEbeB2E973275A523561Ab7b833788",
  "abi": [
    {
      "anonymous": false,
      "inputs": [
        {
          "indexed": true,
          "internalType": "address",
          "name": "owner",
          "type": "address"
        },
        {
          "indexed": true,
          "internalType": "address",
          "name": "approved",
          "type": "address"
        },
        {
          "indexed": true,
          "internalType": "uint256",
          "name": "tokenId",
          "type": "uint256"
        }
      ],
      "name": "Approval",
      "type": "event"
    },
    {
      "anonymous": false,
      "inputs": [
        {
          "indexed": true,
          "internalType": "address",
          "name": "owner",
          "type": "address"
        },
        {
          "indexed": true,
          "internalType": "address",
          "name": "operator",
          "type": "address"
        },
        {
          "indexed": false,
          "internalType": "bool",
          "name": "approved",
          "type": "bool"
        }
      ],
      "name": "ApprovalForAll",
      "type": "event"
    },
    {
      "anonymous": false,
      "inputs": [
        {
          "indexed": false,
          "internalType": "uint8",
          "name": "version",
          "type": "uint8"
        }
      ],
      "name": "Initialized",
      "type": "event"
    },
    {
      "anonymous": false,
      "inputs": [
        {
          "indexed": true,
          "internalType": "address",
          "name": "previousOwner",
          "type": "address"
        },
        {
          "indexed": true,
          "internalType": "address",
          "name": "newOwner",
          "type": "address"
        }
      ],
      "name": "OwnershipTransferred",
      "type": "event"
    },
    {
      "anonymous": false,
      "inputs": [
        {
          "indexed": true,
          "internalType": "address",
          "name": "from",
          "type": "address"
        },
        {
          "indexed": true,
          "internalType": "address",
          "name": "to",
          "type": "address"
        },
        {
          "indexed": true,
          "internalType": "uint256",
          "name": "tokenId",
          "type": "uint256"
        }
      ],
      "name": "Transfer",
      "type": "event"
    },
    {
      "inputs": [],
      "name": "UWIDContractAddress",
      "outputs": [
        {
          "internalType": "address",
          "name": "",
          "type": "address"
        }
      ],
      "stateMutability": "view",
      "type": "function"
    },
    {
      "inputs": [
        {
          "internalType": "string",
          "name": "name_",
          "type": "string"
        },
        {
          "internalType": "string",
          "name": "symbol_",
          "type": "string"
        },
        {
          "internalType": "address",
          "name": "_UWIDContractAddress",
          "type": "address"
        }
      ],
      "name": "__UWMajor_init",
      "outputs": [],
      "stateMutability": "nonpayable",
      "type": "function"
    },
    {
      "inputs": [
        {
          "internalType": "address",
          "name": "to",
          "type": "address"
        },
        {
          "internalType": "uint256",
          "name": "tokenId",
          "type": "uint256"
        }
      ],
      "name": "approve",
      "outputs": [],
      "stateMutability": "nonpayable",
      "type": "function"
    },
    {
      "inputs": [
        {
          "internalType": "address",
          "name": "owner",
          "type": "address"
        }
      ],
      "name": "balanceOf",
      "outputs": [
        {
          "internalType": "uint256",
          "name": "",
          "type": "uint256"
        }
      ],
      "stateMutability": "view",
      "type": "function"
    },
    {
      "inputs": [
        {
          "internalType": "uint256",
          "name": "tokenId",
          "type": "uint256"
        }
      ],
      "name": "burn",
      "outputs": [],
      "stateMutability": "nonpayable",
      "type": "function"
    },
    {
      "inputs": [
        {
          "internalType": "uint256",
          "name": "tokenId",
          "type": "uint256"
        }
      ],
      "name": "getApproved",
      "outputs": [
        {
          "internalType": "address",
          "name": "",
          "type": "address"
        }
      ],
      "stateMutability": "view",
      "type": "function"
    },
    {
      "inputs": [
        {
          "internalType": "address",
          "name": "owner",
          "type": "address"
        },
        {
          "internalType": "address",
          "name": "operator",
          "type": "address"
        }
      ],
      "name": "isApprovedForAll",
      "outputs": [
        {
          "internalType": "bool",
          "name": "",
          "type": "bool"
        }
      ],
      "stateMutability": "view",
      "type": "function"
    },
    {
      "inputs": [
        {
          "internalType": "address",
          "name": "to",
          "type": "address"
        }
      ],
      "name": "mint",
      "outputs": [],
      "stateMutability": "nonpayable",
      "type": "function"
    },
    {
      "inputs": [],
      "name": "name",
      "outputs": [
        {
          "internalType": "string",
          "name": "",
          "type": "string"
        }
      ],
      "stateMutability": "view",
      "type": "function"
    },
    {
      "inputs": [],
      "name": "owner",
      "outputs": [
        {
          "internalType": "address",
          "name": "",
          "type": "address"
        }
      ],
      "stateMutability": "view",
      "type": "function"
    },
    {
      "inputs": [
        {
          "internalType": "uint256",
          "name": "tokenId",
          "type": "uint256"
        }
      ],
      "name": "ownerOf",
      "outputs": [
        {
          "internalType": "address",
          "name": "",
          "type": "address"
        }
      ],
      "stateMutability": "view",
      "type": "function"
    },
    {
      "inputs": [],
      "name": "renounceOwnership",
      "outputs": [],
      "stateMutability": "nonpayable",
      "type": "function"
    },
    {
      "inputs": [
        {
          "internalType": "address",
          "name": "from",
          "type": "address"
        },
        {
          "internalType": "address",
          "name": "to",
          "type": "address"
        },
        {
          "internalType": "uint256",
          "name": "tokenId",
          "type": "uint256"
        }
      ],
      "name": "safeTransferFrom",
      "outputs": [],
      "stateMutability": "nonpayable",
      "type": "function"
    },
    {
      "inputs": [
        {
          "internalType": "address",
          "name": "from",
          "type": "address"
        },
        {
          "internalType": "address",
          "name": "to",
          "type": "address"
        },
        {
          "internalType": "uint256",
          "name": "tokenId",
          "type": "uint256"
        },
        {
          "internalType": "bytes",
          "name": "data",
          "type": "bytes"
        }
      ],
      "name": "safeTransferFrom",
      "outputs": [],
      "stateMutability": "nonpayable",
      "type": "function"
    },
    {
      "inputs": [
        {
          "internalType": "address",
          "name": "operator",
          "type": "address"
        },
        {
          "internalType": "bool",
          "name": "approved",
          "type": "bool"
        }
      ],
      "name": "setApprovalForAll",
      "outputs": [],
      "stateMutability": "nonpayable",
      "type": "function"
    },
    {
      "inputs": [
        {
          "internalType": "bytes4",
          "name": "interfaceId",
          "type": "bytes4"
        }
      ],
      "name": "supportsInterface",
      "outputs": [
        {
          "internalType": "bool",
          "name": "",
          "type": "bool"
        }
      ],
      "stateMutability": "view",
      "type": "function"
    },
    {
      "inputs": [],
      "name": "symbol",
      "outputs": [
        {
          "internalType": "string",
          "name": "",
          "type": "string"
        }
      ],
      "stateMutability": "view",
      "type": "function"
    },
    {
      "inputs": [
        {
          "internalType": "uint256",
          "name": "tokenId",
          "type": "uint256"
        }
      ],
      "name": "tokenURI",
      "outputs": [
        {
          "internalType": "string",
          "name": "",
          "type": "string"
        }
      ],
      "stateMutability": "view",
      "type": "function"
    },
    {
      "inputs": [
        {
          "internalType": "address",
          "name": "from",
          "type": "address"
        },
        {
          "internalType": "address",
          "name": "to",
          "type": "address"
        },
        {
          "internalType": "uint256",
          "name": "tokenId",
          "type": "uint256"
        }
      ],
      "name": "transferFrom",
      "outputs": [],
      "stateMutability": "nonpayable",
      "type": "function"
    },
    {
      "inputs": [
        {
          "internalType": "address",
          "name": "newOwner",
          "type": "address"
        }
      ],
      "name": "transferOwnership",
      "outputs": [],
      "stateMutability": "nonpayable",
      "type": "function"
    }
  ],
  "transactionHash": "0xab37a47b1085bd6e614c7cd526bdb07b528609f154ef909f18fe1df9bb69ce8d",
  "args": [],
  "numDeployments": 1,
  "solcInputHash": "0d534139d8e306668c80c16f594c4d1c",
  "bytecode": "0x608060405234801561001057600080fd5b50611a43806100206000396000f3fe608060405234801561001057600080fd5b506004361061012c5760003560e01c8063715018a6116100ad578063c87b56dd11610071578063c87b56dd14610275578063e985e9c514610288578063f2b03ee81461029b578063f2fde38b146102ae578063fb2879df146102c157600080fd5b8063715018a61461022e5780638da5cb5b1461023657806395d89b4114610247578063a22cb4651461024f578063b88d4fde1461026257600080fd5b806342842e0e116100f457806342842e0e146101c157806342966c68146101d45780636352211e146101e75780636a627842146101fa57806370a082311461020d57600080fd5b806301ffc9a71461013157806306fdde0314610159578063081812fc1461016e578063095ea7b31461019957806323b872dd146101ae575b600080fd5b61014461013f3660046113bc565b6102d4565b60405190151581526020015b60405180910390f35b610161610326565b6040516101509190611429565b61018161017c36600461143c565b6103b8565b6040516001600160a01b039091168152602001610150565b6101ac6101a7366004611471565b6103df565b005b6101ac6101bc36600461149b565b6104f9565b6101ac6101cf36600461149b565b61052a565b6101ac6101e236600461143c565b610545565b6101816101f536600461143c565b610559565b6101ac6102083660046114d7565b6105b9565b61022061021b3660046114d7565b610759565b604051908152602001610150565b6101ac6107df565b6033546001600160a01b0316610181565b6101616107f3565b6101ac61025d3660046114f2565b610802565b6101ac6102703660046115ba565b610811565b61016161028336600461143c565b610849565b610144610296366004611636565b6108bd565b6101ac6102a9366004611689565b6108eb565b6101ac6102bc3660046114d7565b610a09565b60c954610181906001600160a01b031681565b60006001600160e01b031982166380ac58cd60e01b148061030557506001600160e01b03198216635b5e139f60e01b145b8061032057506301ffc9a760e01b6001600160e01b03198316145b92915050565b606060978054610335906116fd565b80601f0160208091040260200160405190810160405280929190818152602001828054610361906116fd565b80156103ae5780601f10610383576101008083540402835291602001916103ae565b820191906000526020600020905b81548152906001019060200180831161039157829003601f168201915b5050505050905090565b60006103c382610a7f565b506000908152609b60205260409020546001600160a01b031690565b60006103ea82610559565b9050806001600160a01b0316836001600160a01b03160361045c5760405162461bcd60e51b815260206004820152602160248201527f4552433732313a20617070726f76616c20746f2063757272656e74206f776e656044820152603960f91b60648201526084015b60405180910390fd5b336001600160a01b0382161480610478575061047881336108bd565b6104ea5760405162461bcd60e51b815260206004820152603d60248201527f4552433732313a20617070726f76652063616c6c6572206973206e6f7420746f60448201527f6b656e206f776e6572206f7220617070726f76656420666f7220616c6c0000006064820152608401610453565b6104f48383610ade565b505050565b6105033382610b4c565b61051f5760405162461bcd60e51b815260040161045390611737565b6104f4838383610bab565b6104f483838360405180602001604052806000815250610811565b61054d610bf3565b61055681610c4d565b50565b6000818152609960205260408120546001600160a01b0316806103205760405162461bcd60e51b8152602060048201526018602482015277115490cdcc8c4e881a5b9d985b1a59081d1bdad95b88125160421b6044820152606401610453565b6105c1610bf3565b60c9546040516370a0823160e01b81526001600160a01b038084166004830152839216906370a0823190602401602060405180830381865afa15801561060b573d6000803e3d6000fd5b505050506040513d601f19601f8201168201806040525081019061062f9190611784565b60000361067e5760405162461bcd60e51b815260206004820152601760248201527f446f6573206e6f74206861766520616e2055572049442e0000000000000000006044820152606401610453565b8161068881610759565b156106e15760405162461bcd60e51b8152602060048201526024808201527f5468652073747564656e7420697320616c726561647920696e20746865206d616044820152633537b91760e11b6064820152608401610453565b60c954604051630861b4bd60e41b81526001600160a01b0380861660048301526104f492869291169063861b4bd090602401602060405180830381865afa158015610730573d6000803e3d6000fd5b505050506040513d601f19601f820116820180604052508101906107549190611784565b610cf0565b60006001600160a01b0382166107c35760405162461bcd60e51b815260206004820152602960248201527f4552433732313a2061646472657373207a65726f206973206e6f7420612076616044820152683634b21037bbb732b960b91b6064820152608401610453565b506001600160a01b03166000908152609a602052604090205490565b6107e7610bf3565b6107f16000610d0a565b565b606060988054610335906116fd565b61080d338383610d5c565b5050565b61081b3383610b4c565b6108375760405162461bcd60e51b815260040161045390611737565b61084384848484610e2a565b50505050565b606061085482610a7f565b600061086b60408051602081019091526000815290565b9050600081511161088b57604051806020016040528060008152506108b6565b8061089584610e5d565b6040516020016108a692919061179d565b6040516020818303038152906040525b9392505050565b6001600160a01b039182166000908152609c6020908152604080832093909416825291909152205460ff1690565b600054610100900460ff161580801561090b5750600054600160ff909116105b806109255750303b158015610925575060005460ff166001145b6109885760405162461bcd60e51b815260206004820152602e60248201527f496e697469616c697a61626c653a20636f6e747261637420697320616c72656160448201526d191e481a5b9a5d1a585b1a5e995960921b6064820152608401610453565b6000805460ff1916600117905580156109ab576000805461ff0019166101001790555b6109b58484610ef0565b6109be82610f30565b8015610843576000805461ff0019169055604051600181527f7f26b83ff96e1f2b6a682f133852f6798a09c465da95921460cefb38474024989060200160405180910390a150505050565b610a11610bf3565b6001600160a01b038116610a765760405162461bcd60e51b815260206004820152602660248201527f4f776e61626c653a206e6577206f776e657220697320746865207a65726f206160448201526564647265737360d01b6064820152608401610453565b61055681610d0a565b6000818152609960205260409020546001600160a01b03166105565760405162461bcd60e51b8152602060048201526018602482015277115490cdcc8c4e881a5b9d985b1a59081d1bdad95b88125160421b6044820152606401610453565b6000818152609b6020526040902080546001600160a01b0319166001600160a01b0384169081179091558190610b1382610559565b6001600160a01b03167f8c5be1e5ebec7d5bd14f71427d1e84f3dd0314c0f7b2291e5b200ac8c7c3b92560405160405180910390a45050565b600080610b5883610559565b9050806001600160a01b0316846001600160a01b03161480610b7f5750610b7f81856108bd565b80610ba35750836001600160a01b0316610b98846103b8565b6001600160a01b0316145b949350505050565b60405162461bcd60e51b815260206004820152601960248201527f43616e6e6f74207472616e73666572205557204d616a6f722e000000000000006044820152606401610453565b6033546001600160a01b031633146107f15760405162461bcd60e51b815260206004820181905260248201527f4f776e61626c653a2063616c6c6572206973206e6f7420746865206f776e65726044820152606401610453565b6000610c5882610559565b9050610c68816000846001610f79565b610c7182610559565b6000838152609b6020908152604080832080546001600160a01b03199081169091556001600160a01b038516808552609a845282852080546000190190558785526099909352818420805490911690555192935084927fddf252ad1be2c89b69c2b068fc378daa952ba7f163c4a11628f55a4df523b3ef908390a45050565b61080d828260405180602001604052806000815250611001565b603380546001600160a01b038381166001600160a01b0319831681179093556040519116919082907f8be0079c531659141344cd1fd0a4f28419497f9722a3daafe3b4186f6b6457e090600090a35050565b816001600160a01b0316836001600160a01b031603610dbd5760405162461bcd60e51b815260206004820152601960248201527f4552433732313a20617070726f766520746f2063616c6c6572000000000000006044820152606401610453565b6001600160a01b038381166000818152609c6020908152604080832094871680845294825291829020805460ff191686151590811790915591519182527f17307eab39ab6107e8899845ad3d59bd9653f200f220920489ca2b5937696c31910160405180910390a3505050565b610e35848484610bab565b610e4184848484611034565b6108435760405162461bcd60e51b8152600401610453906117cc565b60606000610e6a83611135565b600101905060008167ffffffffffffffff811115610e8a57610e8a61152e565b6040519080825280601f01601f191660200182016040528015610eb4576020820181803683370190505b5090508181016020015b600019016f181899199a1a9b1b9c1cb0b131b232b360811b600a86061a8153600a8504945084610ebe57509392505050565b600054610100900460ff16610f175760405162461bcd60e51b81526004016104539061181e565b6097610f2383826118b7565b5060986104f482826118b7565b600054610100900460ff16610f575760405162461bcd60e51b81526004016104539061181e565b60c980546001600160a01b0319166001600160a01b0392909216919091179055565b6001811115610843576001600160a01b03841615610fbf576001600160a01b0384166000908152609a602052604081208054839290610fb990849061198d565b90915550505b6001600160a01b03831615610843576001600160a01b0383166000908152609a602052604081208054839290610ff69084906119a0565b909155505050505050565b61100b838361120d565b6110186000848484611034565b6104f45760405162461bcd60e51b8152600401610453906117cc565b60006001600160a01b0384163b1561112a57604051630a85bd0160e11b81526001600160a01b0385169063150b7a02906110789033908990889088906004016119b3565b6020604051808303816000875af19250505080156110b3575060408051601f3d908101601f191682019092526110b0918101906119f0565b60015b611110573d8080156110e1576040519150601f19603f3d011682016040523d82523d6000602084013e6110e6565b606091505b5080516000036111085760405162461bcd60e51b8152600401610453906117cc565b805181602001fd5b6001600160e01b031916630a85bd0160e11b149050610ba3565b506001949350505050565b60008072184f03e93ff9f4daa797ed6e38ed64bf6a1f0160401b83106111745772184f03e93ff9f4daa797ed6e38ed64bf6a1f0160401b830492506040015b6d04ee2d6d415b85acef810000000083106111a0576d04ee2d6d415b85acef8100000000830492506020015b662386f26fc1000083106111be57662386f26fc10000830492506010015b6305f5e10083106111d6576305f5e100830492506008015b61271083106111ea57612710830492506004015b606483106111fc576064830492506002015b600a83106103205760010192915050565b6001600160a01b0382166112635760405162461bcd60e51b815260206004820181905260248201527f4552433732313a206d696e7420746f20746865207a65726f20616464726573736044820152606401610453565b6000818152609960205260409020546001600160a01b0316156112c85760405162461bcd60e51b815260206004820152601c60248201527f4552433732313a20746f6b656e20616c7265616479206d696e746564000000006044820152606401610453565b6112d6600083836001610f79565b6000818152609960205260409020546001600160a01b03161561133b5760405162461bcd60e51b815260206004820152601c60248201527f4552433732313a20746f6b656e20616c7265616479206d696e746564000000006044820152606401610453565b6001600160a01b0382166000818152609a6020908152604080832080546001019055848352609990915280822080546001600160a01b0319168417905551839291907fddf252ad1be2c89b69c2b068fc378daa952ba7f163c4a11628f55a4df523b3ef908290a45050565b6001600160e01b03198116811461055657600080fd5b6000602082840312156113ce57600080fd5b81356108b6816113a6565b60005b838110156113f45781810151838201526020016113dc565b50506000910152565b600081518084526114158160208601602086016113d9565b601f01601f19169290920160200192915050565b6020815260006108b660208301846113fd565b60006020828403121561144e57600080fd5b5035919050565b80356001600160a01b038116811461146c57600080fd5b919050565b6000806040838503121561148457600080fd5b61148d83611455565b946020939093013593505050565b6000806000606084860312156114b057600080fd5b6114b984611455565b92506114c760208501611455565b9150604084013590509250925092565b6000602082840312156114e957600080fd5b6108b682611455565b6000806040838503121561150557600080fd5b61150e83611455565b91506020830135801515811461152357600080fd5b809150509250929050565b634e487b7160e01b600052604160045260246000fd5b600067ffffffffffffffff8084111561155f5761155f61152e565b604051601f8501601f19908116603f011681019082821181831017156115875761158761152e565b816040528093508581528686860111156115a057600080fd5b858560208301376000602087830101525050509392505050565b600080600080608085870312156115d057600080fd5b6115d985611455565b93506115e760208601611455565b925060408501359150606085013567ffffffffffffffff81111561160a57600080fd5b8501601f8101871361161b57600080fd5b61162a87823560208401611544565b91505092959194509250565b6000806040838503121561164957600080fd5b61165283611455565b915061166060208401611455565b90509250929050565b600082601f83011261167a57600080fd5b6108b683833560208501611544565b60008060006060848603121561169e57600080fd5b833567ffffffffffffffff808211156116b657600080fd5b6116c287838801611669565b945060208601359150808211156116d857600080fd5b506116e586828701611669565b9250506116f460408501611455565b90509250925092565b600181811c9082168061171157607f821691505b60208210810361173157634e487b7160e01b600052602260045260246000fd5b50919050565b6020808252602d908201527f4552433732313a2063616c6c6572206973206e6f7420746f6b656e206f776e6560408201526c1c881bdc88185c1c1c9bdd9959609a1b606082015260800190565b60006020828403121561179657600080fd5b5051919050565b600083516117af8184602088016113d9565b8351908301906117c38183602088016113d9565b01949350505050565b60208082526032908201527f4552433732313a207472616e7366657220746f206e6f6e20455243373231526560408201527131b2b4bb32b91034b6b83632b6b2b73a32b960711b606082015260800190565b6020808252602b908201527f496e697469616c697a61626c653a20636f6e7472616374206973206e6f74206960408201526a6e697469616c697a696e6760a81b606082015260800190565b601f8211156104f457600081815260208120601f850160051c810160208610156118905750805b601f850160051c820191505b818110156118af5782815560010161189c565b505050505050565b815167ffffffffffffffff8111156118d1576118d161152e565b6118e5816118df84546116fd565b84611869565b602080601f83116001811461191a57600084156119025750858301515b600019600386901b1c1916600185901b1785556118af565b600085815260208120601f198616915b828110156119495788860151825594840194600190910190840161192a565b50858210156119675787850151600019600388901b60f8161c191681555b5050505050600190811b01905550565b634e487b7160e01b600052601160045260246000fd5b8181038181111561032057610320611977565b8082018082111561032057610320611977565b6001600160a01b03858116825284166020820152604081018390526080606082018190526000906119e6908301846113fd565b9695505050505050565b600060208284031215611a0257600080fd5b81516108b6816113a656fea26469706673582212203c84191072a14e95cd8849bbcd92340597f184e4131054f6fea80e78d73140bc64736f6c63430008110033",
  "devdoc": {
    "kind": "dev",
    "methods": {
      "approve(address,uint256)": {
        "details": "See {IERC721-approve}."
      },
      "balanceOf(address)": {
        "details": "See {IERC721-balanceOf}."
      },
      "getApproved(uint256)": {
        "details": "See {IERC721-getApproved}."
      },
      "isApprovedForAll(address,address)": {
        "details": "See {IERC721-isApprovedForAll}."
      },
      "name()": {
        "details": "See {IERC721Metadata-name}."
      },
      "owner()": {
        "details": "Returns the address of the current owner."
      },
      "ownerOf(uint256)": {
        "details": "See {IERC721-ownerOf}."
      },
      "renounceOwnership()": {
        "details": "Leaves the contract without owner. It will not be possible to call `onlyOwner` functions anymore. Can only be called by the current owner. NOTE: Renouncing ownership will leave the contract without an owner, thereby removing any functionality that is only available to the owner."
      },
      "safeTransferFrom(address,address,uint256)": {
        "details": "See {IERC721-safeTransferFrom}."
      },
      "safeTransferFrom(address,address,uint256,bytes)": {
        "details": "See {IERC721-safeTransferFrom}."
      },
      "setApprovalForAll(address,bool)": {
        "details": "See {IERC721-setApprovalForAll}."
      },
      "supportsInterface(bytes4)": {
        "details": "See {IERC165-supportsInterface}."
      },
      "symbol()": {
        "details": "See {IERC721Metadata-symbol}."
      },
      "tokenURI(uint256)": {
        "details": "See {IERC721Metadata-tokenURI}."
      },
      "transferFrom(address,address,uint256)": {
        "details": "See {IERC721-transferFrom}."
      },
      "transferOwnership(address)": {
        "details": "Transfers ownership of the contract to a new account (`newOwner`). Can only be called by the current owner."
      }
    },
    "version": 1
  },
  "userdoc": {
    "kind": "user",
    "methods": {
      "burn(uint256)": {
        "notice": "burns the UWMajor"
      }
    },
    "version": 1
  },
  "storageLayout": {
    "storage": [
      {
        "astId": 138,
        "contract": "contracts/UWMajor/UWMajorUpgradeable.sol:UWMajorUpgradeable",
        "label": "_initialized",
        "offset": 0,
        "slot": "0",
        "type": "t_uint8"
      },
      {
        "astId": 141,
        "contract": "contracts/UWMajor/UWMajorUpgradeable.sol:UWMajorUpgradeable",
        "label": "_initializing",
        "offset": 1,
        "slot": "0",
        "type": "t_bool"
      },
      {
        "astId": 3293,
        "contract": "contracts/UWMajor/UWMajorUpgradeable.sol:UWMajorUpgradeable",
        "label": "__gap",
        "offset": 0,
        "slot": "1",
        "type": "t_array(t_uint256)50_storage"
      },
      {
        "astId": 10,
        "contract": "contracts/UWMajor/UWMajorUpgradeable.sol:UWMajorUpgradeable",
        "label": "_owner",
        "offset": 0,
        "slot": "51",
        "type": "t_address"
      },
      {
        "astId": 130,
        "contract": "contracts/UWMajor/UWMajorUpgradeable.sol:UWMajorUpgradeable",
        "label": "__gap",
        "offset": 0,
        "slot": "52",
        "type": "t_array(t_uint256)49_storage"
      },
      {
        "astId": 3512,
        "contract": "contracts/UWMajor/UWMajorUpgradeable.sol:UWMajorUpgradeable",
        "label": "__gap",
        "offset": 0,
        "slot": "101",
        "type": "t_array(t_uint256)50_storage"
      },
      {
        "astId": 1866,
        "contract": "contracts/UWMajor/UWMajorUpgradeable.sol:UWMajorUpgradeable",
        "label": "_name",
        "offset": 0,
        "slot": "151",
        "type": "t_string_storage"
      },
      {
        "astId": 1868,
        "contract": "contracts/UWMajor/UWMajorUpgradeable.sol:UWMajorUpgradeable",
        "label": "_symbol",
        "offset": 0,
        "slot": "152",
        "type": "t_string_storage"
      },
      {
        "astId": 1872,
        "contract": "contracts/UWMajor/UWMajorUpgradeable.sol:UWMajorUpgradeable",
        "label": "_owners",
        "offset": 0,
        "slot": "153",
        "type": "t_mapping(t_uint256,t_address)"
      },
      {
        "astId": 1876,
        "contract": "contracts/UWMajor/UWMajorUpgradeable.sol:UWMajorUpgradeable",
        "label": "_balances",
        "offset": 0,
        "slot": "154",
        "type": "t_mapping(t_address,t_uint256)"
      },
      {
        "astId": 1880,
        "contract": "contracts/UWMajor/UWMajorUpgradeable.sol:UWMajorUpgradeable",
        "label": "_tokenApprovals",
        "offset": 0,
        "slot": "155",
        "type": "t_mapping(t_uint256,t_address)"
      },
      {
        "astId": 1886,
        "contract": "contracts/UWMajor/UWMajorUpgradeable.sol:UWMajorUpgradeable",
        "label": "_operatorApprovals",
        "offset": 0,
        "slot": "156",
        "type": "t_mapping(t_address,t_mapping(t_address,t_bool))"
      },
      {
        "astId": 2806,
        "contract": "contracts/UWMajor/UWMajorUpgradeable.sol:UWMajorUpgradeable",
        "label": "__gap",
        "offset": 0,
        "slot": "157",
        "type": "t_array(t_uint256)44_storage"
      },
      {
        "astId": 6780,
        "contract": "contracts/UWMajor/UWMajorUpgradeable.sol:UWMajorUpgradeable",
        "label": "UWIDContractAddress",
        "offset": 0,
        "slot": "201",
        "type": "t_address"
      }
    ],
    "types": {
      "t_address": {
        "encoding": "inplace",
        "label": "address",
        "numberOfBytes": "20"
      },
      "t_array(t_uint256)44_storage": {
        "base": "t_uint256",
        "encoding": "inplace",
        "label": "uint256[44]",
        "numberOfBytes": "1408"
      },
      "t_array(t_uint256)49_storage": {
        "base": "t_uint256",
        "encoding": "inplace",
        "label": "uint256[49]",
        "numberOfBytes": "1568"
      },
      "t_array(t_uint256)50_storage": {
        "base": "t_uint256",
        "encoding": "inplace",
        "label": "uint256[50]",
        "numberOfBytes": "1600"
      },
      "t_bool": {
        "encoding": "inplace",
        "label": "bool",
        "numberOfBytes": "1"
      },
      "t_mapping(t_address,t_bool)": {
        "encoding": "mapping",
        "key": "t_address",
        "label": "mapping(address => bool)",
        "numberOfBytes": "32",
        "value": "t_bool"
      },
      "t_mapping(t_address,t_mapping(t_address,t_bool))": {
        "encoding": "mapping",
        "key": "t_address",
        "label": "mapping(address => mapping(address => bool))",
        "numberOfBytes": "32",
        "value": "t_mapping(t_address,t_bool)"
      },
      "t_mapping(t_address,t_uint256)": {
        "encoding": "mapping",
        "key": "t_address",
        "label": "mapping(address => uint256)",
        "numberOfBytes": "32",
        "value": "t_uint256"
      },
      "t_mapping(t_uint256,t_address)": {
        "encoding": "mapping",
        "key": "t_uint256",
        "label": "mapping(uint256 => address)",
        "numberOfBytes": "32",
        "value": "t_address"
      },
      "t_string_storage": {
        "encoding": "bytes",
        "label": "string",
        "numberOfBytes": "32"
      },
      "t_uint256": {
        "encoding": "inplace",
        "label": "uint256",
        "numberOfBytes": "32"
      },
      "t_uint8": {
        "encoding": "inplace",
        "label": "uint8",
        "numberOfBytes": "1"
      }
    }
  }
}